{
  "address": "0x0102e9641EEf49AeB73A2E46ebCeC15Cd7D0502F",
  "abi": [
    {
      "inputs": [
        {
          "internalType": "address",
          "name": "_priceFeed",
          "type": "address"
        },
        {
          "internalType": "address",
          "name": "_liquidityToken",
          "type": "address"
        }
      ],
      "stateMutability": "nonpayable",
      "type": "constructor"
    },
    {
      "inputs": [
        {
          "internalType": "uint256",
          "name": "prod1",
          "type": "uint256"
        }
      ],
      "name": "PRBMath__MulDivFixedPointOverflow",
      "type": "error"
    },
    {
      "anonymous": false,
      "inputs": [
        {
          "indexed": true,
          "internalType": "address",
          "name": "owner",
          "type": "address"
        },
        {
          "indexed": false,
          "internalType": "address[]",
          "name": "acceptedTokens",
          "type": "address[]"
        },
        {
          "indexed": false,
          "internalType": "address",
          "name": "priceModel",
          "type": "address"
        },
        {
          "indexed": false,
          "internalType": "uint256",
          "name": "totalLiquidity",
          "type": "uint256"
        },
        {
          "indexed": false,
          "internalType": "uint256",
          "name": "newPoolIndex",
          "type": "uint256"
        },
        {
          "indexed": false,
          "internalType": "uint256",
          "name": "maxDuration",
          "type": "uint256"
        },
        {
          "indexed": false,
          "internalType": "uint256",
          "name": "dailyFeePercentage",
          "type": "uint256"
        }
      ],
      "name": "PoolCreated",
      "type": "event"
    },
    {
      "inputs": [
        {
          "internalType": "address[]",
          "name": "_acceptedTokens",
          "type": "address[]"
        },
        {
          "internalType": "uint256",
          "name": "_dailyFeePercentage",
          "type": "uint256"
        },
        {
          "internalType": "uint256",
          "name": "_initialLiquidity",
          "type": "uint256"
        },
        {
          "internalType": "uint256",
          "name": "_maxDuration",
          "type": "uint256"
        }
      ],
      "name": "createPool",
      "outputs": [
        {
          "internalType": "uint256",
          "name": "",
          "type": "uint256"
        },
        {
          "internalType": "address",
          "name": "",
          "type": "address"
        }
      ],
      "stateMutability": "nonpayable",
      "type": "function"
    },
    {
      "inputs": [
        {
          "internalType": "address",
          "name": "_lp",
          "type": "address"
        },
        {
          "internalType": "uint256",
          "name": "_index",
          "type": "uint256"
        }
      ],
      "name": "getPool",
      "outputs": [
        {
          "components": [
            {
              "internalType": "address[]",
              "name": "acceptedTokens",
              "type": "address[]"
            },
            {
              "internalType": "uint256",
              "name": "totalLiquidity",
              "type": "uint256"
            },
            {
              "internalType": "contract PriceModel",
              "name": "priceModel",
              "type": "address"
            }
          ],
          "internalType": "struct InterestSwap.Pool",
          "name": "",
          "type": "tuple"
        }
      ],
      "stateMutability": "view",
      "type": "function"
    },
    {
      "inputs": [
        {
          "internalType": "address",
          "name": "_lp",
          "type": "address"
        }
      ],
      "name": "getUserTotalPools",
      "outputs": [
        {
          "internalType": "uint256",
          "name": "",
          "type": "uint256"
        }
      ],
      "stateMutability": "view",
      "type": "function"
    },
    {
      "inputs": [
        {
          "internalType": "address",
          "name": "",
          "type": "address"
        },
        {
          "internalType": "uint256",
          "name": "",
          "type": "uint256"
        },
        {
          "internalType": "address",
          "name": "",
          "type": "address"
        }
      ],
      "name": "isAssetSupported",
      "outputs": [
        {
          "internalType": "bool",
          "name": "",
          "type": "bool"
        }
      ],
      "stateMutability": "view",
      "type": "function"
    },
    {
      "inputs": [],
      "name": "liquidityToken",
      "outputs": [
        {
          "internalType": "contract IERC20",
          "name": "",
          "type": "address"
        }
      ],
      "stateMutability": "view",
      "type": "function"
    },
    {
      "inputs": [],
      "name": "priceFeed",
      "outputs": [
        {
          "internalType": "contract IPriceFeed",
          "name": "",
          "type": "address"
        }
      ],
      "stateMutability": "view",
      "type": "function"
    },
    {
      "inputs": [
        {
          "internalType": "uint256",
          "name": "",
          "type": "uint256"
        }
      ],
      "name": "priceModels",
      "outputs": [
        {
          "internalType": "address",
          "name": "",
          "type": "address"
        }
      ],
      "stateMutability": "view",
      "type": "function"
    },
    {
      "inputs": [
        {
          "internalType": "address",
          "name": "_asset",
          "type": "address"
        },
        {
          "internalType": "uint256",
          "name": "_amount",
          "type": "uint256"
        },
        {
          "internalType": "uint256",
          "name": "_daysTerm",
          "type": "uint256"
        },
        {
          "components": [
            {
              "internalType": "address",
              "name": "poolOwner",
              "type": "address"
            },
            {
              "internalType": "uint256",
              "name": "poolIndex",
              "type": "uint256"
            }
          ],
          "internalType": "struct InterestSwap.Route",
          "name": "route",
          "type": "tuple"
        }
      ],
      "name": "quote",
      "outputs": [
        {
          "internalType": "uint256",
          "name": "",
          "type": "uint256"
        },
        {
          "internalType": "uint256",
          "name": "",
          "type": "uint256"
        },
        {
          "internalType": "uint256",
          "name": "",
          "type": "uint256"
        }
      ],
      "stateMutability": "view",
      "type": "function"
    },
    {
      "inputs": [
        {
          "internalType": "address",
          "name": "_asset",
          "type": "address"
        },
        {
          "internalType": "uint256",
          "name": "_amount",
          "type": "uint256"
        },
        {
          "internalType": "uint256",
          "name": "_daysTerm",
          "type": "uint256"
        },
        {
          "components": [
            {
              "internalType": "address",
              "name": "poolOwner",
              "type": "address"
            },
            {
              "internalType": "uint256",
              "name": "poolIndex",
              "type": "uint256"
            }
          ],
          "internalType": "struct InterestSwap.Route",
          "name": "route",
          "type": "tuple"
        }
      ],
      "name": "swap",
      "outputs": [
        {
          "internalType": "uint256",
          "name": "",
          "type": "uint256"
        }
      ],
      "stateMutability": "nonpayable",
      "type": "function"
    }
  ],
  "transactionHash": "0x007ed07eba79278c35eced6328d74dc8746251fe736123632e0b018cbaa73b8e",
  "args": [
    "0x5552C41A3B31727f4B14760E0e54731E2277b8f2",
    "0x5A752EeD3971df20000E8E3650D00F857C0a3020"
  ],
  "numDeployments": 1,
  "solcInputHash": "33e7f00e9625d6ca0594ef858d5366e0",
  "bytecode": "0x60806040523480156200001157600080fd5b50604051620021ea380380620021ea83398181016040528101906200003791906200012a565b816000806101000a81548173ffffffffffffffffffffffffffffffffffffffff021916908373ffffffffffffffffffffffffffffffffffffffff16021790555080600160006101000a81548173ffffffffffffffffffffffffffffffffffffffff021916908373ffffffffffffffffffffffffffffffffffffffff160217905550505062000171565b600080fd5b600073ffffffffffffffffffffffffffffffffffffffff82169050919050565b6000620000f282620000c5565b9050919050565b6200010481620000e5565b81146200011057600080fd5b50565b6000815190506200012481620000f9565b92915050565b60008060408385031215620001445762000143620000c0565b5b6000620001548582860162000113565b9250506020620001678582860162000113565b9150509250929050565b61206980620001816000396000f3fe60806040523480156200001157600080fd5b5060043610620000a05760003560e01c8063574b529b116200006f578063574b529b146200016a5780635b5a630014620001a05780635b5b9ea214620001d65780636c61b615146200020c578063741bef1a146200024457620000a0565b80630658c48914620000a5578063387dd50014620000db57806343cd8f7e1462000111578063493a26c71462000133575b600080fd5b620000c36004803603810190620000bd9190620011d6565b62000266565b604051620000d2919062001259565b60405180910390f35b620000f96004803603810190620000f3919062001276565b62000439565b60405162000108919062001259565b60405180910390f35b6200011b62000485565b6040516200012a919062001313565b60405180910390f35b6200015160048036038101906200014b919062001410565b620004ab565b60405162000161929190620014b2565b60405180910390f35b620001886004803603810190620001829190620014df565b6200080f565b60405162000197919062001511565b60405180910390f35b620001be6004803603810190620001b891906200152e565b6200084f565b604051620001cd9190620015a7565b60405180910390f35b620001f46004803603810190620001ee9190620015c4565b6200088b565b60405162000203919062001765565b60405180910390f35b6200022a6004803603810190620002249190620011d6565b620009fa565b6040516200023b9392919062001789565b60405180910390f35b6200024e62000d53565b6040516200025d9190620017eb565b60405180910390f35b6000806200027786868686620009fa565b925050508060026000856000015173ffffffffffffffffffffffffffffffffffffffff1673ffffffffffffffffffffffffffffffffffffffff168152602001908152602001600020846020015181548110620002d857620002d762001808565b5b90600052602060002090600302016001016000828254620002fa919062001866565b925050819055508573ffffffffffffffffffffffffffffffffffffffff166323b872dd3330886040518463ffffffff1660e01b81526004016200034093929190620018a1565b6020604051808303816000875af115801562000360573d6000803e3d6000fd5b505050506040513d601f19601f820116820180604052508101906200038691906200190f565b50600160009054906101000a900473ffffffffffffffffffffffffffffffffffffffff1673ffffffffffffffffffffffffffffffffffffffff1663a9059cbb33836040518363ffffffff1660e01b8152600401620003e692919062001941565b6020604051808303816000875af115801562000406573d6000803e3d6000fd5b505050506040513d601f19601f820116820180604052508101906200042c91906200190f565b5080915050949350505050565b6000600260008373ffffffffffffffffffffffffffffffffffffffff1673ffffffffffffffffffffffffffffffffffffffff168152602001908152602001600020805490509050919050565b600160009054906101000a900473ffffffffffffffffffffffffffffffffffffffff1681565b6000806000865190506000600260003373ffffffffffffffffffffffffffffffffffffffff1673ffffffffffffffffffffffffffffffffffffffff1681526020019081526020016000208054905090506000620005088862000d77565b9050600260003373ffffffffffffffffffffffffffffffffffffffff1673ffffffffffffffffffffffffffffffffffffffff16815260200190815260200160002060405180606001604052808b81526020018981526020018373ffffffffffffffffffffffffffffffffffffffff1681525090806001815401808255809150506001900390600052602060002090600302016000909190919091506000820151816000019080519060200190620005c192919062000f3c565b506020820151816001015560408201518160020160006101000a81548173ffffffffffffffffffffffffffffffffffffffff021916908373ffffffffffffffffffffffffffffffffffffffff160217905550505060005b83811015620006fa576001600360003373ffffffffffffffffffffffffffffffffffffffff1673ffffffffffffffffffffffffffffffffffffffff168152602001908152602001600020600085815260200190815260200160002060008c84815181106200068b576200068a62001808565b5b602002602001015173ffffffffffffffffffffffffffffffffffffffff1673ffffffffffffffffffffffffffffffffffffffff16815260200190815260200160002060006101000a81548160ff0219169083151502179055508080620006f1906200196e565b91505062000618565b50600160009054906101000a900473ffffffffffffffffffffffffffffffffffffffff1673ffffffffffffffffffffffffffffffffffffffff166323b872dd33308a6040518463ffffffff1660e01b81526004016200075c93929190620018a1565b6020604051808303816000875af11580156200077c573d6000803e3d6000fd5b505050506040513d601f19601f82011682018060405250810190620007a291906200190f565b503373ffffffffffffffffffffffffffffffffffffffff167fe58b6f4477d0bce5fb7fbad0e27913e330ef857ef6b5cd144042cb25acf21da68a838a868b8e604051620007f59695949392919062001a36565b60405180910390a281819450945050505094509492505050565b600481815481106200082057600080fd5b906000526020600020016000915054906101000a900473ffffffffffffffffffffffffffffffffffffffff1681565b6003602052826000526040600020602052816000526040600020602052806000526040600020600092509250509054906101000a900460ff1681565b6200089562000fcb565b600260008473ffffffffffffffffffffffffffffffffffffffff1673ffffffffffffffffffffffffffffffffffffffff1681526020019081526020016000208281548110620008e957620008e862001808565b5b9060005260206000209060030201604051806060016040529081600082018054806020026020016040519081016040528092919081815260200182805480156200098957602002820191906000526020600020905b8160009054906101000a900473ffffffffffffffffffffffffffffffffffffffff1673ffffffffffffffffffffffffffffffffffffffff16815260200190600101908083116200093e575b50505050508152602001600182015481526020016002820160009054906101000a900473ffffffffffffffffffffffffffffffffffffffff1673ffffffffffffffffffffffffffffffffffffffff1673ffffffffffffffffffffffffffffffffffffffff1681525050905092915050565b600080600060036000856000015173ffffffffffffffffffffffffffffffffffffffff1673ffffffffffffffffffffffffffffffffffffffff16815260200190815260200160002060008560200151815260200190815260200160002060008873ffffffffffffffffffffffffffffffffffffffff1673ffffffffffffffffffffffffffffffffffffffff16815260200190815260200160002060009054906101000a900460ff1662000ae4576040517f08c379a000000000000000000000000000000000000000000000000000000000815260040162000adb9062001b0b565b60405180910390fd5b60008060009054906101000a900473ffffffffffffffffffffffffffffffffffffffff1673ffffffffffffffffffffffffffffffffffffffff1663b3596f07896040518263ffffffff1660e01b815260040162000b42919062001511565b602060405180830381865afa15801562000b60573d6000803e3d6000fd5b505050506040513d601f19601f8201168201806040525081019062000b86919062001b44565b9050600062000b9f888362000e2190919063ffffffff16565b9050600060026000886000015173ffffffffffffffffffffffffffffffffffffffff1673ffffffffffffffffffffffffffffffffffffffff16815260200190815260200160002087602001518154811062000bff5762000bfe62001808565b5b90600052602060002090600302019050806001015482111562000c59576040517f08c379a000000000000000000000000000000000000000000000000000000000815260040162000c509062001bc6565b60405180910390fd5b60008160020160009054906101000a900473ffffffffffffffffffffffffffffffffffffffff1673ffffffffffffffffffffffffffffffffffffffff1663315f1a418b8b6040518363ffffffff1660e01b815260040162000cbc92919062001be8565b602060405180830381865afa15801562000cda573d6000803e3d6000fd5b505050506040513d601f19601f8201168201806040525081019062000d00919062001b44565b90506000818b62000d12919062001866565b9050600062000d3886848e62000d29919062001866565b62000e2190919063ffffffff16565b90508282829850985098505050505050509450945094915050565b60008054906101000a900473ffffffffffffffffffffffffffffffffffffffff1681565b6000808260405162000d899062001002565b62000d95919062001259565b604051809103906000f08015801562000db2573d6000803e3d6000fd5b5090506004819080600181540180825580915050600190039060005260206000200160009091909190916101000a81548173ffffffffffffffffffffffffffffffffffffffff021916908373ffffffffffffffffffffffffffffffffffffffff16021790555080915050919050565b600062000e2f838362000e37565b905092915050565b60008060008019848609848602925082811083820303915050670de0b6b3a7640000811062000e9f57806040517fd31b340200000000000000000000000000000000000000000000000000000000815260040162000e96919062001259565b60405180910390fd5b600080670de0b6b3a764000086880991506706f05b59d3b1ffff821190506000830362000ef05780670de0b6b3a7640000858162000ee25762000ee162001c15565b5b040194505050505062000f36565b807faccb18165bd6fe31ae1cf318dc5b51eee0e1ba569b88cd74c1773b91fac1066960016204000080600003040186851186030262040000858803041702019450505050505b92915050565b82805482825590600052602060002090810192821562000fb8579160200282015b8281111562000fb75782518260006101000a81548173ffffffffffffffffffffffffffffffffffffffff021916908373ffffffffffffffffffffffffffffffffffffffff1602179055509160200191906001019062000f5d565b5b50905062000fc7919062001010565b5090565b60405180606001604052806060815260200160008152602001600073ffffffffffffffffffffffffffffffffffffffff1681525090565b6103ef8062001c4583390190565b5b808211156200102b57600081600090555060010162001011565b5090565b6000604051905090565b600080fd5b600080fd5b600073ffffffffffffffffffffffffffffffffffffffff82169050919050565b6000620010708262001043565b9050919050565b620010828162001063565b81146200108e57600080fd5b50565b600081359050620010a28162001077565b92915050565b6000819050919050565b620010bd81620010a8565b8114620010c957600080fd5b50565b600081359050620010dd81620010b2565b92915050565b600080fd5b6000601f19601f8301169050919050565b7f4e487b7100000000000000000000000000000000000000000000000000000000600052604160045260246000fd5b6200113382620010e8565b810181811067ffffffffffffffff82111715620011555762001154620010f9565b5b80604052505050565b60006200116a6200102f565b905062001178828262001128565b919050565b600060408284031215620011965762001195620010e3565b5b620011a260406200115e565b90506000620011b48482850162001091565b6000830152506020620011ca84828501620010cc565b60208301525092915050565b60008060008060a08587031215620011f357620011f262001039565b5b6000620012038782880162001091565b94505060206200121687828801620010cc565b93505060406200122987828801620010cc565b92505060606200123c878288016200117d565b91505092959194509250565b6200125381620010a8565b82525050565b600060208201905062001270600083018462001248565b92915050565b6000602082840312156200128f576200128e62001039565b5b60006200129f8482850162001091565b91505092915050565b6000819050919050565b6000620012d3620012cd620012c78462001043565b620012a8565b62001043565b9050919050565b6000620012e782620012b2565b9050919050565b6000620012fb82620012da565b9050919050565b6200130d81620012ee565b82525050565b60006020820190506200132a600083018462001302565b92915050565b600080fd5b600067ffffffffffffffff821115620013535762001352620010f9565b5b602082029050602081019050919050565b600080fd5b6000620013806200137a8462001335565b6200115e565b90508083825260208201905060208402830185811115620013a657620013a562001364565b5b835b81811015620013d35780620013be888262001091565b845260208401935050602081019050620013a8565b5050509392505050565b600082601f830112620013f557620013f462001330565b5b81356200140784826020860162001369565b91505092915050565b600080600080608085870312156200142d576200142c62001039565b5b600085013567ffffffffffffffff8111156200144e576200144d6200103e565b5b6200145c87828801620013dd565b94505060206200146f87828801620010cc565b93505060406200148287828801620010cc565b92505060606200149587828801620010cc565b91505092959194509250565b620014ac8162001063565b82525050565b6000604082019050620014c9600083018562001248565b620014d86020830184620014a1565b9392505050565b600060208284031215620014f857620014f762001039565b5b60006200150884828501620010cc565b91505092915050565b6000602082019050620015286000830184620014a1565b92915050565b6000806000606084860312156200154a576200154962001039565b5b60006200155a8682870162001091565b93505060206200156d86828701620010cc565b9250506040620015808682870162001091565b9150509250925092565b60008115159050919050565b620015a1816200158a565b82525050565b6000602082019050620015be600083018462001596565b92915050565b60008060408385031215620015de57620015dd62001039565b5b6000620015ee8582860162001091565b92505060206200160185828601620010cc565b9150509250929050565b600081519050919050565b600082825260208201905092915050565b6000819050602082019050919050565b620016428162001063565b82525050565b600062001656838362001637565b60208301905092915050565b6000602082019050919050565b60006200167c826200160b565b62001688818562001616565b9350620016958362001627565b8060005b83811015620016cc578151620016b0888262001648565b9750620016bd8362001662565b92505060018101905062001699565b5085935050505092915050565b620016e481620010a8565b82525050565b6000620016f782620012da565b9050919050565b6200170981620016ea565b82525050565b600060608301600083015184820360008601526200172e82826200166f565b9150506020830151620017456020860182620016d9565b5060408301516200175a6040860182620016fe565b508091505092915050565b600060208201905081810360008301526200178181846200170f565b905092915050565b6000606082019050620017a0600083018662001248565b620017af602083018562001248565b620017be604083018462001248565b949350505050565b6000620017d382620012da565b9050919050565b620017e581620017c6565b82525050565b6000602082019050620018026000830184620017da565b92915050565b7f4e487b7100000000000000000000000000000000000000000000000000000000600052603260045260246000fd5b7f4e487b7100000000000000000000000000000000000000000000000000000000600052601160045260246000fd5b60006200187382620010a8565b91506200188083620010a8565b92508282039050818111156200189b576200189a62001837565b5b92915050565b6000606082019050620018b86000830186620014a1565b620018c76020830185620014a1565b620018d6604083018462001248565b949350505050565b620018e9816200158a565b8114620018f557600080fd5b50565b6000815190506200190981620018de565b92915050565b60006020828403121562001928576200192762001039565b5b60006200193884828501620018f8565b91505092915050565b6000604082019050620019586000830185620014a1565b62001967602083018462001248565b9392505050565b60006200197b82620010a8565b91507fffffffffffffffffffffffffffffffffffffffffffffffffffffffffffffffff8203620019b057620019af62001837565b5b600182019050919050565b600082825260208201905092915050565b6000620019d9826200160b565b620019e58185620019bb565b9350620019f28362001627565b8060005b8381101562001a2957815162001a0d888262001648565b975062001a1a8362001662565b925050600181019050620019f6565b5085935050505092915050565b600060c082019050818103600083015262001a528189620019cc565b905062001a636020830188620014a1565b62001a72604083018762001248565b62001a81606083018662001248565b62001a90608083018562001248565b62001a9f60a083018462001248565b979650505050505050565b600082825260208201905092915050565b7f556e737570706f72746564206173736574000000000000000000000000000000600082015250565b600062001af360118362001aaa565b915062001b008262001abb565b602082019050919050565b6000602082019050818103600083015262001b268162001ae4565b9050919050565b60008151905062001b3e81620010b2565b92915050565b60006020828403121562001b5d5762001b5c62001039565b5b600062001b6d8482850162001b2d565b91505092915050565b7f4e6f7420656e6f756768206c697175696469747920696e2074686520706f6f6c600082015250565b600062001bae60208362001aaa565b915062001bbb8262001b76565b602082019050919050565b6000602082019050818103600083015262001be18162001b9f565b9050919050565b600060408201905062001bff600083018562001248565b62001c0e602083018462001248565b9392505050565b7f4e487b7100000000000000000000000000000000000000000000000000000000600052601260045260246000fdfe608060405234801561001057600080fd5b506040516103ef3803806103ef8339818101604052810190610032919061007a565b80600081905550506100a7565b600080fd5b6000819050919050565b61005781610044565b811461006257600080fd5b50565b6000815190506100748161004e565b92915050565b6000602082840312156100905761008f61003f565b5b600061009e84828501610065565b91505092915050565b610339806100b66000396000f3fe608060405234801561001057600080fd5b50600436106100415760003560e01c806329fe619914610046578063315f1a41146100645780636683d37d14610094575b600080fd5b61004e6100b0565b60405161005b919061021b565b60405180910390f35b61007e60048036038101906100799190610267565b6100b6565b60405161008b919061021b565b60405180910390f35b6100ae60048036038101906100a991906102a7565b6100e7565b005b60005481565b60006100df826100d1600054866100f190919063ffffffff16565b6100f190919063ffffffff16565b905092915050565b8060008190555050565b60006100fd8383610105565b905092915050565b60008060008019848609848602925082811083820303915050670de0b6b3a7640000811061016a57806040517fd31b3402000000000000000000000000000000000000000000000000000000008152600401610161919061021b565b60405180910390fd5b600080670de0b6b3a764000086880991506706f05b59d3b1ffff82119050600083036101b65780670de0b6b3a764000085816101a9576101a86102d4565b5b04019450505050506101fc565b807faccb18165bd6fe31ae1cf318dc5b51eee0e1ba569b88cd74c1773b91fac1066960016204000080600003040186851186030262040000858803041702019450505050505b92915050565b6000819050919050565b61021581610202565b82525050565b6000602082019050610230600083018461020c565b92915050565b600080fd5b61024481610202565b811461024f57600080fd5b50565b6000813590506102618161023b565b92915050565b6000806040838503121561027e5761027d610236565b5b600061028c85828601610252565b925050602061029d85828601610252565b9150509250929050565b6000602082840312156102bd576102bc610236565b5b60006102cb84828501610252565b91505092915050565b7f4e487b7100000000000000000000000000000000000000000000000000000000600052601260045260246000fdfea2646970667358221220776930fcde403e4ac8f6484b30a5fcf07d73c0a336d7ad206fbf019d635170e164736f6c63430008110033a264697066735822122038d133dd572c148ca2578a25cf3ebac68ac2823dcf0d4feaa0ff9c944d6e67ce64736f6c63430008110033",
  "devdoc": {
    "kind": "dev",
    "methods": {},
    "version": 1
  },
  "userdoc": {
    "errors": {
      "PRBMath__MulDivFixedPointOverflow(uint256)": [
        {
          "notice": "Emitted when the result overflows uint256."
        }
      ]
    },
    "kind": "user",
    "methods": {},
    "version": 1
  },
  "storageLayout": {
    "storage": [
      {
        "astId": 15,
        "contract": "src/InterestSwap.sol:InterestSwap",
        "label": "priceFeed",
        "offset": 0,
        "slot": "0",
        "type": "t_contract(IPriceFeed)3277"
      },
      {
        "astId": 18,
        "contract": "src/InterestSwap.sol:InterestSwap",
        "label": "liquidityToken",
        "offset": 0,
        "slot": "1",
        "type": "t_contract(IERC20)3258"
      },
      {
        "astId": 38,
        "contract": "src/InterestSwap.sol:InterestSwap",
        "label": "pools",
        "offset": 0,
        "slot": "2",
        "type": "t_mapping(t_address,t_array(t_struct(Pool)27_storage)dyn_storage)"
      },
      {
        "astId": 46,
        "contract": "src/InterestSwap.sol:InterestSwap",
        "label": "isAssetSupported",
        "offset": 0,
        "slot": "3",
        "type": "t_mapping(t_address,t_mapping(t_uint256,t_mapping(t_address,t_bool)))"
      },
      {
        "astId": 49,
        "contract": "src/InterestSwap.sol:InterestSwap",
        "label": "priceModels",
        "offset": 0,
        "slot": "4",
        "type": "t_array(t_address)dyn_storage"
      }
    ],
    "types": {
      "t_address": {
        "encoding": "inplace",
        "label": "address",
        "numberOfBytes": "20"
      },
      "t_array(t_address)dyn_storage": {
        "base": "t_address",
        "encoding": "dynamic_array",
        "label": "address[]",
        "numberOfBytes": "32"
      },
      "t_array(t_struct(Pool)27_storage)dyn_storage": {
        "base": "t_struct(Pool)27_storage",
        "encoding": "dynamic_array",
        "label": "struct InterestSwap.Pool[]",
        "numberOfBytes": "32"
      },
      "t_bool": {
        "encoding": "inplace",
        "label": "bool",
        "numberOfBytes": "1"
      },
      "t_contract(IERC20)3258": {
        "encoding": "inplace",
        "label": "contract IERC20",
        "numberOfBytes": "20"
      },
      "t_contract(IPriceFeed)3277": {
        "encoding": "inplace",
        "label": "contract IPriceFeed",
        "numberOfBytes": "20"
      },
      "t_contract(PriceModel)670": {
        "encoding": "inplace",
        "label": "contract PriceModel",
        "numberOfBytes": "20"
      },
      "t_mapping(t_address,t_array(t_struct(Pool)27_storage)dyn_storage)": {
        "encoding": "mapping",
        "key": "t_address",
        "label": "mapping(address => struct InterestSwap.Pool[])",
        "numberOfBytes": "32",
        "value": "t_array(t_struct(Pool)27_storage)dyn_storage"
      },
      "t_mapping(t_address,t_bool)": {
        "encoding": "mapping",
        "key": "t_address",
        "label": "mapping(address => bool)",
        "numberOfBytes": "32",
        "value": "t_bool"
      },
      "t_mapping(t_address,t_mapping(t_uint256,t_mapping(t_address,t_bool)))": {
        "encoding": "mapping",
        "key": "t_address",
        "label": "mapping(address => mapping(uint256 => mapping(address => bool)))",
        "numberOfBytes": "32",
        "value": "t_mapping(t_uint256,t_mapping(t_address,t_bool))"
      },
      "t_mapping(t_uint256,t_mapping(t_address,t_bool))": {
        "encoding": "mapping",
        "key": "t_uint256",
        "label": "mapping(uint256 => mapping(address => bool))",
        "numberOfBytes": "32",
        "value": "t_mapping(t_address,t_bool)"
      },
      "t_struct(Pool)27_storage": {
        "encoding": "inplace",
        "label": "struct InterestSwap.Pool",
        "members": [
          {
            "astId": 21,
            "contract": "src/InterestSwap.sol:InterestSwap",
            "label": "acceptedTokens",
            "offset": 0,
            "slot": "0",
            "type": "t_array(t_address)dyn_storage"
          },
          {
            "astId": 23,
            "contract": "src/InterestSwap.sol:InterestSwap",
            "label": "totalLiquidity",
            "offset": 0,
            "slot": "1",
            "type": "t_uint256"
          },
          {
            "astId": 26,
            "contract": "src/InterestSwap.sol:InterestSwap",
            "label": "priceModel",
            "offset": 0,
            "slot": "2",
            "type": "t_contract(PriceModel)670"
          }
        ],
        "numberOfBytes": "96"
      },
      "t_uint256": {
        "encoding": "inplace",
        "label": "uint256",
        "numberOfBytes": "32"
      }
    }
  }
}