{
  "address": "0xfB6ed34C350a42b97c553e4C0D9A13B8f8e543c9",
  "abi": [
    {
      "inputs": [
        {
          "internalType": "address",
          "name": "_priceFeed",
          "type": "address"
        },
        {
          "internalType": "address",
          "name": "_liquidityToken",
          "type": "address"
        }
      ],
      "stateMutability": "nonpayable",
      "type": "constructor"
    },
    {
      "inputs": [
        {
          "internalType": "uint256",
          "name": "prod1",
          "type": "uint256"
        }
      ],
      "name": "PRBMath__MulDivFixedPointOverflow",
      "type": "error"
    },
    {
      "anonymous": false,
      "inputs": [
        {
          "indexed": true,
          "internalType": "address",
          "name": "owner",
          "type": "address"
        },
        {
          "indexed": false,
          "internalType": "address[]",
          "name": "acceptedTokens",
          "type": "address[]"
        },
        {
          "indexed": false,
          "internalType": "contract PriceModel",
          "name": "priceModel",
          "type": "address"
        },
        {
          "indexed": false,
          "internalType": "uint256",
          "name": "totalLiquidity",
          "type": "uint256"
        }
      ],
      "name": "PoolCreated",
      "type": "event"
    },
    {
      "inputs": [
        {
          "internalType": "address[]",
          "name": "_acceptedTokens",
          "type": "address[]"
        },
        {
          "internalType": "address",
          "name": "_priceModel",
          "type": "address"
        },
        {
          "internalType": "uint256",
          "name": "_initialLiquidity",
          "type": "uint256"
        }
      ],
      "name": "createPool",
      "outputs": [
        {
          "internalType": "uint256",
          "name": "",
          "type": "uint256"
        }
      ],
      "stateMutability": "nonpayable",
      "type": "function"
    },
    {
      "inputs": [
        {
          "internalType": "uint256",
          "name": "_dailyFeePercentage",
          "type": "uint256"
        }
      ],
      "name": "createPriceModel",
      "outputs": [
        {
          "internalType": "address",
          "name": "",
          "type": "address"
        }
      ],
      "stateMutability": "nonpayable",
      "type": "function"
    },
    {
      "inputs": [
        {
          "internalType": "address",
          "name": "_lp",
          "type": "address"
        },
        {
          "internalType": "uint256",
          "name": "_index",
          "type": "uint256"
        }
      ],
      "name": "getPool",
      "outputs": [
        {
          "components": [
            {
              "internalType": "address[]",
              "name": "acceptedTokens",
              "type": "address[]"
            },
            {
              "internalType": "uint256",
              "name": "totalLiquidity",
              "type": "uint256"
            },
            {
              "internalType": "contract PriceModel",
              "name": "priceModel",
              "type": "address"
            }
          ],
          "internalType": "struct InterestSwap.Pool",
          "name": "",
          "type": "tuple"
        }
      ],
      "stateMutability": "view",
      "type": "function"
    },
    {
      "inputs": [
        {
          "internalType": "address",
          "name": "_lp",
          "type": "address"
        }
      ],
      "name": "getUserTotalPools",
      "outputs": [
        {
          "internalType": "uint256",
          "name": "",
          "type": "uint256"
        }
      ],
      "stateMutability": "view",
      "type": "function"
    },
    {
      "inputs": [
        {
          "internalType": "address",
          "name": "",
          "type": "address"
        },
        {
          "internalType": "uint256",
          "name": "",
          "type": "uint256"
        },
        {
          "internalType": "address",
          "name": "",
          "type": "address"
        }
      ],
      "name": "isAssetSupported",
      "outputs": [
        {
          "internalType": "bool",
          "name": "",
          "type": "bool"
        }
      ],
      "stateMutability": "view",
      "type": "function"
    },
    {
      "inputs": [],
      "name": "liquidityToken",
      "outputs": [
        {
          "internalType": "contract IERC20",
          "name": "",
          "type": "address"
        }
      ],
      "stateMutability": "view",
      "type": "function"
    },
    {
      "inputs": [],
      "name": "priceFeed",
      "outputs": [
        {
          "internalType": "contract IPriceFeed",
          "name": "",
          "type": "address"
        }
      ],
      "stateMutability": "view",
      "type": "function"
    },
    {
      "inputs": [
        {
          "internalType": "uint256",
          "name": "",
          "type": "uint256"
        }
      ],
      "name": "priceModels",
      "outputs": [
        {
          "internalType": "address",
          "name": "",
          "type": "address"
        }
      ],
      "stateMutability": "view",
      "type": "function"
    },
    {
      "inputs": [
        {
          "internalType": "address",
          "name": "_asset",
          "type": "address"
        },
        {
          "internalType": "uint256",
          "name": "_amount",
          "type": "uint256"
        },
        {
          "internalType": "uint256",
          "name": "_daysTerm",
          "type": "uint256"
        },
        {
          "components": [
            {
              "internalType": "address",
              "name": "poolOwner",
              "type": "address"
            },
            {
              "internalType": "uint256",
              "name": "poolIndex",
              "type": "uint256"
            }
          ],
          "internalType": "struct InterestSwap.Route",
          "name": "route",
          "type": "tuple"
        }
      ],
      "name": "quote",
      "outputs": [
        {
          "internalType": "uint256",
          "name": "",
          "type": "uint256"
        },
        {
          "internalType": "uint256",
          "name": "",
          "type": "uint256"
        },
        {
          "internalType": "uint256",
          "name": "",
          "type": "uint256"
        }
      ],
      "stateMutability": "view",
      "type": "function"
    },
    {
      "inputs": [
        {
          "internalType": "address",
          "name": "_asset",
          "type": "address"
        },
        {
          "internalType": "uint256",
          "name": "_amount",
          "type": "uint256"
        },
        {
          "internalType": "uint256",
          "name": "_daysTerm",
          "type": "uint256"
        },
        {
          "components": [
            {
              "internalType": "address",
              "name": "poolOwner",
              "type": "address"
            },
            {
              "internalType": "uint256",
              "name": "poolIndex",
              "type": "uint256"
            }
          ],
          "internalType": "struct InterestSwap.Route",
          "name": "route",
          "type": "tuple"
        }
      ],
      "name": "swap",
      "outputs": [
        {
          "internalType": "uint256",
          "name": "",
          "type": "uint256"
        }
      ],
      "stateMutability": "nonpayable",
      "type": "function"
    }
  ],
  "transactionHash": "0x5f9d1c079f8eb3e765b87758d0493edb62c3fc89649d423c23d29c2e8b68c21d",
  "args": [
    "0xE406C07EcF5c9c0ff9Be423E77443b0D563c188b",
    "0x9e4A84089c6088b2a98f480ACcC5b640acA2a25C"
  ],
  "numDeployments": 1,
  "solcInputHash": "c659e4d0ad68cf4879980432746b9f4c",
  "bytecode": "0x60806040523480156200001157600080fd5b50604051620020883803806200208883398181016040528101906200003791906200012a565b816000806101000a81548173ffffffffffffffffffffffffffffffffffffffff021916908373ffffffffffffffffffffffffffffffffffffffff16021790555080600160006101000a81548173ffffffffffffffffffffffffffffffffffffffff021916908373ffffffffffffffffffffffffffffffffffffffff160217905550505062000171565b600080fd5b600073ffffffffffffffffffffffffffffffffffffffff82169050919050565b6000620000f282620000c5565b9050919050565b6200010481620000e5565b81146200011057600080fd5b50565b6000815190506200012481620000f9565b92915050565b60008060408385031215620001445762000143620000c0565b5b6000620001548582860162000113565b9250506020620001678582860162000113565b9150509250929050565b611f0780620001816000396000f3fe60806040523480156200001157600080fd5b5060043610620000ac5760003560e01c80635b5b9ea2116200006f5780635b5b9ea214620001ab5780636c61b61514620001e1578063741bef1a1462000219578063c3ed9227146200023b578063cd215e97146200027157620000ac565b80630658c48914620000b1578063387dd50014620000e757806343cd8f7e146200011d578063574b529b146200013f5780635b5a63001462000175575b600080fd5b620000cf6004803603810190620000c99190620011a6565b620002a7565b604051620000de919062001229565b60405180910390f35b620001056004803603810190620000ff919062001246565b6200047a565b60405162000114919062001229565b60405180910390f35b62000127620004c6565b604051620001369190620012e3565b60405180910390f35b6200015d600480360381019062000157919062001300565b620004ec565b6040516200016c919062001343565b60405180910390f35b6200019360048036038101906200018d919062001360565b6200052c565b604051620001a29190620013d9565b60405180910390f35b620001c96004803603810190620001c39190620013f6565b62000568565b604051620001d8919062001597565b60405180910390f35b620001ff6004803603810190620001f99190620011a6565b620006d7565b6040516200021093929190620015bb565b60405180910390f35b6200022362000a30565b6040516200023291906200161d565b60405180910390f35b62000259600480360381019062000253919062001300565b62000a54565b60405162000268919062001343565b60405180910390f35b6200028f60048036038101906200028991906200171a565b62000afe565b6040516200029e919062001229565b60405180910390f35b600080620002b886868686620006d7565b925050508573ffffffffffffffffffffffffffffffffffffffff166323b872dd3330886040518463ffffffff1660e01b8152600401620002fb9392919062001795565b6020604051808303816000875af11580156200031b573d6000803e3d6000fd5b505050506040513d601f19601f8201168201806040525081019062000341919062001803565b50600160009054906101000a900473ffffffffffffffffffffffffffffffffffffffff1673ffffffffffffffffffffffffffffffffffffffff1663a9059cbb33836040518363ffffffff1660e01b8152600401620003a192919062001835565b6020604051808303816000875af1158015620003c1573d6000803e3d6000fd5b505050506040513d601f19601f82011682018060405250810190620003e7919062001803565b508060026000856000015173ffffffffffffffffffffffffffffffffffffffff1673ffffffffffffffffffffffffffffffffffffffff16815260200190815260200160002084602001518154811062000445576200044462001862565b5b90600052602060002090600302016001016000828254620004679190620018c0565b9250508190555080915050949350505050565b6000600260008373ffffffffffffffffffffffffffffffffffffffff1673ffffffffffffffffffffffffffffffffffffffff168152602001908152602001600020805490509050919050565b600160009054906101000a900473ffffffffffffffffffffffffffffffffffffffff1681565b60048181548110620004fd57600080fd5b906000526020600020016000915054906101000a900473ffffffffffffffffffffffffffffffffffffffff1681565b6003602052826000526040600020602052816000526040600020602052806000526040600020600092509250509054906101000a900460ff1681565b6200057262000f0c565b600260008473ffffffffffffffffffffffffffffffffffffffff1673ffffffffffffffffffffffffffffffffffffffff1681526020019081526020016000208281548110620005c657620005c562001862565b5b9060005260206000209060030201604051806060016040529081600082018054806020026020016040519081016040528092919081815260200182805480156200066657602002820191906000526020600020905b8160009054906101000a900473ffffffffffffffffffffffffffffffffffffffff1673ffffffffffffffffffffffffffffffffffffffff16815260200190600101908083116200061b575b50505050508152602001600182015481526020016002820160009054906101000a900473ffffffffffffffffffffffffffffffffffffffff1673ffffffffffffffffffffffffffffffffffffffff1673ffffffffffffffffffffffffffffffffffffffff1681525050905092915050565b600080600060036000856000015173ffffffffffffffffffffffffffffffffffffffff1673ffffffffffffffffffffffffffffffffffffffff16815260200190815260200160002060008560200151815260200190815260200160002060008873ffffffffffffffffffffffffffffffffffffffff1673ffffffffffffffffffffffffffffffffffffffff16815260200190815260200160002060009054906101000a900460ff16620007c1576040517f08c379a0000000000000000000000000000000000000000000000000000000008152600401620007b8906200195c565b60405180910390fd5b60008060009054906101000a900473ffffffffffffffffffffffffffffffffffffffff1673ffffffffffffffffffffffffffffffffffffffff1663b3596f07896040518263ffffffff1660e01b81526004016200081f919062001343565b602060405180830381865afa1580156200083d573d6000803e3d6000fd5b505050506040513d601f19601f8201168201806040525081019062000863919062001995565b905060006200087c888362000df190919063ffffffff16565b9050600060026000886000015173ffffffffffffffffffffffffffffffffffffffff1673ffffffffffffffffffffffffffffffffffffffff168152602001908152602001600020876020015181548110620008dc57620008db62001862565b5b90600052602060002090600302019050806001015482111562000936576040517f08c379a00000000000000000000000000000000000000000000000000000000081526004016200092d9062001a17565b60405180910390fd5b60008160020160009054906101000a900473ffffffffffffffffffffffffffffffffffffffff1673ffffffffffffffffffffffffffffffffffffffff1663315f1a418b8b6040518363ffffffff1660e01b81526004016200099992919062001a39565b602060405180830381865afa158015620009b7573d6000803e3d6000fd5b505050506040513d601f19601f82011682018060405250810190620009dd919062001995565b90506000818b620009ef9190620018c0565b9050600062000a1586848e62000a069190620018c0565b62000df190919063ffffffff16565b90508282829850985098505050505050509450945094915050565b60008054906101000a900473ffffffffffffffffffffffffffffffffffffffff1681565b6000808260405162000a669062000f43565b62000a72919062001229565b604051809103906000f08015801562000a8f573d6000803e3d6000fd5b5090506004819080600181540180825580915050600190039060005260206000200160009091909190916101000a81548173ffffffffffffffffffffffffffffffffffffffff021916908373ffffffffffffffffffffffffffffffffffffffff16021790555080915050919050565b600080845190506000600260003373ffffffffffffffffffffffffffffffffffffffff1673ffffffffffffffffffffffffffffffffffffffff168152602001908152602001600020805490509050600260003373ffffffffffffffffffffffffffffffffffffffff1673ffffffffffffffffffffffffffffffffffffffff16815260200190815260200160002060405180606001604052808881526020018681526020018773ffffffffffffffffffffffffffffffffffffffff168152509080600181540180825580915050600190039060005260206000209060030201600090919091909150600082015181600001908051906020019062000c0392919062000f51565b506020820151816001015560408201518160020160006101000a81548173ffffffffffffffffffffffffffffffffffffffff021916908373ffffffffffffffffffffffffffffffffffffffff160217905550505060005b8281101562000d3c576001600360003373ffffffffffffffffffffffffffffffffffffffff1673ffffffffffffffffffffffffffffffffffffffff1681526020019081526020016000206000848152602001908152602001600020600089848151811062000ccd5762000ccc62001862565b5b602002602001015173ffffffffffffffffffffffffffffffffffffffff1673ffffffffffffffffffffffffffffffffffffffff16815260200190815260200160002060006101000a81548160ff021916908315150217905550808062000d339062001a66565b91505062000c5a565b50600160009054906101000a900473ffffffffffffffffffffffffffffffffffffffff1673ffffffffffffffffffffffffffffffffffffffff166323b872dd3330876040518463ffffffff1660e01b815260040162000d9e9392919062001795565b6020604051808303816000875af115801562000dbe573d6000803e3d6000fd5b505050506040513d601f19601f8201168201806040525081019062000de4919062001803565b5080925050509392505050565b600062000dff838362000e07565b905092915050565b60008060008019848609848602925082811083820303915050670de0b6b3a7640000811062000e6f57806040517fd31b340200000000000000000000000000000000000000000000000000000000815260040162000e66919062001229565b60405180910390fd5b600080670de0b6b3a764000086880991506706f05b59d3b1ffff821190506000830362000ec05780670de0b6b3a7640000858162000eb25762000eb162001ab3565b5b040194505050505062000f06565b807faccb18165bd6fe31ae1cf318dc5b51eee0e1ba569b88cd74c1773b91fac1066960016204000080600003040186851186030262040000858803041702019450505050505b92915050565b60405180606001604052806060815260200160008152602001600073ffffffffffffffffffffffffffffffffffffffff1681525090565b6103ef8062001ae383390190565b82805482825590600052602060002090810192821562000fcd579160200282015b8281111562000fcc5782518260006101000a81548173ffffffffffffffffffffffffffffffffffffffff021916908373ffffffffffffffffffffffffffffffffffffffff1602179055509160200191906001019062000f72565b5b50905062000fdc919062000fe0565b5090565b5b8082111562000ffb57600081600090555060010162000fe1565b5090565b6000604051905090565b600080fd5b600080fd5b600073ffffffffffffffffffffffffffffffffffffffff82169050919050565b6000620010408262001013565b9050919050565b620010528162001033565b81146200105e57600080fd5b50565b600081359050620010728162001047565b92915050565b6000819050919050565b6200108d8162001078565b81146200109957600080fd5b50565b600081359050620010ad8162001082565b92915050565b600080fd5b6000601f19601f8301169050919050565b7f4e487b7100000000000000000000000000000000000000000000000000000000600052604160045260246000fd5b6200110382620010b8565b810181811067ffffffffffffffff82111715620011255762001124620010c9565b5b80604052505050565b60006200113a62000fff565b9050620011488282620010f8565b919050565b600060408284031215620011665762001165620010b3565b5b6200117260406200112e565b90506000620011848482850162001061565b60008301525060206200119a848285016200109c565b60208301525092915050565b60008060008060a08587031215620011c357620011c262001009565b5b6000620011d38782880162001061565b9450506020620011e6878288016200109c565b9350506040620011f9878288016200109c565b92505060606200120c878288016200114d565b91505092959194509250565b620012238162001078565b82525050565b600060208201905062001240600083018462001218565b92915050565b6000602082840312156200125f576200125e62001009565b5b60006200126f8482850162001061565b91505092915050565b6000819050919050565b6000620012a36200129d620012978462001013565b62001278565b62001013565b9050919050565b6000620012b78262001282565b9050919050565b6000620012cb82620012aa565b9050919050565b620012dd81620012be565b82525050565b6000602082019050620012fa6000830184620012d2565b92915050565b60006020828403121562001319576200131862001009565b5b600062001329848285016200109c565b91505092915050565b6200133d8162001033565b82525050565b60006020820190506200135a600083018462001332565b92915050565b6000806000606084860312156200137c576200137b62001009565b5b60006200138c8682870162001061565b93505060206200139f868287016200109c565b9250506040620013b28682870162001061565b9150509250925092565b60008115159050919050565b620013d381620013bc565b82525050565b6000602082019050620013f06000830184620013c8565b92915050565b6000806040838503121562001410576200140f62001009565b5b6000620014208582860162001061565b925050602062001433858286016200109c565b9150509250929050565b600081519050919050565b600082825260208201905092915050565b6000819050602082019050919050565b620014748162001033565b82525050565b600062001488838362001469565b60208301905092915050565b6000602082019050919050565b6000620014ae826200143d565b620014ba818562001448565b9350620014c78362001459565b8060005b83811015620014fe578151620014e288826200147a565b9750620014ef8362001494565b925050600181019050620014cb565b5085935050505092915050565b620015168162001078565b82525050565b60006200152982620012aa565b9050919050565b6200153b816200151c565b82525050565b60006060830160008301518482036000860152620015608282620014a1565b91505060208301516200157760208601826200150b565b5060408301516200158c604086018262001530565b508091505092915050565b60006020820190508181036000830152620015b3818462001541565b905092915050565b6000606082019050620015d2600083018662001218565b620015e1602083018562001218565b620015f0604083018462001218565b949350505050565b60006200160582620012aa565b9050919050565b6200161781620015f8565b82525050565b60006020820190506200163460008301846200160c565b92915050565b600080fd5b600067ffffffffffffffff8211156200165d576200165c620010c9565b5b602082029050602081019050919050565b600080fd5b60006200168a62001684846200163f565b6200112e565b90508083825260208201905060208402830185811115620016b057620016af6200166e565b5b835b81811015620016dd5780620016c8888262001061565b845260208401935050602081019050620016b2565b5050509392505050565b600082601f830112620016ff57620016fe6200163a565b5b81356200171184826020860162001673565b91505092915050565b60008060006060848603121562001736576200173562001009565b5b600084013567ffffffffffffffff8111156200175757620017566200100e565b5b6200176586828701620016e7565b9350506020620017788682870162001061565b92505060406200178b868287016200109c565b9150509250925092565b6000606082019050620017ac600083018662001332565b620017bb602083018562001332565b620017ca604083018462001218565b949350505050565b620017dd81620013bc565b8114620017e957600080fd5b50565b600081519050620017fd81620017d2565b92915050565b6000602082840312156200181c576200181b62001009565b5b60006200182c84828501620017ec565b91505092915050565b60006040820190506200184c600083018562001332565b6200185b602083018462001218565b9392505050565b7f4e487b7100000000000000000000000000000000000000000000000000000000600052603260045260246000fd5b7f4e487b7100000000000000000000000000000000000000000000000000000000600052601160045260246000fd5b6000620018cd8262001078565b9150620018da8362001078565b9250828203905081811115620018f557620018f462001891565b5b92915050565b600082825260208201905092915050565b7f556e737570706f72746564206173736574000000000000000000000000000000600082015250565b600062001944601183620018fb565b915062001951826200190c565b602082019050919050565b60006020820190508181036000830152620019778162001935565b9050919050565b6000815190506200198f8162001082565b92915050565b600060208284031215620019ae57620019ad62001009565b5b6000620019be848285016200197e565b91505092915050565b7f4e6f7420656e6f756768206c697175696469747920696e2074686520706f6f6c600082015250565b6000620019ff602083620018fb565b915062001a0c82620019c7565b602082019050919050565b6000602082019050818103600083015262001a3281620019f0565b9050919050565b600060408201905062001a50600083018562001218565b62001a5f602083018462001218565b9392505050565b600062001a738262001078565b91507fffffffffffffffffffffffffffffffffffffffffffffffffffffffffffffffff820362001aa85762001aa762001891565b5b600182019050919050565b7f4e487b7100000000000000000000000000000000000000000000000000000000600052601260045260246000fdfe608060405234801561001057600080fd5b506040516103ef3803806103ef8339818101604052810190610032919061007a565b80600081905550506100a7565b600080fd5b6000819050919050565b61005781610044565b811461006257600080fd5b50565b6000815190506100748161004e565b92915050565b6000602082840312156100905761008f61003f565b5b600061009e84828501610065565b91505092915050565b610339806100b66000396000f3fe608060405234801561001057600080fd5b50600436106100415760003560e01c806329fe619914610046578063315f1a41146100645780636683d37d14610094575b600080fd5b61004e6100b0565b60405161005b919061021b565b60405180910390f35b61007e60048036038101906100799190610267565b6100b6565b60405161008b919061021b565b60405180910390f35b6100ae60048036038101906100a991906102a7565b6100e7565b005b60005481565b60006100df826100d1600054866100f190919063ffffffff16565b6100f190919063ffffffff16565b905092915050565b8060008190555050565b60006100fd8383610105565b905092915050565b60008060008019848609848602925082811083820303915050670de0b6b3a7640000811061016a57806040517fd31b3402000000000000000000000000000000000000000000000000000000008152600401610161919061021b565b60405180910390fd5b600080670de0b6b3a764000086880991506706f05b59d3b1ffff82119050600083036101b65780670de0b6b3a764000085816101a9576101a86102d4565b5b04019450505050506101fc565b807faccb18165bd6fe31ae1cf318dc5b51eee0e1ba569b88cd74c1773b91fac1066960016204000080600003040186851186030262040000858803041702019450505050505b92915050565b6000819050919050565b61021581610202565b82525050565b6000602082019050610230600083018461020c565b92915050565b600080fd5b61024481610202565b811461024f57600080fd5b50565b6000813590506102618161023b565b92915050565b6000806040838503121561027e5761027d610236565b5b600061028c85828601610252565b925050602061029d85828601610252565b9150509250929050565b6000602082840312156102bd576102bc610236565b5b60006102cb84828501610252565b91505092915050565b7f4e487b7100000000000000000000000000000000000000000000000000000000600052601260045260246000fdfea2646970667358221220776930fcde403e4ac8f6484b30a5fcf07d73c0a336d7ad206fbf019d635170e164736f6c63430008110033a264697066735822122077e9a6361df0222432de5df9e8bcaae3ed096a0df201136c93fc0d9d270cf75864736f6c63430008110033",
  "devdoc": {
    "kind": "dev",
    "methods": {},
    "version": 1
  },
  "userdoc": {
    "errors": {
      "PRBMath__MulDivFixedPointOverflow(uint256)": [
        {
          "notice": "Emitted when the result overflows uint256."
        }
      ]
    },
    "kind": "user",
    "methods": {},
    "version": 1
  },
  "storageLayout": {
    "storage": [
      {
        "astId": 294,
        "contract": "src/InterestSwap.sol:InterestSwap",
        "label": "priceFeed",
        "offset": 0,
        "slot": "0",
        "type": "t_contract(IPriceFeed)4063"
      },
      {
        "astId": 297,
        "contract": "src/InterestSwap.sol:InterestSwap",
        "label": "liquidityToken",
        "offset": 0,
        "slot": "1",
        "type": "t_contract(IERC20)4044"
      },
      {
        "astId": 317,
        "contract": "src/InterestSwap.sol:InterestSwap",
        "label": "pools",
        "offset": 0,
        "slot": "2",
        "type": "t_mapping(t_address,t_array(t_struct(Pool)306_storage)dyn_storage)"
      },
      {
        "astId": 325,
        "contract": "src/InterestSwap.sol:InterestSwap",
        "label": "isAssetSupported",
        "offset": 0,
        "slot": "3",
        "type": "t_mapping(t_address,t_mapping(t_uint256,t_mapping(t_address,t_bool)))"
      },
      {
        "astId": 328,
        "contract": "src/InterestSwap.sol:InterestSwap",
        "label": "priceModels",
        "offset": 0,
        "slot": "4",
        "type": "t_array(t_address)dyn_storage"
      }
    ],
    "types": {
      "t_address": {
        "encoding": "inplace",
        "label": "address",
        "numberOfBytes": "20"
      },
      "t_array(t_address)dyn_storage": {
        "base": "t_address",
        "encoding": "dynamic_array",
        "label": "address[]",
        "numberOfBytes": "32"
      },
      "t_array(t_struct(Pool)306_storage)dyn_storage": {
        "base": "t_struct(Pool)306_storage",
        "encoding": "dynamic_array",
        "label": "struct InterestSwap.Pool[]",
        "numberOfBytes": "32"
      },
      "t_bool": {
        "encoding": "inplace",
        "label": "bool",
        "numberOfBytes": "1"
      },
      "t_contract(IERC20)4044": {
        "encoding": "inplace",
        "label": "contract IERC20",
        "numberOfBytes": "20"
      },
      "t_contract(IPriceFeed)4063": {
        "encoding": "inplace",
        "label": "contract IPriceFeed",
        "numberOfBytes": "20"
      },
      "t_contract(PriceModel)921": {
        "encoding": "inplace",
        "label": "contract PriceModel",
        "numberOfBytes": "20"
      },
      "t_mapping(t_address,t_array(t_struct(Pool)306_storage)dyn_storage)": {
        "encoding": "mapping",
        "key": "t_address",
        "label": "mapping(address => struct InterestSwap.Pool[])",
        "numberOfBytes": "32",
        "value": "t_array(t_struct(Pool)306_storage)dyn_storage"
      },
      "t_mapping(t_address,t_bool)": {
        "encoding": "mapping",
        "key": "t_address",
        "label": "mapping(address => bool)",
        "numberOfBytes": "32",
        "value": "t_bool"
      },
      "t_mapping(t_address,t_mapping(t_uint256,t_mapping(t_address,t_bool)))": {
        "encoding": "mapping",
        "key": "t_address",
        "label": "mapping(address => mapping(uint256 => mapping(address => bool)))",
        "numberOfBytes": "32",
        "value": "t_mapping(t_uint256,t_mapping(t_address,t_bool))"
      },
      "t_mapping(t_uint256,t_mapping(t_address,t_bool))": {
        "encoding": "mapping",
        "key": "t_uint256",
        "label": "mapping(uint256 => mapping(address => bool))",
        "numberOfBytes": "32",
        "value": "t_mapping(t_address,t_bool)"
      },
      "t_struct(Pool)306_storage": {
        "encoding": "inplace",
        "label": "struct InterestSwap.Pool",
        "members": [
          {
            "astId": 300,
            "contract": "src/InterestSwap.sol:InterestSwap",
            "label": "acceptedTokens",
            "offset": 0,
            "slot": "0",
            "type": "t_array(t_address)dyn_storage"
          },
          {
            "astId": 302,
            "contract": "src/InterestSwap.sol:InterestSwap",
            "label": "totalLiquidity",
            "offset": 0,
            "slot": "1",
            "type": "t_uint256"
          },
          {
            "astId": 305,
            "contract": "src/InterestSwap.sol:InterestSwap",
            "label": "priceModel",
            "offset": 0,
            "slot": "2",
            "type": "t_contract(PriceModel)921"
          }
        ],
        "numberOfBytes": "96"
      },
      "t_uint256": {
        "encoding": "inplace",
        "label": "uint256",
        "numberOfBytes": "32"
      }
    }
  }
}