{
  "_format": "hh-sol-artifact-1",
  "contractName": "InterestSwapPeriphery",
  "sourceName": "src/InterestSwapPeriphery.sol",
  "abi": [
    {
      "inputs": [
        {
          "internalType": "address",
          "name": "_interestSwap",
          "type": "address"
        }
      ],
      "stateMutability": "nonpayable",
      "type": "constructor"
    },
    {
      "inputs": [
        {
          "internalType": "address",
          "name": "_lp",
          "type": "address"
        },
        {
          "internalType": "uint256",
          "name": "_index",
          "type": "uint256"
        }
      ],
      "name": "getPool",
      "outputs": [
        {
          "components": [
            {
              "internalType": "address",
              "name": "priceModel",
              "type": "address"
            },
            {
              "components": [
                {
                  "internalType": "uint8",
                  "name": "decimals",
                  "type": "uint8"
                },
                {
                  "internalType": "string",
                  "name": "name",
                  "type": "string"
                },
                {
                  "internalType": "string",
                  "name": "symbol",
                  "type": "string"
                },
                {
                  "internalType": "address",
                  "name": "tokenAddress",
                  "type": "address"
                }
              ],
              "internalType": "struct InterestSwapPeriphery.TokenInfo",
              "name": "liquidityToken",
              "type": "tuple"
            },
            {
              "components": [
                {
                  "internalType": "uint8",
                  "name": "decimals",
                  "type": "uint8"
                },
                {
                  "internalType": "string",
                  "name": "name",
                  "type": "string"
                },
                {
                  "internalType": "string",
                  "name": "symbol",
                  "type": "string"
                },
                {
                  "internalType": "address",
                  "name": "tokenAddress",
                  "type": "address"
                }
              ],
              "internalType": "struct InterestSwapPeriphery.TokenInfo[]",
              "name": "acceptedTokens",
              "type": "tuple[]"
            },
            {
              "internalType": "uint256",
              "name": "totalLiquidity",
              "type": "uint256"
            }
          ],
          "internalType": "struct InterestSwapPeriphery.PoolInfo",
          "name": "",
          "type": "tuple"
        }
      ],
      "stateMutability": "view",
      "type": "function"
    },
    {
      "inputs": [
        {
          "internalType": "address",
          "name": "_lp",
          "type": "address"
        }
      ],
      "name": "getPools",
      "outputs": [
        {
          "components": [
            {
              "internalType": "address",
              "name": "priceModel",
              "type": "address"
            },
            {
              "components": [
                {
                  "internalType": "uint8",
                  "name": "decimals",
                  "type": "uint8"
                },
                {
                  "internalType": "string",
                  "name": "name",
                  "type": "string"
                },
                {
                  "internalType": "string",
                  "name": "symbol",
                  "type": "string"
                },
                {
                  "internalType": "address",
                  "name": "tokenAddress",
                  "type": "address"
                }
              ],
              "internalType": "struct InterestSwapPeriphery.TokenInfo",
              "name": "liquidityToken",
              "type": "tuple"
            },
            {
              "components": [
                {
                  "internalType": "uint8",
                  "name": "decimals",
                  "type": "uint8"
                },
                {
                  "internalType": "string",
                  "name": "name",
                  "type": "string"
                },
                {
                  "internalType": "string",
                  "name": "symbol",
                  "type": "string"
                },
                {
                  "internalType": "address",
                  "name": "tokenAddress",
                  "type": "address"
                }
              ],
              "internalType": "struct InterestSwapPeriphery.TokenInfo[]",
              "name": "acceptedTokens",
              "type": "tuple[]"
            },
            {
              "internalType": "uint256",
              "name": "totalLiquidity",
              "type": "uint256"
            }
          ],
          "internalType": "struct InterestSwapPeriphery.PoolInfo[]",
          "name": "",
          "type": "tuple[]"
        }
      ],
      "stateMutability": "view",
      "type": "function"
    },
    {
      "inputs": [],
      "name": "interestSwap",
      "outputs": [
        {
          "internalType": "contract InterestSwap",
          "name": "",
          "type": "address"
        }
      ],
      "stateMutability": "view",
      "type": "function"
    }
  ],
  "bytecode": "0x60806040523480156200001157600080fd5b50604051620012e6380380620012e68339818101604052810190620000379190620000e8565b806000806101000a81548173ffffffffffffffffffffffffffffffffffffffff021916908373ffffffffffffffffffffffffffffffffffffffff160217905550506200011a565b600080fd5b600073ffffffffffffffffffffffffffffffffffffffff82169050919050565b6000620000b08262000083565b9050919050565b620000c281620000a3565b8114620000ce57600080fd5b50565b600081519050620000e281620000b7565b92915050565b6000602082840312156200010157620001006200007e565b5b60006200011184828501620000d1565b91505092915050565b6111bc806200012a6000396000f3fe608060405234801561001057600080fd5b50600436106100415760003560e01c80635b5b9ea2146100465780635c39f467146100765780635ff9d06f146100a6575b600080fd5b610060600480360381019061005b9190610764565b6100c4565b60405161006d9190610a04565b60405180910390f35b610090600480360381019061008b9190610a26565b61025c565b60405161009d9190610b7f565b60405180910390f35b6100ae6103a6565b6040516100bb9190610c00565b60405180910390f35b6100cc610637565b60008060009054906101000a900473ffffffffffffffffffffffffffffffffffffffff1673ffffffffffffffffffffffffffffffffffffffff16635b5b9ea285856040518363ffffffff1660e01b815260040161012a929190610c39565b600060405180830381865afa158015610147573d6000803e3d6000fd5b505050506040513d6000823e3d601f19601f820116820180604052508101906101709190610e9c565b90506040518060800160405280826040015173ffffffffffffffffffffffffffffffffffffffff16815260200161023460008054906101000a900473ffffffffffffffffffffffffffffffffffffffff1673ffffffffffffffffffffffffffffffffffffffff166343cd8f7e6040518163ffffffff1660e01b8152600401602060405180830381865afa15801561020b573d6000803e3d6000fd5b505050506040513d601f19601f8201168201806040525081019061022f9190610f23565b6103ca565b8152602001610246836000015161056d565b8152602001826020015181525091505092915050565b606060008060009054906101000a900473ffffffffffffffffffffffffffffffffffffffff1673ffffffffffffffffffffffffffffffffffffffff1663387dd500846040518263ffffffff1660e01b81526004016102ba9190610f50565b602060405180830381865afa1580156102d7573d6000803e3d6000fd5b505050506040513d601f19601f820116820180604052508101906102fb9190610f6b565b905060008167ffffffffffffffff81111561031957610318610c67565b5b60405190808252806020026020018201604052801561035257816020015b61033f610637565b8152602001906001900390816103375790505b50905060005b8281101561039b5761036a85826100c4565b82828151811061037d5761037c610f98565b5b6020026020010181905250808061039390610ff6565b915050610358565b508092505050919050565b60008054906101000a900473ffffffffffffffffffffffffffffffffffffffff1681565b6103d261067b565b600082905060405180608001604052808273ffffffffffffffffffffffffffffffffffffffff1663313ce5676040518163ffffffff1660e01b8152600401602060405180830381865afa15801561042d573d6000803e3d6000fd5b505050506040513d601f19601f82011682018060405250810190610451919061106a565b60ff1681526020018273ffffffffffffffffffffffffffffffffffffffff166306fdde036040518163ffffffff1660e01b8152600401600060405180830381865afa1580156104a4573d6000803e3d6000fd5b505050506040513d6000823e3d601f19601f820116820180604052508101906104cd919061113d565b81526020018273ffffffffffffffffffffffffffffffffffffffff166395d89b416040518163ffffffff1660e01b8152600401600060405180830381865afa15801561051d573d6000803e3d6000fd5b505050506040513d6000823e3d601f19601f82011682018060405250810190610546919061113d565b81526020018473ffffffffffffffffffffffffffffffffffffffff16815250915050919050565b606060008251905060008167ffffffffffffffff81111561059157610590610c67565b5b6040519080825280602002602001820160405280156105ca57816020015b6105b761067b565b8152602001906001900390816105af5790505b50905060005b8281101561062c576105fb8582815181106105ee576105ed610f98565b5b60200260200101516103ca565b82828151811061060e5761060d610f98565b5b6020026020010181905250808061062490610ff6565b9150506105d0565b508092505050919050565b6040518060800160405280600073ffffffffffffffffffffffffffffffffffffffff16815260200161066761067b565b815260200160608152602001600081525090565b6040518060800160405280600060ff1681526020016060815260200160608152602001600073ffffffffffffffffffffffffffffffffffffffff1681525090565b6000604051905090565b600080fd5b600080fd5b600073ffffffffffffffffffffffffffffffffffffffff82169050919050565b60006106fb826106d0565b9050919050565b61070b816106f0565b811461071657600080fd5b50565b60008135905061072881610702565b92915050565b6000819050919050565b6107418161072e565b811461074c57600080fd5b50565b60008135905061075e81610738565b92915050565b6000806040838503121561077b5761077a6106c6565b5b600061078985828601610719565b925050602061079a8582860161074f565b9150509250929050565b6107ad816106f0565b82525050565b600060ff82169050919050565b6107c9816107b3565b82525050565b600081519050919050565b600082825260208201905092915050565b60005b838110156108095780820151818401526020810190506107ee565b60008484015250505050565b6000601f19601f8301169050919050565b6000610831826107cf565b61083b81856107da565b935061084b8185602086016107eb565b61085481610815565b840191505092915050565b600060808301600083015161087760008601826107c0565b506020830151848203602086015261088f8282610826565b915050604083015184820360408601526108a98282610826565b91505060608301516108be60608601826107a4565b508091505092915050565b600081519050919050565b600082825260208201905092915050565b6000819050602082019050919050565b6000610901838361085f565b905092915050565b6000602082019050919050565b6000610921826108c9565b61092b81856108d4565b93508360208202850161093d856108e5565b8060005b85811015610979578484038952815161095a85826108f5565b945061096583610909565b925060208a01995050600181019050610941565b50829750879550505050505092915050565b6109948161072e565b82525050565b60006080830160008301516109b260008601826107a4565b50602083015184820360208601526109ca828261085f565b915050604083015184820360408601526109e48282610916565b91505060608301516109f9606086018261098b565b508091505092915050565b60006020820190508181036000830152610a1e818461099a565b905092915050565b600060208284031215610a3c57610a3b6106c6565b5b6000610a4a84828501610719565b91505092915050565b600081519050919050565b600082825260208201905092915050565b6000819050602082019050919050565b6000608083016000830151610a9760008601826107a4565b5060208301518482036020860152610aaf828261085f565b91505060408301518482036040860152610ac98282610916565b9150506060830151610ade606086018261098b565b508091505092915050565b6000610af58383610a7f565b905092915050565b6000602082019050919050565b6000610b1582610a53565b610b1f8185610a5e565b935083602082028501610b3185610a6f565b8060005b85811015610b6d5784840389528151610b4e8582610ae9565b9450610b5983610afd565b925060208a01995050600181019050610b35565b50829750879550505050505092915050565b60006020820190508181036000830152610b998184610b0a565b905092915050565b6000819050919050565b6000610bc6610bc1610bbc846106d0565b610ba1565b6106d0565b9050919050565b6000610bd882610bab565b9050919050565b6000610bea82610bcd565b9050919050565b610bfa81610bdf565b82525050565b6000602082019050610c156000830184610bf1565b92915050565b610c24816106f0565b82525050565b610c338161072e565b82525050565b6000604082019050610c4e6000830185610c1b565b610c5b6020830184610c2a565b9392505050565b600080fd5b7f4e487b7100000000000000000000000000000000000000000000000000000000600052604160045260246000fd5b610c9f82610815565b810181811067ffffffffffffffff82111715610cbe57610cbd610c67565b5b80604052505050565b6000610cd16106bc565b9050610cdd8282610c96565b919050565b600080fd5b600080fd5b600067ffffffffffffffff821115610d0757610d06610c67565b5b602082029050602081019050919050565b600080fd5b600081519050610d2c81610702565b92915050565b6000610d45610d4084610cec565b610cc7565b90508083825260208201905060208402830185811115610d6857610d67610d18565b5b835b81811015610d915780610d7d8882610d1d565b845260208401935050602081019050610d6a565b5050509392505050565b600082601f830112610db057610daf610ce7565b5b8151610dc0848260208601610d32565b91505092915050565b600081519050610dd881610738565b92915050565b6000610de9826106f0565b9050919050565b610df981610dde565b8114610e0457600080fd5b50565b600081519050610e1681610df0565b92915050565b600060608284031215610e3257610e31610c62565b5b610e3c6060610cc7565b9050600082015167ffffffffffffffff811115610e5c57610e5b610ce2565b5b610e6884828501610d9b565b6000830152506020610e7c84828501610dc9565b6020830152506040610e9084828501610e07565b60408301525092915050565b600060208284031215610eb257610eb16106c6565b5b600082015167ffffffffffffffff811115610ed057610ecf6106cb565b5b610edc84828501610e1c565b91505092915050565b6000610ef0826106f0565b9050919050565b610f0081610ee5565b8114610f0b57600080fd5b50565b600081519050610f1d81610ef7565b92915050565b600060208284031215610f3957610f386106c6565b5b6000610f4784828501610f0e565b91505092915050565b6000602082019050610f656000830184610c1b565b92915050565b600060208284031215610f8157610f806106c6565b5b6000610f8f84828501610dc9565b91505092915050565b7f4e487b7100000000000000000000000000000000000000000000000000000000600052603260045260246000fd5b7f4e487b7100000000000000000000000000000000000000000000000000000000600052601160045260246000fd5b60006110018261072e565b91507fffffffffffffffffffffffffffffffffffffffffffffffffffffffffffffffff820361103357611032610fc7565b5b600182019050919050565b611047816107b3565b811461105257600080fd5b50565b6000815190506110648161103e565b92915050565b6000602082840312156110805761107f6106c6565b5b600061108e84828501611055565b91505092915050565b600080fd5b600067ffffffffffffffff8211156110b7576110b6610c67565b5b6110c082610815565b9050602081019050919050565b60006110e06110db8461109c565b610cc7565b9050828152602081018484840111156110fc576110fb611097565b5b6111078482856107eb565b509392505050565b600082601f83011261112457611123610ce7565b5b81516111348482602086016110cd565b91505092915050565b600060208284031215611153576111526106c6565b5b600082015167ffffffffffffffff811115611171576111706106cb565b5b61117d8482850161110f565b9150509291505056fea2646970667358221220169ab307ac2225b820a220feb35cfd07265953a946e0b98db3579932398adbec64736f6c63430008110033",
  "linkReferences": {},
  "deployedLinkReferences": {}
}