{"src/InterestSwap.sol":{"InterestSwap":{"abi":[{"inputs":[{"internalType":"address","name":"_priceFeed","type":"address"},{"internalType":"address","name":"_liquidityToken","type":"address"}],"stateMutability":"nonpayable","type":"constructor"},{"inputs":[{"internalType":"uint256","name":"prod1","type":"uint256"}],"name":"PRBMath__MulDivFixedPointOverflow","type":"error"},{"anonymous":false,"inputs":[{"indexed":true,"internalType":"address","name":"owner","type":"address"},{"indexed":false,"internalType":"address[]","name":"acceptedTokens","type":"address[]"},{"indexed":false,"internalType":"contract PriceModel","name":"priceModel","type":"address"},{"indexed":false,"internalType":"uint256","name":"totalLiquidity","type":"uint256"}],"name":"PoolCreated","type":"event"},{"inputs":[{"internalType":"address[]","name":"_acceptedTokens","type":"address[]"},{"internalType":"address","name":"_priceModel","type":"address"},{"internalType":"uint256","name":"_initialLiquidity","type":"uint256"}],"name":"createPool","outputs":[{"internalType":"uint256","name":"","type":"uint256"}],"stateMutability":"nonpayable","type":"function"},{"inputs":[{"internalType":"uint256","name":"_dailyFeePercentage","type":"uint256"}],"name":"createPriceModel","outputs":[{"internalType":"address","name":"","type":"address"}],"stateMutability":"nonpayable","type":"function"},{"inputs":[{"internalType":"address","name":"_lp","type":"address"},{"internalType":"uint256","name":"_index","type":"uint256"}],"name":"getPool","outputs":[{"components":[{"internalType":"address[]","name":"acceptedTokens","type":"address[]"},{"internalType":"uint256","name":"totalLiquidity","type":"uint256"},{"internalType":"contract PriceModel","name":"priceModel","type":"address"}],"internalType":"struct InterestSwap.Pool","name":"","type":"tuple"}],"stateMutability":"view","type":"function"},{"inputs":[{"internalType":"address","name":"_lp","type":"address"}],"name":"getUserTotalPools","outputs":[{"internalType":"uint256","name":"","type":"uint256"}],"stateMutability":"view","type":"function"},{"inputs":[{"internalType":"address","name":"","type":"address"},{"internalType":"uint256","name":"","type":"uint256"},{"internalType":"address","name":"","type":"address"}],"name":"isAssetSupported","outputs":[{"internalType":"bool","name":"","type":"bool"}],"stateMutability":"view","type":"function"},{"inputs":[],"name":"liquidityToken","outputs":[{"internalType":"contract IERC20","name":"","type":"address"}],"stateMutability":"view","type":"function"},{"inputs":[],"name":"priceFeed","outputs":[{"internalType":"contract IPriceFeed","name":"","type":"address"}],"stateMutability":"view","type":"function"},{"inputs":[{"internalType":"uint256","name":"","type":"uint256"}],"name":"priceModels","outputs":[{"internalType":"address","name":"","type":"address"}],"stateMutability":"view","type":"function"},{"inputs":[{"internalType":"address","name":"_asset","type":"address"},{"internalType":"uint256","name":"_amount","type":"uint256"},{"internalType":"uint256","name":"_daysTerm","type":"uint256"},{"components":[{"internalType":"address","name":"poolOwner","type":"address"},{"internalType":"uint256","name":"poolIndex","type":"uint256"}],"internalType":"struct InterestSwap.Route","name":"route","type":"tuple"}],"name":"quote","outputs":[{"internalType":"uint256","name":"","type":"uint256"},{"internalType":"uint256","name":"","type":"uint256"},{"internalType":"uint256","name":"","type":"uint256"}],"stateMutability":"view","type":"function"},{"inputs":[{"internalType":"address","name":"_asset","type":"address"},{"internalType":"uint256","name":"_amount","type":"uint256"},{"internalType":"uint256","name":"_daysTerm","type":"uint256"},{"components":[{"internalType":"address","name":"poolOwner","type":"address"},{"internalType":"uint256","name":"poolIndex","type":"uint256"}],"internalType":"struct InterestSwap.Route","name":"route","type":"tuple"}],"name":"swap","outputs":[{"internalType":"uint256","name":"","type":"uint256"}],"stateMutability":"nonpayable","type":"function"}],"devdoc":{"kind":"dev","methods":{},"version":1},"evm":{"bytecode":{"linkReferences":{},"object":"60806040523480156200001157600080fd5b50604051620020883803806200208883398181016040528101906200003791906200012a565b816000806101000a81548173ffffffffffffffffffffffffffffffffffffffff021916908373ffffffffffffffffffffffffffffffffffffffff16021790555080600160006101000a81548173ffffffffffffffffffffffffffffffffffffffff021916908373ffffffffffffffffffffffffffffffffffffffff160217905550505062000171565b600080fd5b600073ffffffffffffffffffffffffffffffffffffffff82169050919050565b6000620000f282620000c5565b9050919050565b6200010481620000e5565b81146200011057600080fd5b50565b6000815190506200012481620000f9565b92915050565b60008060408385031215620001445762000143620000c0565b5b6000620001548582860162000113565b9250506020620001678582860162000113565b9150509250929050565b611f0780620001816000396000f3fe60806040523480156200001157600080fd5b5060043610620000ac5760003560e01c80635b5b9ea2116200006f5780635b5b9ea214620001ab5780636c61b61514620001e1578063741bef1a1462000219578063c3ed9227146200023b578063cd215e97146200027157620000ac565b80630658c48914620000b1578063387dd50014620000e757806343cd8f7e146200011d578063574b529b146200013f5780635b5a63001462000175575b600080fd5b620000cf6004803603810190620000c99190620011a6565b620002a7565b604051620000de919062001229565b60405180910390f35b620001056004803603810190620000ff919062001246565b6200047a565b60405162000114919062001229565b60405180910390f35b62000127620004c6565b604051620001369190620012e3565b60405180910390f35b6200015d600480360381019062000157919062001300565b620004ec565b6040516200016c919062001343565b60405180910390f35b6200019360048036038101906200018d919062001360565b6200052c565b604051620001a29190620013d9565b60405180910390f35b620001c96004803603810190620001c39190620013f6565b62000568565b604051620001d8919062001597565b60405180910390f35b620001ff6004803603810190620001f99190620011a6565b620006d7565b6040516200021093929190620015bb565b60405180910390f35b6200022362000a30565b6040516200023291906200161d565b60405180910390f35b62000259600480360381019062000253919062001300565b62000a54565b60405162000268919062001343565b60405180910390f35b6200028f60048036038101906200028991906200171a565b62000afe565b6040516200029e919062001229565b60405180910390f35b600080620002b886868686620006d7565b925050508573ffffffffffffffffffffffffffffffffffffffff166323b872dd3330886040518463ffffffff1660e01b8152600401620002fb9392919062001795565b6020604051808303816000875af11580156200031b573d6000803e3d6000fd5b505050506040513d601f19601f8201168201806040525081019062000341919062001803565b50600160009054906101000a900473ffffffffffffffffffffffffffffffffffffffff1673ffffffffffffffffffffffffffffffffffffffff1663a9059cbb33836040518363ffffffff1660e01b8152600401620003a192919062001835565b6020604051808303816000875af1158015620003c1573d6000803e3d6000fd5b505050506040513d601f19601f82011682018060405250810190620003e7919062001803565b508060026000856000015173ffffffffffffffffffffffffffffffffffffffff1673ffffffffffffffffffffffffffffffffffffffff16815260200190815260200160002084602001518154811062000445576200044462001862565b5b90600052602060002090600302016001016000828254620004679190620018c0565b9250508190555080915050949350505050565b6000600260008373ffffffffffffffffffffffffffffffffffffffff1673ffffffffffffffffffffffffffffffffffffffff168152602001908152602001600020805490509050919050565b600160009054906101000a900473ffffffffffffffffffffffffffffffffffffffff1681565b60048181548110620004fd57600080fd5b906000526020600020016000915054906101000a900473ffffffffffffffffffffffffffffffffffffffff1681565b6003602052826000526040600020602052816000526040600020602052806000526040600020600092509250509054906101000a900460ff1681565b6200057262000f0c565b600260008473ffffffffffffffffffffffffffffffffffffffff1673ffffffffffffffffffffffffffffffffffffffff1681526020019081526020016000208281548110620005c657620005c562001862565b5b9060005260206000209060030201604051806060016040529081600082018054806020026020016040519081016040528092919081815260200182805480156200066657602002820191906000526020600020905b8160009054906101000a900473ffffffffffffffffffffffffffffffffffffffff1673ffffffffffffffffffffffffffffffffffffffff16815260200190600101908083116200061b575b50505050508152602001600182015481526020016002820160009054906101000a900473ffffffffffffffffffffffffffffffffffffffff1673ffffffffffffffffffffffffffffffffffffffff1673ffffffffffffffffffffffffffffffffffffffff1681525050905092915050565b600080600060036000856000015173ffffffffffffffffffffffffffffffffffffffff1673ffffffffffffffffffffffffffffffffffffffff16815260200190815260200160002060008560200151815260200190815260200160002060008873ffffffffffffffffffffffffffffffffffffffff1673ffffffffffffffffffffffffffffffffffffffff16815260200190815260200160002060009054906101000a900460ff16620007c1576040517f08c379a0000000000000000000000000000000000000000000000000000000008152600401620007b8906200195c565b60405180910390fd5b60008060009054906101000a900473ffffffffffffffffffffffffffffffffffffffff1673ffffffffffffffffffffffffffffffffffffffff1663b3596f07896040518263ffffffff1660e01b81526004016200081f919062001343565b602060405180830381865afa1580156200083d573d6000803e3d6000fd5b505050506040513d601f19601f8201168201806040525081019062000863919062001995565b905060006200087c888362000df190919063ffffffff16565b9050600060026000886000015173ffffffffffffffffffffffffffffffffffffffff1673ffffffffffffffffffffffffffffffffffffffff168152602001908152602001600020876020015181548110620008dc57620008db62001862565b5b90600052602060002090600302019050806001015482111562000936576040517f08c379a00000000000000000000000000000000000000000000000000000000081526004016200092d9062001a17565b60405180910390fd5b60008160020160009054906101000a900473ffffffffffffffffffffffffffffffffffffffff1673ffffffffffffffffffffffffffffffffffffffff1663315f1a418b8b6040518363ffffffff1660e01b81526004016200099992919062001a39565b602060405180830381865afa158015620009b7573d6000803e3d6000fd5b505050506040513d601f19601f82011682018060405250810190620009dd919062001995565b90506000818b620009ef9190620018c0565b9050600062000a1586848e62000a069190620018c0565b62000df190919063ffffffff16565b90508282829850985098505050505050509450945094915050565b60008054906101000a900473ffffffffffffffffffffffffffffffffffffffff1681565b6000808260405162000a669062000f43565b62000a72919062001229565b604051809103906000f08015801562000a8f573d6000803e3d6000fd5b5090506004819080600181540180825580915050600190039060005260206000200160009091909190916101000a81548173ffffffffffffffffffffffffffffffffffffffff021916908373ffffffffffffffffffffffffffffffffffffffff16021790555080915050919050565b600080845190506000600260003373ffffffffffffffffffffffffffffffffffffffff1673ffffffffffffffffffffffffffffffffffffffff168152602001908152602001600020805490509050600260003373ffffffffffffffffffffffffffffffffffffffff1673ffffffffffffffffffffffffffffffffffffffff16815260200190815260200160002060405180606001604052808881526020018681526020018773ffffffffffffffffffffffffffffffffffffffff168152509080600181540180825580915050600190039060005260206000209060030201600090919091909150600082015181600001908051906020019062000c0392919062000f51565b506020820151816001015560408201518160020160006101000a81548173ffffffffffffffffffffffffffffffffffffffff021916908373ffffffffffffffffffffffffffffffffffffffff160217905550505060005b8281101562000d3c576001600360003373ffffffffffffffffffffffffffffffffffffffff1673ffffffffffffffffffffffffffffffffffffffff1681526020019081526020016000206000848152602001908152602001600020600089848151811062000ccd5762000ccc62001862565b5b602002602001015173ffffffffffffffffffffffffffffffffffffffff1673ffffffffffffffffffffffffffffffffffffffff16815260200190815260200160002060006101000a81548160ff021916908315150217905550808062000d339062001a66565b91505062000c5a565b50600160009054906101000a900473ffffffffffffffffffffffffffffffffffffffff1673ffffffffffffffffffffffffffffffffffffffff166323b872dd3330876040518463ffffffff1660e01b815260040162000d9e9392919062001795565b6020604051808303816000875af115801562000dbe573d6000803e3d6000fd5b505050506040513d601f19601f8201168201806040525081019062000de4919062001803565b5080925050509392505050565b600062000dff838362000e07565b905092915050565b60008060008019848609848602925082811083820303915050670de0b6b3a7640000811062000e6f57806040517fd31b340200000000000000000000000000000000000000000000000000000000815260040162000e66919062001229565b60405180910390fd5b600080670de0b6b3a764000086880991506706f05b59d3b1ffff821190506000830362000ec05780670de0b6b3a7640000858162000eb25762000eb162001ab3565b5b040194505050505062000f06565b807faccb18165bd6fe31ae1cf318dc5b51eee0e1ba569b88cd74c1773b91fac1066960016204000080600003040186851186030262040000858803041702019450505050505b92915050565b60405180606001604052806060815260200160008152602001600073ffffffffffffffffffffffffffffffffffffffff1681525090565b6103ef8062001ae383390190565b82805482825590600052602060002090810192821562000fcd579160200282015b8281111562000fcc5782518260006101000a81548173ffffffffffffffffffffffffffffffffffffffff021916908373ffffffffffffffffffffffffffffffffffffffff1602179055509160200191906001019062000f72565b5b50905062000fdc919062000fe0565b5090565b5b8082111562000ffb57600081600090555060010162000fe1565b5090565b6000604051905090565b600080fd5b600080fd5b600073ffffffffffffffffffffffffffffffffffffffff82169050919050565b6000620010408262001013565b9050919050565b620010528162001033565b81146200105e57600080fd5b50565b600081359050620010728162001047565b92915050565b6000819050919050565b6200108d8162001078565b81146200109957600080fd5b50565b600081359050620010ad8162001082565b92915050565b600080fd5b6000601f19601f8301169050919050565b7f4e487b7100000000000000000000000000000000000000000000000000000000600052604160045260246000fd5b6200110382620010b8565b810181811067ffffffffffffffff82111715620011255762001124620010c9565b5b80604052505050565b60006200113a62000fff565b9050620011488282620010f8565b919050565b600060408284031215620011665762001165620010b3565b5b6200117260406200112e565b90506000620011848482850162001061565b60008301525060206200119a848285016200109c565b60208301525092915050565b60008060008060a08587031215620011c357620011c262001009565b5b6000620011d38782880162001061565b9450506020620011e6878288016200109c565b9350506040620011f9878288016200109c565b92505060606200120c878288016200114d565b91505092959194509250565b620012238162001078565b82525050565b600060208201905062001240600083018462001218565b92915050565b6000602082840312156200125f576200125e62001009565b5b60006200126f8482850162001061565b91505092915050565b6000819050919050565b6000620012a36200129d620012978462001013565b62001278565b62001013565b9050919050565b6000620012b78262001282565b9050919050565b6000620012cb82620012aa565b9050919050565b620012dd81620012be565b82525050565b6000602082019050620012fa6000830184620012d2565b92915050565b60006020828403121562001319576200131862001009565b5b600062001329848285016200109c565b91505092915050565b6200133d8162001033565b82525050565b60006020820190506200135a600083018462001332565b92915050565b6000806000606084860312156200137c576200137b62001009565b5b60006200138c8682870162001061565b93505060206200139f868287016200109c565b9250506040620013b28682870162001061565b9150509250925092565b60008115159050919050565b620013d381620013bc565b82525050565b6000602082019050620013f06000830184620013c8565b92915050565b6000806040838503121562001410576200140f62001009565b5b6000620014208582860162001061565b925050602062001433858286016200109c565b9150509250929050565b600081519050919050565b600082825260208201905092915050565b6000819050602082019050919050565b620014748162001033565b82525050565b600062001488838362001469565b60208301905092915050565b6000602082019050919050565b6000620014ae826200143d565b620014ba818562001448565b9350620014c78362001459565b8060005b83811015620014fe578151620014e288826200147a565b9750620014ef8362001494565b925050600181019050620014cb565b5085935050505092915050565b620015168162001078565b82525050565b60006200152982620012aa565b9050919050565b6200153b816200151c565b82525050565b60006060830160008301518482036000860152620015608282620014a1565b91505060208301516200157760208601826200150b565b5060408301516200158c604086018262001530565b508091505092915050565b60006020820190508181036000830152620015b3818462001541565b905092915050565b6000606082019050620015d2600083018662001218565b620015e1602083018562001218565b620015f0604083018462001218565b949350505050565b60006200160582620012aa565b9050919050565b6200161781620015f8565b82525050565b60006020820190506200163460008301846200160c565b92915050565b600080fd5b600067ffffffffffffffff8211156200165d576200165c620010c9565b5b602082029050602081019050919050565b600080fd5b60006200168a62001684846200163f565b6200112e565b90508083825260208201905060208402830185811115620016b057620016af6200166e565b5b835b81811015620016dd5780620016c8888262001061565b845260208401935050602081019050620016b2565b5050509392505050565b600082601f830112620016ff57620016fe6200163a565b5b81356200171184826020860162001673565b91505092915050565b60008060006060848603121562001736576200173562001009565b5b600084013567ffffffffffffffff8111156200175757620017566200100e565b5b6200176586828701620016e7565b9350506020620017788682870162001061565b92505060406200178b868287016200109c565b9150509250925092565b6000606082019050620017ac600083018662001332565b620017bb602083018562001332565b620017ca604083018462001218565b949350505050565b620017dd81620013bc565b8114620017e957600080fd5b50565b600081519050620017fd81620017d2565b92915050565b6000602082840312156200181c576200181b62001009565b5b60006200182c84828501620017ec565b91505092915050565b60006040820190506200184c600083018562001332565b6200185b602083018462001218565b9392505050565b7f4e487b7100000000000000000000000000000000000000000000000000000000600052603260045260246000fd5b7f4e487b7100000000000000000000000000000000000000000000000000000000600052601160045260246000fd5b6000620018cd8262001078565b9150620018da8362001078565b9250828203905081811115620018f557620018f462001891565b5b92915050565b600082825260208201905092915050565b7f556e737570706f72746564206173736574000000000000000000000000000000600082015250565b600062001944601183620018fb565b915062001951826200190c565b602082019050919050565b60006020820190508181036000830152620019778162001935565b9050919050565b6000815190506200198f8162001082565b92915050565b600060208284031215620019ae57620019ad62001009565b5b6000620019be848285016200197e565b91505092915050565b7f4e6f7420656e6f756768206c697175696469747920696e2074686520706f6f6c600082015250565b6000620019ff602083620018fb565b915062001a0c82620019c7565b602082019050919050565b6000602082019050818103600083015262001a3281620019f0565b9050919050565b600060408201905062001a50600083018562001218565b62001a5f602083018462001218565b9392505050565b600062001a738262001078565b91507fffffffffffffffffffffffffffffffffffffffffffffffffffffffffffffffff820362001aa85762001aa762001891565b5b600182019050919050565b7f4e487b7100000000000000000000000000000000000000000000000000000000600052601260045260246000fdfe608060405234801561001057600080fd5b506040516103ef3803806103ef8339818101604052810190610032919061007a565b80600081905550506100a7565b600080fd5b6000819050919050565b61005781610044565b811461006257600080fd5b50565b6000815190506100748161004e565b92915050565b6000602082840312156100905761008f61003f565b5b600061009e84828501610065565b91505092915050565b610339806100b66000396000f3fe608060405234801561001057600080fd5b50600436106100415760003560e01c806329fe619914610046578063315f1a41146100645780636683d37d14610094575b600080fd5b61004e6100b0565b60405161005b919061021b565b60405180910390f35b61007e60048036038101906100799190610267565b6100b6565b60405161008b919061021b565b60405180910390f35b6100ae60048036038101906100a991906102a7565b6100e7565b005b60005481565b60006100df826100d1600054866100f190919063ffffffff16565b6100f190919063ffffffff16565b905092915050565b8060008190555050565b60006100fd8383610105565b905092915050565b60008060008019848609848602925082811083820303915050670de0b6b3a7640000811061016a57806040517fd31b3402000000000000000000000000000000000000000000000000000000008152600401610161919061021b565b60405180910390fd5b600080670de0b6b3a764000086880991506706f05b59d3b1ffff82119050600083036101b65780670de0b6b3a764000085816101a9576101a86102d4565b5b04019450505050506101fc565b807faccb18165bd6fe31ae1cf318dc5b51eee0e1ba569b88cd74c1773b91fac1066960016204000080600003040186851186030262040000858803041702019450505050505b92915050565b6000819050919050565b61021581610202565b82525050565b6000602082019050610230600083018461020c565b92915050565b600080fd5b61024481610202565b811461024f57600080fd5b50565b6000813590506102618161023b565b92915050565b6000806040838503121561027e5761027d610236565b5b600061028c85828601610252565b925050602061029d85828601610252565b9150509250929050565b6000602082840312156102bd576102bc610236565b5b60006102cb84828501610252565b91505092915050565b7f4e487b7100000000000000000000000000000000000000000000000000000000600052601260045260246000fdfea2646970667358221220776930fcde403e4ac8f6484b30a5fcf07d73c0a336d7ad206fbf019d635170e164736f6c63430008110033a264697066735822122077e9a6361df0222432de5df9e8bcaae3ed096a0df201136c93fc0d9d270cf75864736f6c63430008110033","opcodes":"PUSH1 0x80 PUSH1 0x40 MSTORE CALLVALUE DUP1 ISZERO PUSH3 0x11 JUMPI PUSH1 0x0 DUP1 REVERT JUMPDEST POP PUSH1 0x40 MLOAD PUSH3 0x2088 CODESIZE SUB DUP1 PUSH3 0x2088 DUP4 CODECOPY DUP2 DUP2 ADD PUSH1 0x40 MSTORE DUP2 ADD SWAP1 PUSH3 0x37 SWAP2 SWAP1 PUSH3 0x12A JUMP JUMPDEST DUP2 PUSH1 0x0 DUP1 PUSH2 0x100 EXP DUP2 SLOAD DUP2 PUSH20 0xFFFFFFFFFFFFFFFFFFFFFFFFFFFFFFFFFFFFFFFF MUL NOT AND SWAP1 DUP4 PUSH20 0xFFFFFFFFFFFFFFFFFFFFFFFFFFFFFFFFFFFFFFFF AND MUL OR SWAP1 SSTORE POP DUP1 PUSH1 0x1 PUSH1 0x0 PUSH2 0x100 EXP DUP2 SLOAD DUP2 PUSH20 0xFFFFFFFFFFFFFFFFFFFFFFFFFFFFFFFFFFFFFFFF MUL NOT AND SWAP1 DUP4 PUSH20 0xFFFFFFFFFFFFFFFFFFFFFFFFFFFFFFFFFFFFFFFF AND MUL OR SWAP1 SSTORE POP POP POP PUSH3 0x171 JUMP JUMPDEST PUSH1 0x0 DUP1 REVERT JUMPDEST PUSH1 0x0 PUSH20 0xFFFFFFFFFFFFFFFFFFFFFFFFFFFFFFFFFFFFFFFF DUP3 AND SWAP1 POP SWAP2 SWAP1 POP JUMP JUMPDEST PUSH1 0x0 PUSH3 0xF2 DUP3 PUSH3 0xC5 JUMP JUMPDEST SWAP1 POP SWAP2 SWAP1 POP JUMP JUMPDEST PUSH3 0x104 DUP2 PUSH3 0xE5 JUMP JUMPDEST DUP2 EQ PUSH3 0x110 JUMPI PUSH1 0x0 DUP1 REVERT JUMPDEST POP JUMP JUMPDEST PUSH1 0x0 DUP2 MLOAD SWAP1 POP PUSH3 0x124 DUP2 PUSH3 0xF9 JUMP JUMPDEST SWAP3 SWAP2 POP POP JUMP JUMPDEST PUSH1 0x0 DUP1 PUSH1 0x40 DUP4 DUP6 SUB SLT ISZERO PUSH3 0x144 JUMPI PUSH3 0x143 PUSH3 0xC0 JUMP JUMPDEST JUMPDEST PUSH1 0x0 PUSH3 0x154 DUP6 DUP3 DUP7 ADD PUSH3 0x113 JUMP JUMPDEST SWAP3 POP POP PUSH1 0x20 PUSH3 0x167 DUP6 DUP3 DUP7 ADD PUSH3 0x113 JUMP JUMPDEST SWAP2 POP POP SWAP3 POP SWAP3 SWAP1 POP JUMP JUMPDEST PUSH2 0x1F07 DUP1 PUSH3 0x181 PUSH1 0x0 CODECOPY PUSH1 0x0 RETURN INVALID PUSH1 0x80 PUSH1 0x40 MSTORE CALLVALUE DUP1 ISZERO PUSH3 0x11 JUMPI PUSH1 0x0 DUP1 REVERT JUMPDEST POP PUSH1 0x4 CALLDATASIZE LT PUSH3 0xAC JUMPI PUSH1 0x0 CALLDATALOAD PUSH1 0xE0 SHR DUP1 PUSH4 0x5B5B9EA2 GT PUSH3 0x6F JUMPI DUP1 PUSH4 0x5B5B9EA2 EQ PUSH3 0x1AB JUMPI DUP1 PUSH4 0x6C61B615 EQ PUSH3 0x1E1 JUMPI DUP1 PUSH4 0x741BEF1A EQ PUSH3 0x219 JUMPI DUP1 PUSH4 0xC3ED9227 EQ PUSH3 0x23B JUMPI DUP1 PUSH4 0xCD215E97 EQ PUSH3 0x271 JUMPI PUSH3 0xAC JUMP JUMPDEST DUP1 PUSH4 0x658C489 EQ PUSH3 0xB1 JUMPI DUP1 PUSH4 0x387DD500 EQ PUSH3 0xE7 JUMPI DUP1 PUSH4 0x43CD8F7E EQ PUSH3 0x11D JUMPI DUP1 PUSH4 0x574B529B EQ PUSH3 0x13F JUMPI DUP1 PUSH4 0x5B5A6300 EQ PUSH3 0x175 JUMPI JUMPDEST PUSH1 0x0 DUP1 REVERT JUMPDEST PUSH3 0xCF PUSH1 0x4 DUP1 CALLDATASIZE SUB DUP2 ADD SWAP1 PUSH3 0xC9 SWAP2 SWAP1 PUSH3 0x11A6 JUMP JUMPDEST PUSH3 0x2A7 JUMP JUMPDEST PUSH1 0x40 MLOAD PUSH3 0xDE SWAP2 SWAP1 PUSH3 0x1229 JUMP JUMPDEST PUSH1 0x40 MLOAD DUP1 SWAP2 SUB SWAP1 RETURN JUMPDEST PUSH3 0x105 PUSH1 0x4 DUP1 CALLDATASIZE SUB DUP2 ADD SWAP1 PUSH3 0xFF SWAP2 SWAP1 PUSH3 0x1246 JUMP JUMPDEST PUSH3 0x47A JUMP JUMPDEST PUSH1 0x40 MLOAD PUSH3 0x114 SWAP2 SWAP1 PUSH3 0x1229 JUMP JUMPDEST PUSH1 0x40 MLOAD DUP1 SWAP2 SUB SWAP1 RETURN JUMPDEST PUSH3 0x127 PUSH3 0x4C6 JUMP JUMPDEST PUSH1 0x40 MLOAD PUSH3 0x136 SWAP2 SWAP1 PUSH3 0x12E3 JUMP JUMPDEST PUSH1 0x40 MLOAD DUP1 SWAP2 SUB SWAP1 RETURN JUMPDEST PUSH3 0x15D PUSH1 0x4 DUP1 CALLDATASIZE SUB DUP2 ADD SWAP1 PUSH3 0x157 SWAP2 SWAP1 PUSH3 0x1300 JUMP JUMPDEST PUSH3 0x4EC JUMP JUMPDEST PUSH1 0x40 MLOAD PUSH3 0x16C SWAP2 SWAP1 PUSH3 0x1343 JUMP JUMPDEST PUSH1 0x40 MLOAD DUP1 SWAP2 SUB SWAP1 RETURN JUMPDEST PUSH3 0x193 PUSH1 0x4 DUP1 CALLDATASIZE SUB DUP2 ADD SWAP1 PUSH3 0x18D SWAP2 SWAP1 PUSH3 0x1360 JUMP JUMPDEST PUSH3 0x52C JUMP JUMPDEST PUSH1 0x40 MLOAD PUSH3 0x1A2 SWAP2 SWAP1 PUSH3 0x13D9 JUMP JUMPDEST PUSH1 0x40 MLOAD DUP1 SWAP2 SUB SWAP1 RETURN JUMPDEST PUSH3 0x1C9 PUSH1 0x4 DUP1 CALLDATASIZE SUB DUP2 ADD SWAP1 PUSH3 0x1C3 SWAP2 SWAP1 PUSH3 0x13F6 JUMP JUMPDEST PUSH3 0x568 JUMP JUMPDEST PUSH1 0x40 MLOAD PUSH3 0x1D8 SWAP2 SWAP1 PUSH3 0x1597 JUMP JUMPDEST PUSH1 0x40 MLOAD DUP1 SWAP2 SUB SWAP1 RETURN JUMPDEST PUSH3 0x1FF PUSH1 0x4 DUP1 CALLDATASIZE SUB DUP2 ADD SWAP1 PUSH3 0x1F9 SWAP2 SWAP1 PUSH3 0x11A6 JUMP JUMPDEST PUSH3 0x6D7 JUMP JUMPDEST PUSH1 0x40 MLOAD PUSH3 0x210 SWAP4 SWAP3 SWAP2 SWAP1 PUSH3 0x15BB JUMP JUMPDEST PUSH1 0x40 MLOAD DUP1 SWAP2 SUB SWAP1 RETURN JUMPDEST PUSH3 0x223 PUSH3 0xA30 JUMP JUMPDEST PUSH1 0x40 MLOAD PUSH3 0x232 SWAP2 SWAP1 PUSH3 0x161D JUMP JUMPDEST PUSH1 0x40 MLOAD DUP1 SWAP2 SUB SWAP1 RETURN JUMPDEST PUSH3 0x259 PUSH1 0x4 DUP1 CALLDATASIZE SUB DUP2 ADD SWAP1 PUSH3 0x253 SWAP2 SWAP1 PUSH3 0x1300 JUMP JUMPDEST PUSH3 0xA54 JUMP JUMPDEST PUSH1 0x40 MLOAD PUSH3 0x268 SWAP2 SWAP1 PUSH3 0x1343 JUMP JUMPDEST PUSH1 0x40 MLOAD DUP1 SWAP2 SUB SWAP1 RETURN JUMPDEST PUSH3 0x28F PUSH1 0x4 DUP1 CALLDATASIZE SUB DUP2 ADD SWAP1 PUSH3 0x289 SWAP2 SWAP1 PUSH3 0x171A JUMP JUMPDEST PUSH3 0xAFE JUMP JUMPDEST PUSH1 0x40 MLOAD PUSH3 0x29E SWAP2 SWAP1 PUSH3 0x1229 JUMP JUMPDEST PUSH1 0x40 MLOAD DUP1 SWAP2 SUB SWAP1 RETURN JUMPDEST PUSH1 0x0 DUP1 PUSH3 0x2B8 DUP7 DUP7 DUP7 DUP7 PUSH3 0x6D7 JUMP JUMPDEST SWAP3 POP POP POP DUP6 PUSH20 0xFFFFFFFFFFFFFFFFFFFFFFFFFFFFFFFFFFFFFFFF AND PUSH4 0x23B872DD CALLER ADDRESS DUP9 PUSH1 0x40 MLOAD DUP5 PUSH4 0xFFFFFFFF AND PUSH1 0xE0 SHL DUP2 MSTORE PUSH1 0x4 ADD PUSH3 0x2FB SWAP4 SWAP3 SWAP2 SWAP1 PUSH3 0x1795 JUMP JUMPDEST PUSH1 0x20 PUSH1 0x40 MLOAD DUP1 DUP4 SUB DUP2 PUSH1 0x0 DUP8 GAS CALL ISZERO DUP1 ISZERO PUSH3 0x31B JUMPI RETURNDATASIZE PUSH1 0x0 DUP1 RETURNDATACOPY RETURNDATASIZE PUSH1 0x0 REVERT JUMPDEST POP POP POP POP PUSH1 0x40 MLOAD RETURNDATASIZE PUSH1 0x1F NOT PUSH1 0x1F DUP3 ADD AND DUP3 ADD DUP1 PUSH1 0x40 MSTORE POP DUP2 ADD SWAP1 PUSH3 0x341 SWAP2 SWAP1 PUSH3 0x1803 JUMP JUMPDEST POP PUSH1 0x1 PUSH1 0x0 SWAP1 SLOAD SWAP1 PUSH2 0x100 EXP SWAP1 DIV PUSH20 0xFFFFFFFFFFFFFFFFFFFFFFFFFFFFFFFFFFFFFFFF AND PUSH20 0xFFFFFFFFFFFFFFFFFFFFFFFFFFFFFFFFFFFFFFFF AND PUSH4 0xA9059CBB CALLER DUP4 PUSH1 0x40 MLOAD DUP4 PUSH4 0xFFFFFFFF AND PUSH1 0xE0 SHL DUP2 MSTORE PUSH1 0x4 ADD PUSH3 0x3A1 SWAP3 SWAP2 SWAP1 PUSH3 0x1835 JUMP JUMPDEST PUSH1 0x20 PUSH1 0x40 MLOAD DUP1 DUP4 SUB DUP2 PUSH1 0x0 DUP8 GAS CALL ISZERO DUP1 ISZERO PUSH3 0x3C1 JUMPI RETURNDATASIZE PUSH1 0x0 DUP1 RETURNDATACOPY RETURNDATASIZE PUSH1 0x0 REVERT JUMPDEST POP POP POP POP PUSH1 0x40 MLOAD RETURNDATASIZE PUSH1 0x1F NOT PUSH1 0x1F DUP3 ADD AND DUP3 ADD DUP1 PUSH1 0x40 MSTORE POP DUP2 ADD SWAP1 PUSH3 0x3E7 SWAP2 SWAP1 PUSH3 0x1803 JUMP JUMPDEST POP DUP1 PUSH1 0x2 PUSH1 0x0 DUP6 PUSH1 0x0 ADD MLOAD PUSH20 0xFFFFFFFFFFFFFFFFFFFFFFFFFFFFFFFFFFFFFFFF AND PUSH20 0xFFFFFFFFFFFFFFFFFFFFFFFFFFFFFFFFFFFFFFFF AND DUP2 MSTORE PUSH1 0x20 ADD SWAP1 DUP2 MSTORE PUSH1 0x20 ADD PUSH1 0x0 KECCAK256 DUP5 PUSH1 0x20 ADD MLOAD DUP2 SLOAD DUP2 LT PUSH3 0x445 JUMPI PUSH3 0x444 PUSH3 0x1862 JUMP JUMPDEST JUMPDEST SWAP1 PUSH1 0x0 MSTORE PUSH1 0x20 PUSH1 0x0 KECCAK256 SWAP1 PUSH1 0x3 MUL ADD PUSH1 0x1 ADD PUSH1 0x0 DUP3 DUP3 SLOAD PUSH3 0x467 SWAP2 SWAP1 PUSH3 0x18C0 JUMP JUMPDEST SWAP3 POP POP DUP2 SWAP1 SSTORE POP DUP1 SWAP2 POP POP SWAP5 SWAP4 POP POP POP POP JUMP JUMPDEST PUSH1 0x0 PUSH1 0x2 PUSH1 0x0 DUP4 PUSH20 0xFFFFFFFFFFFFFFFFFFFFFFFFFFFFFFFFFFFFFFFF AND PUSH20 0xFFFFFFFFFFFFFFFFFFFFFFFFFFFFFFFFFFFFFFFF AND DUP2 MSTORE PUSH1 0x20 ADD SWAP1 DUP2 MSTORE PUSH1 0x20 ADD PUSH1 0x0 KECCAK256 DUP1 SLOAD SWAP1 POP SWAP1 POP SWAP2 SWAP1 POP JUMP JUMPDEST PUSH1 0x1 PUSH1 0x0 SWAP1 SLOAD SWAP1 PUSH2 0x100 EXP SWAP1 DIV PUSH20 0xFFFFFFFFFFFFFFFFFFFFFFFFFFFFFFFFFFFFFFFF AND DUP2 JUMP JUMPDEST PUSH1 0x4 DUP2 DUP2 SLOAD DUP2 LT PUSH3 0x4FD JUMPI PUSH1 0x0 DUP1 REVERT JUMPDEST SWAP1 PUSH1 0x0 MSTORE PUSH1 0x20 PUSH1 0x0 KECCAK256 ADD PUSH1 0x0 SWAP2 POP SLOAD SWAP1 PUSH2 0x100 EXP SWAP1 DIV PUSH20 0xFFFFFFFFFFFFFFFFFFFFFFFFFFFFFFFFFFFFFFFF AND DUP2 JUMP JUMPDEST PUSH1 0x3 PUSH1 0x20 MSTORE DUP3 PUSH1 0x0 MSTORE PUSH1 0x40 PUSH1 0x0 KECCAK256 PUSH1 0x20 MSTORE DUP2 PUSH1 0x0 MSTORE PUSH1 0x40 PUSH1 0x0 KECCAK256 PUSH1 0x20 MSTORE DUP1 PUSH1 0x0 MSTORE PUSH1 0x40 PUSH1 0x0 KECCAK256 PUSH1 0x0 SWAP3 POP SWAP3 POP POP SWAP1 SLOAD SWAP1 PUSH2 0x100 EXP SWAP1 DIV PUSH1 0xFF AND DUP2 JUMP JUMPDEST PUSH3 0x572 PUSH3 0xF0C JUMP JUMPDEST PUSH1 0x2 PUSH1 0x0 DUP5 PUSH20 0xFFFFFFFFFFFFFFFFFFFFFFFFFFFFFFFFFFFFFFFF AND PUSH20 0xFFFFFFFFFFFFFFFFFFFFFFFFFFFFFFFFFFFFFFFF AND DUP2 MSTORE PUSH1 0x20 ADD SWAP1 DUP2 MSTORE PUSH1 0x20 ADD PUSH1 0x0 KECCAK256 DUP3 DUP2 SLOAD DUP2 LT PUSH3 0x5C6 JUMPI PUSH3 0x5C5 PUSH3 0x1862 JUMP JUMPDEST JUMPDEST SWAP1 PUSH1 0x0 MSTORE PUSH1 0x20 PUSH1 0x0 KECCAK256 SWAP1 PUSH1 0x3 MUL ADD PUSH1 0x40 MLOAD DUP1 PUSH1 0x60 ADD PUSH1 0x40 MSTORE SWAP1 DUP2 PUSH1 0x0 DUP3 ADD DUP1 SLOAD DUP1 PUSH1 0x20 MUL PUSH1 0x20 ADD PUSH1 0x40 MLOAD SWAP1 DUP2 ADD PUSH1 0x40 MSTORE DUP1 SWAP3 SWAP2 SWAP1 DUP2 DUP2 MSTORE PUSH1 0x20 ADD DUP3 DUP1 SLOAD DUP1 ISZERO PUSH3 0x666 JUMPI PUSH1 0x20 MUL DUP3 ADD SWAP2 SWAP1 PUSH1 0x0 MSTORE PUSH1 0x20 PUSH1 0x0 KECCAK256 SWAP1 JUMPDEST DUP2 PUSH1 0x0 SWAP1 SLOAD SWAP1 PUSH2 0x100 EXP SWAP1 DIV PUSH20 0xFFFFFFFFFFFFFFFFFFFFFFFFFFFFFFFFFFFFFFFF AND PUSH20 0xFFFFFFFFFFFFFFFFFFFFFFFFFFFFFFFFFFFFFFFF AND DUP2 MSTORE PUSH1 0x20 ADD SWAP1 PUSH1 0x1 ADD SWAP1 DUP1 DUP4 GT PUSH3 0x61B JUMPI JUMPDEST POP POP POP POP POP DUP2 MSTORE PUSH1 0x20 ADD PUSH1 0x1 DUP3 ADD SLOAD DUP2 MSTORE PUSH1 0x20 ADD PUSH1 0x2 DUP3 ADD PUSH1 0x0 SWAP1 SLOAD SWAP1 PUSH2 0x100 EXP SWAP1 DIV PUSH20 0xFFFFFFFFFFFFFFFFFFFFFFFFFFFFFFFFFFFFFFFF AND PUSH20 0xFFFFFFFFFFFFFFFFFFFFFFFFFFFFFFFFFFFFFFFF AND PUSH20 0xFFFFFFFFFFFFFFFFFFFFFFFFFFFFFFFFFFFFFFFF AND DUP2 MSTORE POP POP SWAP1 POP SWAP3 SWAP2 POP POP JUMP JUMPDEST PUSH1 0x0 DUP1 PUSH1 0x0 PUSH1 0x3 PUSH1 0x0 DUP6 PUSH1 0x0 ADD MLOAD PUSH20 0xFFFFFFFFFFFFFFFFFFFFFFFFFFFFFFFFFFFFFFFF AND PUSH20 0xFFFFFFFFFFFFFFFFFFFFFFFFFFFFFFFFFFFFFFFF AND DUP2 MSTORE PUSH1 0x20 ADD SWAP1 DUP2 MSTORE PUSH1 0x20 ADD PUSH1 0x0 KECCAK256 PUSH1 0x0 DUP6 PUSH1 0x20 ADD MLOAD DUP2 MSTORE PUSH1 0x20 ADD SWAP1 DUP2 MSTORE PUSH1 0x20 ADD PUSH1 0x0 KECCAK256 PUSH1 0x0 DUP9 PUSH20 0xFFFFFFFFFFFFFFFFFFFFFFFFFFFFFFFFFFFFFFFF AND PUSH20 0xFFFFFFFFFFFFFFFFFFFFFFFFFFFFFFFFFFFFFFFF AND DUP2 MSTORE PUSH1 0x20 ADD SWAP1 DUP2 MSTORE PUSH1 0x20 ADD PUSH1 0x0 KECCAK256 PUSH1 0x0 SWAP1 SLOAD SWAP1 PUSH2 0x100 EXP SWAP1 DIV PUSH1 0xFF AND PUSH3 0x7C1 JUMPI PUSH1 0x40 MLOAD PUSH32 0x8C379A000000000000000000000000000000000000000000000000000000000 DUP2 MSTORE PUSH1 0x4 ADD PUSH3 0x7B8 SWAP1 PUSH3 0x195C JUMP JUMPDEST PUSH1 0x40 MLOAD DUP1 SWAP2 SUB SWAP1 REVERT JUMPDEST PUSH1 0x0 DUP1 PUSH1 0x0 SWAP1 SLOAD SWAP1 PUSH2 0x100 EXP SWAP1 DIV PUSH20 0xFFFFFFFFFFFFFFFFFFFFFFFFFFFFFFFFFFFFFFFF AND PUSH20 0xFFFFFFFFFFFFFFFFFFFFFFFFFFFFFFFFFFFFFFFF AND PUSH4 0xB3596F07 DUP10 PUSH1 0x40 MLOAD DUP3 PUSH4 0xFFFFFFFF AND PUSH1 0xE0 SHL DUP2 MSTORE PUSH1 0x4 ADD PUSH3 0x81F SWAP2 SWAP1 PUSH3 0x1343 JUMP JUMPDEST PUSH1 0x20 PUSH1 0x40 MLOAD DUP1 DUP4 SUB DUP2 DUP7 GAS STATICCALL ISZERO DUP1 ISZERO PUSH3 0x83D JUMPI RETURNDATASIZE PUSH1 0x0 DUP1 RETURNDATACOPY RETURNDATASIZE PUSH1 0x0 REVERT JUMPDEST POP POP POP POP PUSH1 0x40 MLOAD RETURNDATASIZE PUSH1 0x1F NOT PUSH1 0x1F DUP3 ADD AND DUP3 ADD DUP1 PUSH1 0x40 MSTORE POP DUP2 ADD SWAP1 PUSH3 0x863 SWAP2 SWAP1 PUSH3 0x1995 JUMP JUMPDEST SWAP1 POP PUSH1 0x0 PUSH3 0x87C DUP9 DUP4 PUSH3 0xDF1 SWAP1 SWAP2 SWAP1 PUSH4 0xFFFFFFFF AND JUMP JUMPDEST SWAP1 POP PUSH1 0x0 PUSH1 0x2 PUSH1 0x0 DUP9 PUSH1 0x0 ADD MLOAD PUSH20 0xFFFFFFFFFFFFFFFFFFFFFFFFFFFFFFFFFFFFFFFF AND PUSH20 0xFFFFFFFFFFFFFFFFFFFFFFFFFFFFFFFFFFFFFFFF AND DUP2 MSTORE PUSH1 0x20 ADD SWAP1 DUP2 MSTORE PUSH1 0x20 ADD PUSH1 0x0 KECCAK256 DUP8 PUSH1 0x20 ADD MLOAD DUP2 SLOAD DUP2 LT PUSH3 0x8DC JUMPI PUSH3 0x8DB PUSH3 0x1862 JUMP JUMPDEST JUMPDEST SWAP1 PUSH1 0x0 MSTORE PUSH1 0x20 PUSH1 0x0 KECCAK256 SWAP1 PUSH1 0x3 MUL ADD SWAP1 POP DUP1 PUSH1 0x1 ADD SLOAD DUP3 GT ISZERO PUSH3 0x936 JUMPI PUSH1 0x40 MLOAD PUSH32 0x8C379A000000000000000000000000000000000000000000000000000000000 DUP2 MSTORE PUSH1 0x4 ADD PUSH3 0x92D SWAP1 PUSH3 0x1A17 JUMP JUMPDEST PUSH1 0x40 MLOAD DUP1 SWAP2 SUB SWAP1 REVERT JUMPDEST PUSH1 0x0 DUP2 PUSH1 0x2 ADD PUSH1 0x0 SWAP1 SLOAD SWAP1 PUSH2 0x100 EXP SWAP1 DIV PUSH20 0xFFFFFFFFFFFFFFFFFFFFFFFFFFFFFFFFFFFFFFFF AND PUSH20 0xFFFFFFFFFFFFFFFFFFFFFFFFFFFFFFFFFFFFFFFF AND PUSH4 0x315F1A41 DUP12 DUP12 PUSH1 0x40 MLOAD DUP4 PUSH4 0xFFFFFFFF AND PUSH1 0xE0 SHL DUP2 MSTORE PUSH1 0x4 ADD PUSH3 0x999 SWAP3 SWAP2 SWAP1 PUSH3 0x1A39 JUMP JUMPDEST PUSH1 0x20 PUSH1 0x40 MLOAD DUP1 DUP4 SUB DUP2 DUP7 GAS STATICCALL ISZERO DUP1 ISZERO PUSH3 0x9B7 JUMPI RETURNDATASIZE PUSH1 0x0 DUP1 RETURNDATACOPY RETURNDATASIZE PUSH1 0x0 REVERT JUMPDEST POP POP POP POP PUSH1 0x40 MLOAD RETURNDATASIZE PUSH1 0x1F NOT PUSH1 0x1F DUP3 ADD AND DUP3 ADD DUP1 PUSH1 0x40 MSTORE POP DUP2 ADD SWAP1 PUSH3 0x9DD SWAP2 SWAP1 PUSH3 0x1995 JUMP JUMPDEST SWAP1 POP PUSH1 0x0 DUP2 DUP12 PUSH3 0x9EF SWAP2 SWAP1 PUSH3 0x18C0 JUMP JUMPDEST SWAP1 POP PUSH1 0x0 PUSH3 0xA15 DUP7 DUP5 DUP15 PUSH3 0xA06 SWAP2 SWAP1 PUSH3 0x18C0 JUMP JUMPDEST PUSH3 0xDF1 SWAP1 SWAP2 SWAP1 PUSH4 0xFFFFFFFF AND JUMP JUMPDEST SWAP1 POP DUP3 DUP3 DUP3 SWAP9 POP SWAP9 POP SWAP9 POP POP POP POP POP POP POP SWAP5 POP SWAP5 POP SWAP5 SWAP2 POP POP JUMP JUMPDEST PUSH1 0x0 DUP1 SLOAD SWAP1 PUSH2 0x100 EXP SWAP1 DIV PUSH20 0xFFFFFFFFFFFFFFFFFFFFFFFFFFFFFFFFFFFFFFFF AND DUP2 JUMP JUMPDEST PUSH1 0x0 DUP1 DUP3 PUSH1 0x40 MLOAD PUSH3 0xA66 SWAP1 PUSH3 0xF43 JUMP JUMPDEST PUSH3 0xA72 SWAP2 SWAP1 PUSH3 0x1229 JUMP JUMPDEST PUSH1 0x40 MLOAD DUP1 SWAP2 SUB SWAP1 PUSH1 0x0 CREATE DUP1 ISZERO DUP1 ISZERO PUSH3 0xA8F JUMPI RETURNDATASIZE PUSH1 0x0 DUP1 RETURNDATACOPY RETURNDATASIZE PUSH1 0x0 REVERT JUMPDEST POP SWAP1 POP PUSH1 0x4 DUP2 SWAP1 DUP1 PUSH1 0x1 DUP2 SLOAD ADD DUP1 DUP3 SSTORE DUP1 SWAP2 POP POP PUSH1 0x1 SWAP1 SUB SWAP1 PUSH1 0x0 MSTORE PUSH1 0x20 PUSH1 0x0 KECCAK256 ADD PUSH1 0x0 SWAP1 SWAP2 SWAP1 SWAP2 SWAP1 SWAP2 PUSH2 0x100 EXP DUP2 SLOAD DUP2 PUSH20 0xFFFFFFFFFFFFFFFFFFFFFFFFFFFFFFFFFFFFFFFF MUL NOT AND SWAP1 DUP4 PUSH20 0xFFFFFFFFFFFFFFFFFFFFFFFFFFFFFFFFFFFFFFFF AND MUL OR SWAP1 SSTORE POP DUP1 SWAP2 POP POP SWAP2 SWAP1 POP JUMP JUMPDEST PUSH1 0x0 DUP1 DUP5 MLOAD SWAP1 POP PUSH1 0x0 PUSH1 0x2 PUSH1 0x0 CALLER PUSH20 0xFFFFFFFFFFFFFFFFFFFFFFFFFFFFFFFFFFFFFFFF AND PUSH20 0xFFFFFFFFFFFFFFFFFFFFFFFFFFFFFFFFFFFFFFFF AND DUP2 MSTORE PUSH1 0x20 ADD SWAP1 DUP2 MSTORE PUSH1 0x20 ADD PUSH1 0x0 KECCAK256 DUP1 SLOAD SWAP1 POP SWAP1 POP PUSH1 0x2 PUSH1 0x0 CALLER PUSH20 0xFFFFFFFFFFFFFFFFFFFFFFFFFFFFFFFFFFFFFFFF AND PUSH20 0xFFFFFFFFFFFFFFFFFFFFFFFFFFFFFFFFFFFFFFFF AND DUP2 MSTORE PUSH1 0x20 ADD SWAP1 DUP2 MSTORE PUSH1 0x20 ADD PUSH1 0x0 KECCAK256 PUSH1 0x40 MLOAD DUP1 PUSH1 0x60 ADD PUSH1 0x40 MSTORE DUP1 DUP9 DUP2 MSTORE PUSH1 0x20 ADD DUP7 DUP2 MSTORE PUSH1 0x20 ADD DUP8 PUSH20 0xFFFFFFFFFFFFFFFFFFFFFFFFFFFFFFFFFFFFFFFF AND DUP2 MSTORE POP SWAP1 DUP1 PUSH1 0x1 DUP2 SLOAD ADD DUP1 DUP3 SSTORE DUP1 SWAP2 POP POP PUSH1 0x1 SWAP1 SUB SWAP1 PUSH1 0x0 MSTORE PUSH1 0x20 PUSH1 0x0 KECCAK256 SWAP1 PUSH1 0x3 MUL ADD PUSH1 0x0 SWAP1 SWAP2 SWAP1 SWAP2 SWAP1 SWAP2 POP PUSH1 0x0 DUP3 ADD MLOAD DUP2 PUSH1 0x0 ADD SWAP1 DUP1 MLOAD SWAP1 PUSH1 0x20 ADD SWAP1 PUSH3 0xC03 SWAP3 SWAP2 SWAP1 PUSH3 0xF51 JUMP JUMPDEST POP PUSH1 0x20 DUP3 ADD MLOAD DUP2 PUSH1 0x1 ADD SSTORE PUSH1 0x40 DUP3 ADD MLOAD DUP2 PUSH1 0x2 ADD PUSH1 0x0 PUSH2 0x100 EXP DUP2 SLOAD DUP2 PUSH20 0xFFFFFFFFFFFFFFFFFFFFFFFFFFFFFFFFFFFFFFFF MUL NOT AND SWAP1 DUP4 PUSH20 0xFFFFFFFFFFFFFFFFFFFFFFFFFFFFFFFFFFFFFFFF AND MUL OR SWAP1 SSTORE POP POP POP PUSH1 0x0 JUMPDEST DUP3 DUP2 LT ISZERO PUSH3 0xD3C JUMPI PUSH1 0x1 PUSH1 0x3 PUSH1 0x0 CALLER PUSH20 0xFFFFFFFFFFFFFFFFFFFFFFFFFFFFFFFFFFFFFFFF AND PUSH20 0xFFFFFFFFFFFFFFFFFFFFFFFFFFFFFFFFFFFFFFFF AND DUP2 MSTORE PUSH1 0x20 ADD SWAP1 DUP2 MSTORE PUSH1 0x20 ADD PUSH1 0x0 KECCAK256 PUSH1 0x0 DUP5 DUP2 MSTORE PUSH1 0x20 ADD SWAP1 DUP2 MSTORE PUSH1 0x20 ADD PUSH1 0x0 KECCAK256 PUSH1 0x0 DUP10 DUP5 DUP2 MLOAD DUP2 LT PUSH3 0xCCD JUMPI PUSH3 0xCCC PUSH3 0x1862 JUMP JUMPDEST JUMPDEST PUSH1 0x20 MUL PUSH1 0x20 ADD ADD MLOAD PUSH20 0xFFFFFFFFFFFFFFFFFFFFFFFFFFFFFFFFFFFFFFFF AND PUSH20 0xFFFFFFFFFFFFFFFFFFFFFFFFFFFFFFFFFFFFFFFF AND DUP2 MSTORE PUSH1 0x20 ADD SWAP1 DUP2 MSTORE PUSH1 0x20 ADD PUSH1 0x0 KECCAK256 PUSH1 0x0 PUSH2 0x100 EXP DUP2 SLOAD DUP2 PUSH1 0xFF MUL NOT AND SWAP1 DUP4 ISZERO ISZERO MUL OR SWAP1 SSTORE POP DUP1 DUP1 PUSH3 0xD33 SWAP1 PUSH3 0x1A66 JUMP JUMPDEST SWAP2 POP POP PUSH3 0xC5A JUMP JUMPDEST POP PUSH1 0x1 PUSH1 0x0 SWAP1 SLOAD SWAP1 PUSH2 0x100 EXP SWAP1 DIV PUSH20 0xFFFFFFFFFFFFFFFFFFFFFFFFFFFFFFFFFFFFFFFF AND PUSH20 0xFFFFFFFFFFFFFFFFFFFFFFFFFFFFFFFFFFFFFFFF AND PUSH4 0x23B872DD CALLER ADDRESS DUP8 PUSH1 0x40 MLOAD DUP5 PUSH4 0xFFFFFFFF AND PUSH1 0xE0 SHL DUP2 MSTORE PUSH1 0x4 ADD PUSH3 0xD9E SWAP4 SWAP3 SWAP2 SWAP1 PUSH3 0x1795 JUMP JUMPDEST PUSH1 0x20 PUSH1 0x40 MLOAD DUP1 DUP4 SUB DUP2 PUSH1 0x0 DUP8 GAS CALL ISZERO DUP1 ISZERO PUSH3 0xDBE JUMPI RETURNDATASIZE PUSH1 0x0 DUP1 RETURNDATACOPY RETURNDATASIZE PUSH1 0x0 REVERT JUMPDEST POP POP POP POP PUSH1 0x40 MLOAD RETURNDATASIZE PUSH1 0x1F NOT PUSH1 0x1F DUP3 ADD AND DUP3 ADD DUP1 PUSH1 0x40 MSTORE POP DUP2 ADD SWAP1 PUSH3 0xDE4 SWAP2 SWAP1 PUSH3 0x1803 JUMP JUMPDEST POP DUP1 SWAP3 POP POP POP SWAP4 SWAP3 POP POP POP JUMP JUMPDEST PUSH1 0x0 PUSH3 0xDFF DUP4 DUP4 PUSH3 0xE07 JUMP JUMPDEST SWAP1 POP SWAP3 SWAP2 POP POP JUMP JUMPDEST PUSH1 0x0 DUP1 PUSH1 0x0 DUP1 NOT DUP5 DUP7 MULMOD DUP5 DUP7 MUL SWAP3 POP DUP3 DUP2 LT DUP4 DUP3 SUB SUB SWAP2 POP POP PUSH8 0xDE0B6B3A7640000 DUP2 LT PUSH3 0xE6F JUMPI DUP1 PUSH1 0x40 MLOAD PUSH32 0xD31B340200000000000000000000000000000000000000000000000000000000 DUP2 MSTORE PUSH1 0x4 ADD PUSH3 0xE66 SWAP2 SWAP1 PUSH3 0x1229 JUMP JUMPDEST PUSH1 0x40 MLOAD DUP1 SWAP2 SUB SWAP1 REVERT JUMPDEST PUSH1 0x0 DUP1 PUSH8 0xDE0B6B3A7640000 DUP7 DUP9 MULMOD SWAP2 POP PUSH8 0x6F05B59D3B1FFFF DUP3 GT SWAP1 POP PUSH1 0x0 DUP4 SUB PUSH3 0xEC0 JUMPI DUP1 PUSH8 0xDE0B6B3A7640000 DUP6 DUP2 PUSH3 0xEB2 JUMPI PUSH3 0xEB1 PUSH3 0x1AB3 JUMP JUMPDEST JUMPDEST DIV ADD SWAP5 POP POP POP POP POP PUSH3 0xF06 JUMP JUMPDEST DUP1 PUSH32 0xACCB18165BD6FE31AE1CF318DC5B51EEE0E1BA569B88CD74C1773B91FAC10669 PUSH1 0x1 PUSH3 0x40000 DUP1 PUSH1 0x0 SUB DIV ADD DUP7 DUP6 GT DUP7 SUB MUL PUSH3 0x40000 DUP6 DUP9 SUB DIV OR MUL ADD SWAP5 POP POP POP POP POP JUMPDEST SWAP3 SWAP2 POP POP JUMP JUMPDEST PUSH1 0x40 MLOAD DUP1 PUSH1 0x60 ADD PUSH1 0x40 MSTORE DUP1 PUSH1 0x60 DUP2 MSTORE PUSH1 0x20 ADD PUSH1 0x0 DUP2 MSTORE PUSH1 0x20 ADD PUSH1 0x0 PUSH20 0xFFFFFFFFFFFFFFFFFFFFFFFFFFFFFFFFFFFFFFFF AND DUP2 MSTORE POP SWAP1 JUMP JUMPDEST PUSH2 0x3EF DUP1 PUSH3 0x1AE3 DUP4 CODECOPY ADD SWAP1 JUMP JUMPDEST DUP3 DUP1 SLOAD DUP3 DUP3 SSTORE SWAP1 PUSH1 0x0 MSTORE PUSH1 0x20 PUSH1 0x0 KECCAK256 SWAP1 DUP2 ADD SWAP3 DUP3 ISZERO PUSH3 0xFCD JUMPI SWAP2 PUSH1 0x20 MUL DUP3 ADD JUMPDEST DUP3 DUP2 GT ISZERO PUSH3 0xFCC JUMPI DUP3 MLOAD DUP3 PUSH1 0x0 PUSH2 0x100 EXP DUP2 SLOAD DUP2 PUSH20 0xFFFFFFFFFFFFFFFFFFFFFFFFFFFFFFFFFFFFFFFF MUL NOT AND SWAP1 DUP4 PUSH20 0xFFFFFFFFFFFFFFFFFFFFFFFFFFFFFFFFFFFFFFFF AND MUL OR SWAP1 SSTORE POP SWAP2 PUSH1 0x20 ADD SWAP2 SWAP1 PUSH1 0x1 ADD SWAP1 PUSH3 0xF72 JUMP JUMPDEST JUMPDEST POP SWAP1 POP PUSH3 0xFDC SWAP2 SWAP1 PUSH3 0xFE0 JUMP JUMPDEST POP SWAP1 JUMP JUMPDEST JUMPDEST DUP1 DUP3 GT ISZERO PUSH3 0xFFB JUMPI PUSH1 0x0 DUP2 PUSH1 0x0 SWAP1 SSTORE POP PUSH1 0x1 ADD PUSH3 0xFE1 JUMP JUMPDEST POP SWAP1 JUMP JUMPDEST PUSH1 0x0 PUSH1 0x40 MLOAD SWAP1 POP SWAP1 JUMP JUMPDEST PUSH1 0x0 DUP1 REVERT JUMPDEST PUSH1 0x0 DUP1 REVERT JUMPDEST PUSH1 0x0 PUSH20 0xFFFFFFFFFFFFFFFFFFFFFFFFFFFFFFFFFFFFFFFF DUP3 AND SWAP1 POP SWAP2 SWAP1 POP JUMP JUMPDEST PUSH1 0x0 PUSH3 0x1040 DUP3 PUSH3 0x1013 JUMP JUMPDEST SWAP1 POP SWAP2 SWAP1 POP JUMP JUMPDEST PUSH3 0x1052 DUP2 PUSH3 0x1033 JUMP JUMPDEST DUP2 EQ PUSH3 0x105E JUMPI PUSH1 0x0 DUP1 REVERT JUMPDEST POP JUMP JUMPDEST PUSH1 0x0 DUP2 CALLDATALOAD SWAP1 POP PUSH3 0x1072 DUP2 PUSH3 0x1047 JUMP JUMPDEST SWAP3 SWAP2 POP POP JUMP JUMPDEST PUSH1 0x0 DUP2 SWAP1 POP SWAP2 SWAP1 POP JUMP JUMPDEST PUSH3 0x108D DUP2 PUSH3 0x1078 JUMP JUMPDEST DUP2 EQ PUSH3 0x1099 JUMPI PUSH1 0x0 DUP1 REVERT JUMPDEST POP JUMP JUMPDEST PUSH1 0x0 DUP2 CALLDATALOAD SWAP1 POP PUSH3 0x10AD DUP2 PUSH3 0x1082 JUMP JUMPDEST SWAP3 SWAP2 POP POP JUMP JUMPDEST PUSH1 0x0 DUP1 REVERT JUMPDEST PUSH1 0x0 PUSH1 0x1F NOT PUSH1 0x1F DUP4 ADD AND SWAP1 POP SWAP2 SWAP1 POP JUMP JUMPDEST PUSH32 0x4E487B7100000000000000000000000000000000000000000000000000000000 PUSH1 0x0 MSTORE PUSH1 0x41 PUSH1 0x4 MSTORE PUSH1 0x24 PUSH1 0x0 REVERT JUMPDEST PUSH3 0x1103 DUP3 PUSH3 0x10B8 JUMP JUMPDEST DUP2 ADD DUP2 DUP2 LT PUSH8 0xFFFFFFFFFFFFFFFF DUP3 GT OR ISZERO PUSH3 0x1125 JUMPI PUSH3 0x1124 PUSH3 0x10C9 JUMP JUMPDEST JUMPDEST DUP1 PUSH1 0x40 MSTORE POP POP POP JUMP JUMPDEST PUSH1 0x0 PUSH3 0x113A PUSH3 0xFFF JUMP JUMPDEST SWAP1 POP PUSH3 0x1148 DUP3 DUP3 PUSH3 0x10F8 JUMP JUMPDEST SWAP2 SWAP1 POP JUMP JUMPDEST PUSH1 0x0 PUSH1 0x40 DUP3 DUP5 SUB SLT ISZERO PUSH3 0x1166 JUMPI PUSH3 0x1165 PUSH3 0x10B3 JUMP JUMPDEST JUMPDEST PUSH3 0x1172 PUSH1 0x40 PUSH3 0x112E JUMP JUMPDEST SWAP1 POP PUSH1 0x0 PUSH3 0x1184 DUP5 DUP3 DUP6 ADD PUSH3 0x1061 JUMP JUMPDEST PUSH1 0x0 DUP4 ADD MSTORE POP PUSH1 0x20 PUSH3 0x119A DUP5 DUP3 DUP6 ADD PUSH3 0x109C JUMP JUMPDEST PUSH1 0x20 DUP4 ADD MSTORE POP SWAP3 SWAP2 POP POP JUMP JUMPDEST PUSH1 0x0 DUP1 PUSH1 0x0 DUP1 PUSH1 0xA0 DUP6 DUP8 SUB SLT ISZERO PUSH3 0x11C3 JUMPI PUSH3 0x11C2 PUSH3 0x1009 JUMP JUMPDEST JUMPDEST PUSH1 0x0 PUSH3 0x11D3 DUP8 DUP3 DUP9 ADD PUSH3 0x1061 JUMP JUMPDEST SWAP5 POP POP PUSH1 0x20 PUSH3 0x11E6 DUP8 DUP3 DUP9 ADD PUSH3 0x109C JUMP JUMPDEST SWAP4 POP POP PUSH1 0x40 PUSH3 0x11F9 DUP8 DUP3 DUP9 ADD PUSH3 0x109C JUMP JUMPDEST SWAP3 POP POP PUSH1 0x60 PUSH3 0x120C DUP8 DUP3 DUP9 ADD PUSH3 0x114D JUMP JUMPDEST SWAP2 POP POP SWAP3 SWAP6 SWAP2 SWAP5 POP SWAP3 POP JUMP JUMPDEST PUSH3 0x1223 DUP2 PUSH3 0x1078 JUMP JUMPDEST DUP3 MSTORE POP POP JUMP JUMPDEST PUSH1 0x0 PUSH1 0x20 DUP3 ADD SWAP1 POP PUSH3 0x1240 PUSH1 0x0 DUP4 ADD DUP5 PUSH3 0x1218 JUMP JUMPDEST SWAP3 SWAP2 POP POP JUMP JUMPDEST PUSH1 0x0 PUSH1 0x20 DUP3 DUP5 SUB SLT ISZERO PUSH3 0x125F JUMPI PUSH3 0x125E PUSH3 0x1009 JUMP JUMPDEST JUMPDEST PUSH1 0x0 PUSH3 0x126F DUP5 DUP3 DUP6 ADD PUSH3 0x1061 JUMP JUMPDEST SWAP2 POP POP SWAP3 SWAP2 POP POP JUMP JUMPDEST PUSH1 0x0 DUP2 SWAP1 POP SWAP2 SWAP1 POP JUMP JUMPDEST PUSH1 0x0 PUSH3 0x12A3 PUSH3 0x129D PUSH3 0x1297 DUP5 PUSH3 0x1013 JUMP JUMPDEST PUSH3 0x1278 JUMP JUMPDEST PUSH3 0x1013 JUMP JUMPDEST SWAP1 POP SWAP2 SWAP1 POP JUMP JUMPDEST PUSH1 0x0 PUSH3 0x12B7 DUP3 PUSH3 0x1282 JUMP JUMPDEST SWAP1 POP SWAP2 SWAP1 POP JUMP JUMPDEST PUSH1 0x0 PUSH3 0x12CB DUP3 PUSH3 0x12AA JUMP JUMPDEST SWAP1 POP SWAP2 SWAP1 POP JUMP JUMPDEST PUSH3 0x12DD DUP2 PUSH3 0x12BE JUMP JUMPDEST DUP3 MSTORE POP POP JUMP JUMPDEST PUSH1 0x0 PUSH1 0x20 DUP3 ADD SWAP1 POP PUSH3 0x12FA PUSH1 0x0 DUP4 ADD DUP5 PUSH3 0x12D2 JUMP JUMPDEST SWAP3 SWAP2 POP POP JUMP JUMPDEST PUSH1 0x0 PUSH1 0x20 DUP3 DUP5 SUB SLT ISZERO PUSH3 0x1319 JUMPI PUSH3 0x1318 PUSH3 0x1009 JUMP JUMPDEST JUMPDEST PUSH1 0x0 PUSH3 0x1329 DUP5 DUP3 DUP6 ADD PUSH3 0x109C JUMP JUMPDEST SWAP2 POP POP SWAP3 SWAP2 POP POP JUMP JUMPDEST PUSH3 0x133D DUP2 PUSH3 0x1033 JUMP JUMPDEST DUP3 MSTORE POP POP JUMP JUMPDEST PUSH1 0x0 PUSH1 0x20 DUP3 ADD SWAP1 POP PUSH3 0x135A PUSH1 0x0 DUP4 ADD DUP5 PUSH3 0x1332 JUMP JUMPDEST SWAP3 SWAP2 POP POP JUMP JUMPDEST PUSH1 0x0 DUP1 PUSH1 0x0 PUSH1 0x60 DUP5 DUP7 SUB SLT ISZERO PUSH3 0x137C JUMPI PUSH3 0x137B PUSH3 0x1009 JUMP JUMPDEST JUMPDEST PUSH1 0x0 PUSH3 0x138C DUP7 DUP3 DUP8 ADD PUSH3 0x1061 JUMP JUMPDEST SWAP4 POP POP PUSH1 0x20 PUSH3 0x139F DUP7 DUP3 DUP8 ADD PUSH3 0x109C JUMP JUMPDEST SWAP3 POP POP PUSH1 0x40 PUSH3 0x13B2 DUP7 DUP3 DUP8 ADD PUSH3 0x1061 JUMP JUMPDEST SWAP2 POP POP SWAP3 POP SWAP3 POP SWAP3 JUMP JUMPDEST PUSH1 0x0 DUP2 ISZERO ISZERO SWAP1 POP SWAP2 SWAP1 POP JUMP JUMPDEST PUSH3 0x13D3 DUP2 PUSH3 0x13BC JUMP JUMPDEST DUP3 MSTORE POP POP JUMP JUMPDEST PUSH1 0x0 PUSH1 0x20 DUP3 ADD SWAP1 POP PUSH3 0x13F0 PUSH1 0x0 DUP4 ADD DUP5 PUSH3 0x13C8 JUMP JUMPDEST SWAP3 SWAP2 POP POP JUMP JUMPDEST PUSH1 0x0 DUP1 PUSH1 0x40 DUP4 DUP6 SUB SLT ISZERO PUSH3 0x1410 JUMPI PUSH3 0x140F PUSH3 0x1009 JUMP JUMPDEST JUMPDEST PUSH1 0x0 PUSH3 0x1420 DUP6 DUP3 DUP7 ADD PUSH3 0x1061 JUMP JUMPDEST SWAP3 POP POP PUSH1 0x20 PUSH3 0x1433 DUP6 DUP3 DUP7 ADD PUSH3 0x109C JUMP JUMPDEST SWAP2 POP POP SWAP3 POP SWAP3 SWAP1 POP JUMP JUMPDEST PUSH1 0x0 DUP2 MLOAD SWAP1 POP SWAP2 SWAP1 POP JUMP JUMPDEST PUSH1 0x0 DUP3 DUP3 MSTORE PUSH1 0x20 DUP3 ADD SWAP1 POP SWAP3 SWAP2 POP POP JUMP JUMPDEST PUSH1 0x0 DUP2 SWAP1 POP PUSH1 0x20 DUP3 ADD SWAP1 POP SWAP2 SWAP1 POP JUMP JUMPDEST PUSH3 0x1474 DUP2 PUSH3 0x1033 JUMP JUMPDEST DUP3 MSTORE POP POP JUMP JUMPDEST PUSH1 0x0 PUSH3 0x1488 DUP4 DUP4 PUSH3 0x1469 JUMP JUMPDEST PUSH1 0x20 DUP4 ADD SWAP1 POP SWAP3 SWAP2 POP POP JUMP JUMPDEST PUSH1 0x0 PUSH1 0x20 DUP3 ADD SWAP1 POP SWAP2 SWAP1 POP JUMP JUMPDEST PUSH1 0x0 PUSH3 0x14AE DUP3 PUSH3 0x143D JUMP JUMPDEST PUSH3 0x14BA DUP2 DUP6 PUSH3 0x1448 JUMP JUMPDEST SWAP4 POP PUSH3 0x14C7 DUP4 PUSH3 0x1459 JUMP JUMPDEST DUP1 PUSH1 0x0 JUMPDEST DUP4 DUP2 LT ISZERO PUSH3 0x14FE JUMPI DUP2 MLOAD PUSH3 0x14E2 DUP9 DUP3 PUSH3 0x147A JUMP JUMPDEST SWAP8 POP PUSH3 0x14EF DUP4 PUSH3 0x1494 JUMP JUMPDEST SWAP3 POP POP PUSH1 0x1 DUP2 ADD SWAP1 POP PUSH3 0x14CB JUMP JUMPDEST POP DUP6 SWAP4 POP POP POP POP SWAP3 SWAP2 POP POP JUMP JUMPDEST PUSH3 0x1516 DUP2 PUSH3 0x1078 JUMP JUMPDEST DUP3 MSTORE POP POP JUMP JUMPDEST PUSH1 0x0 PUSH3 0x1529 DUP3 PUSH3 0x12AA JUMP JUMPDEST SWAP1 POP SWAP2 SWAP1 POP JUMP JUMPDEST PUSH3 0x153B DUP2 PUSH3 0x151C JUMP JUMPDEST DUP3 MSTORE POP POP JUMP JUMPDEST PUSH1 0x0 PUSH1 0x60 DUP4 ADD PUSH1 0x0 DUP4 ADD MLOAD DUP5 DUP3 SUB PUSH1 0x0 DUP7 ADD MSTORE PUSH3 0x1560 DUP3 DUP3 PUSH3 0x14A1 JUMP JUMPDEST SWAP2 POP POP PUSH1 0x20 DUP4 ADD MLOAD PUSH3 0x1577 PUSH1 0x20 DUP7 ADD DUP3 PUSH3 0x150B JUMP JUMPDEST POP PUSH1 0x40 DUP4 ADD MLOAD PUSH3 0x158C PUSH1 0x40 DUP7 ADD DUP3 PUSH3 0x1530 JUMP JUMPDEST POP DUP1 SWAP2 POP POP SWAP3 SWAP2 POP POP JUMP JUMPDEST PUSH1 0x0 PUSH1 0x20 DUP3 ADD SWAP1 POP DUP2 DUP2 SUB PUSH1 0x0 DUP4 ADD MSTORE PUSH3 0x15B3 DUP2 DUP5 PUSH3 0x1541 JUMP JUMPDEST SWAP1 POP SWAP3 SWAP2 POP POP JUMP JUMPDEST PUSH1 0x0 PUSH1 0x60 DUP3 ADD SWAP1 POP PUSH3 0x15D2 PUSH1 0x0 DUP4 ADD DUP7 PUSH3 0x1218 JUMP JUMPDEST PUSH3 0x15E1 PUSH1 0x20 DUP4 ADD DUP6 PUSH3 0x1218 JUMP JUMPDEST PUSH3 0x15F0 PUSH1 0x40 DUP4 ADD DUP5 PUSH3 0x1218 JUMP JUMPDEST SWAP5 SWAP4 POP POP POP POP JUMP JUMPDEST PUSH1 0x0 PUSH3 0x1605 DUP3 PUSH3 0x12AA JUMP JUMPDEST SWAP1 POP SWAP2 SWAP1 POP JUMP JUMPDEST PUSH3 0x1617 DUP2 PUSH3 0x15F8 JUMP JUMPDEST DUP3 MSTORE POP POP JUMP JUMPDEST PUSH1 0x0 PUSH1 0x20 DUP3 ADD SWAP1 POP PUSH3 0x1634 PUSH1 0x0 DUP4 ADD DUP5 PUSH3 0x160C JUMP JUMPDEST SWAP3 SWAP2 POP POP JUMP JUMPDEST PUSH1 0x0 DUP1 REVERT JUMPDEST PUSH1 0x0 PUSH8 0xFFFFFFFFFFFFFFFF DUP3 GT ISZERO PUSH3 0x165D JUMPI PUSH3 0x165C PUSH3 0x10C9 JUMP JUMPDEST JUMPDEST PUSH1 0x20 DUP3 MUL SWAP1 POP PUSH1 0x20 DUP2 ADD SWAP1 POP SWAP2 SWAP1 POP JUMP JUMPDEST PUSH1 0x0 DUP1 REVERT JUMPDEST PUSH1 0x0 PUSH3 0x168A PUSH3 0x1684 DUP5 PUSH3 0x163F JUMP JUMPDEST PUSH3 0x112E JUMP JUMPDEST SWAP1 POP DUP1 DUP4 DUP3 MSTORE PUSH1 0x20 DUP3 ADD SWAP1 POP PUSH1 0x20 DUP5 MUL DUP4 ADD DUP6 DUP2 GT ISZERO PUSH3 0x16B0 JUMPI PUSH3 0x16AF PUSH3 0x166E JUMP JUMPDEST JUMPDEST DUP4 JUMPDEST DUP2 DUP2 LT ISZERO PUSH3 0x16DD JUMPI DUP1 PUSH3 0x16C8 DUP9 DUP3 PUSH3 0x1061 JUMP JUMPDEST DUP5 MSTORE PUSH1 0x20 DUP5 ADD SWAP4 POP POP PUSH1 0x20 DUP2 ADD SWAP1 POP PUSH3 0x16B2 JUMP JUMPDEST POP POP POP SWAP4 SWAP3 POP POP POP JUMP JUMPDEST PUSH1 0x0 DUP3 PUSH1 0x1F DUP4 ADD SLT PUSH3 0x16FF JUMPI PUSH3 0x16FE PUSH3 0x163A JUMP JUMPDEST JUMPDEST DUP2 CALLDATALOAD PUSH3 0x1711 DUP5 DUP3 PUSH1 0x20 DUP7 ADD PUSH3 0x1673 JUMP JUMPDEST SWAP2 POP POP SWAP3 SWAP2 POP POP JUMP JUMPDEST PUSH1 0x0 DUP1 PUSH1 0x0 PUSH1 0x60 DUP5 DUP7 SUB SLT ISZERO PUSH3 0x1736 JUMPI PUSH3 0x1735 PUSH3 0x1009 JUMP JUMPDEST JUMPDEST PUSH1 0x0 DUP5 ADD CALLDATALOAD PUSH8 0xFFFFFFFFFFFFFFFF DUP2 GT ISZERO PUSH3 0x1757 JUMPI PUSH3 0x1756 PUSH3 0x100E JUMP JUMPDEST JUMPDEST PUSH3 0x1765 DUP7 DUP3 DUP8 ADD PUSH3 0x16E7 JUMP JUMPDEST SWAP4 POP POP PUSH1 0x20 PUSH3 0x1778 DUP7 DUP3 DUP8 ADD PUSH3 0x1061 JUMP JUMPDEST SWAP3 POP POP PUSH1 0x40 PUSH3 0x178B DUP7 DUP3 DUP8 ADD PUSH3 0x109C JUMP JUMPDEST SWAP2 POP POP SWAP3 POP SWAP3 POP SWAP3 JUMP JUMPDEST PUSH1 0x0 PUSH1 0x60 DUP3 ADD SWAP1 POP PUSH3 0x17AC PUSH1 0x0 DUP4 ADD DUP7 PUSH3 0x1332 JUMP JUMPDEST PUSH3 0x17BB PUSH1 0x20 DUP4 ADD DUP6 PUSH3 0x1332 JUMP JUMPDEST PUSH3 0x17CA PUSH1 0x40 DUP4 ADD DUP5 PUSH3 0x1218 JUMP JUMPDEST SWAP5 SWAP4 POP POP POP POP JUMP JUMPDEST PUSH3 0x17DD DUP2 PUSH3 0x13BC JUMP JUMPDEST DUP2 EQ PUSH3 0x17E9 JUMPI PUSH1 0x0 DUP1 REVERT JUMPDEST POP JUMP JUMPDEST PUSH1 0x0 DUP2 MLOAD SWAP1 POP PUSH3 0x17FD DUP2 PUSH3 0x17D2 JUMP JUMPDEST SWAP3 SWAP2 POP POP JUMP JUMPDEST PUSH1 0x0 PUSH1 0x20 DUP3 DUP5 SUB SLT ISZERO PUSH3 0x181C JUMPI PUSH3 0x181B PUSH3 0x1009 JUMP JUMPDEST JUMPDEST PUSH1 0x0 PUSH3 0x182C DUP5 DUP3 DUP6 ADD PUSH3 0x17EC JUMP JUMPDEST SWAP2 POP POP SWAP3 SWAP2 POP POP JUMP JUMPDEST PUSH1 0x0 PUSH1 0x40 DUP3 ADD SWAP1 POP PUSH3 0x184C PUSH1 0x0 DUP4 ADD DUP6 PUSH3 0x1332 JUMP JUMPDEST PUSH3 0x185B PUSH1 0x20 DUP4 ADD DUP5 PUSH3 0x1218 JUMP JUMPDEST SWAP4 SWAP3 POP POP POP JUMP JUMPDEST PUSH32 0x4E487B7100000000000000000000000000000000000000000000000000000000 PUSH1 0x0 MSTORE PUSH1 0x32 PUSH1 0x4 MSTORE PUSH1 0x24 PUSH1 0x0 REVERT JUMPDEST PUSH32 0x4E487B7100000000000000000000000000000000000000000000000000000000 PUSH1 0x0 MSTORE PUSH1 0x11 PUSH1 0x4 MSTORE PUSH1 0x24 PUSH1 0x0 REVERT JUMPDEST PUSH1 0x0 PUSH3 0x18CD DUP3 PUSH3 0x1078 JUMP JUMPDEST SWAP2 POP PUSH3 0x18DA DUP4 PUSH3 0x1078 JUMP JUMPDEST SWAP3 POP DUP3 DUP3 SUB SWAP1 POP DUP2 DUP2 GT ISZERO PUSH3 0x18F5 JUMPI PUSH3 0x18F4 PUSH3 0x1891 JUMP JUMPDEST JUMPDEST SWAP3 SWAP2 POP POP JUMP JUMPDEST PUSH1 0x0 DUP3 DUP3 MSTORE PUSH1 0x20 DUP3 ADD SWAP1 POP SWAP3 SWAP2 POP POP JUMP JUMPDEST PUSH32 0x556E737570706F72746564206173736574000000000000000000000000000000 PUSH1 0x0 DUP3 ADD MSTORE POP JUMP JUMPDEST PUSH1 0x0 PUSH3 0x1944 PUSH1 0x11 DUP4 PUSH3 0x18FB JUMP JUMPDEST SWAP2 POP PUSH3 0x1951 DUP3 PUSH3 0x190C JUMP JUMPDEST PUSH1 0x20 DUP3 ADD SWAP1 POP SWAP2 SWAP1 POP JUMP JUMPDEST PUSH1 0x0 PUSH1 0x20 DUP3 ADD SWAP1 POP DUP2 DUP2 SUB PUSH1 0x0 DUP4 ADD MSTORE PUSH3 0x1977 DUP2 PUSH3 0x1935 JUMP JUMPDEST SWAP1 POP SWAP2 SWAP1 POP JUMP JUMPDEST PUSH1 0x0 DUP2 MLOAD SWAP1 POP PUSH3 0x198F DUP2 PUSH3 0x1082 JUMP JUMPDEST SWAP3 SWAP2 POP POP JUMP JUMPDEST PUSH1 0x0 PUSH1 0x20 DUP3 DUP5 SUB SLT ISZERO PUSH3 0x19AE JUMPI PUSH3 0x19AD PUSH3 0x1009 JUMP JUMPDEST JUMPDEST PUSH1 0x0 PUSH3 0x19BE DUP5 DUP3 DUP6 ADD PUSH3 0x197E JUMP JUMPDEST SWAP2 POP POP SWAP3 SWAP2 POP POP JUMP JUMPDEST PUSH32 0x4E6F7420656E6F756768206C697175696469747920696E2074686520706F6F6C PUSH1 0x0 DUP3 ADD MSTORE POP JUMP JUMPDEST PUSH1 0x0 PUSH3 0x19FF PUSH1 0x20 DUP4 PUSH3 0x18FB JUMP JUMPDEST SWAP2 POP PUSH3 0x1A0C DUP3 PUSH3 0x19C7 JUMP JUMPDEST PUSH1 0x20 DUP3 ADD SWAP1 POP SWAP2 SWAP1 POP JUMP JUMPDEST PUSH1 0x0 PUSH1 0x20 DUP3 ADD SWAP1 POP DUP2 DUP2 SUB PUSH1 0x0 DUP4 ADD MSTORE PUSH3 0x1A32 DUP2 PUSH3 0x19F0 JUMP JUMPDEST SWAP1 POP SWAP2 SWAP1 POP JUMP JUMPDEST PUSH1 0x0 PUSH1 0x40 DUP3 ADD SWAP1 POP PUSH3 0x1A50 PUSH1 0x0 DUP4 ADD DUP6 PUSH3 0x1218 JUMP JUMPDEST PUSH3 0x1A5F PUSH1 0x20 DUP4 ADD DUP5 PUSH3 0x1218 JUMP JUMPDEST SWAP4 SWAP3 POP POP POP JUMP JUMPDEST PUSH1 0x0 PUSH3 0x1A73 DUP3 PUSH3 0x1078 JUMP JUMPDEST SWAP2 POP PUSH32 0xFFFFFFFFFFFFFFFFFFFFFFFFFFFFFFFFFFFFFFFFFFFFFFFFFFFFFFFFFFFFFFFF DUP3 SUB PUSH3 0x1AA8 JUMPI PUSH3 0x1AA7 PUSH3 0x1891 JUMP JUMPDEST JUMPDEST PUSH1 0x1 DUP3 ADD SWAP1 POP SWAP2 SWAP1 POP JUMP JUMPDEST PUSH32 0x4E487B7100000000000000000000000000000000000000000000000000000000 PUSH1 0x0 MSTORE PUSH1 0x12 PUSH1 0x4 MSTORE PUSH1 0x24 PUSH1 0x0 REVERT INVALID PUSH1 0x80 PUSH1 0x40 MSTORE CALLVALUE DUP1 ISZERO PUSH2 0x10 JUMPI PUSH1 0x0 DUP1 REVERT JUMPDEST POP PUSH1 0x40 MLOAD PUSH2 0x3EF CODESIZE SUB DUP1 PUSH2 0x3EF DUP4 CODECOPY DUP2 DUP2 ADD PUSH1 0x40 MSTORE DUP2 ADD SWAP1 PUSH2 0x32 SWAP2 SWAP1 PUSH2 0x7A JUMP JUMPDEST DUP1 PUSH1 0x0 DUP2 SWAP1 SSTORE POP POP PUSH2 0xA7 JUMP JUMPDEST PUSH1 0x0 DUP1 REVERT JUMPDEST PUSH1 0x0 DUP2 SWAP1 POP SWAP2 SWAP1 POP JUMP JUMPDEST PUSH2 0x57 DUP2 PUSH2 0x44 JUMP JUMPDEST DUP2 EQ PUSH2 0x62 JUMPI PUSH1 0x0 DUP1 REVERT JUMPDEST POP JUMP JUMPDEST PUSH1 0x0 DUP2 MLOAD SWAP1 POP PUSH2 0x74 DUP2 PUSH2 0x4E JUMP JUMPDEST SWAP3 SWAP2 POP POP JUMP JUMPDEST PUSH1 0x0 PUSH1 0x20 DUP3 DUP5 SUB SLT ISZERO PUSH2 0x90 JUMPI PUSH2 0x8F PUSH2 0x3F JUMP JUMPDEST JUMPDEST PUSH1 0x0 PUSH2 0x9E DUP5 DUP3 DUP6 ADD PUSH2 0x65 JUMP JUMPDEST SWAP2 POP POP SWAP3 SWAP2 POP POP JUMP JUMPDEST PUSH2 0x339 DUP1 PUSH2 0xB6 PUSH1 0x0 CODECOPY PUSH1 0x0 RETURN INVALID PUSH1 0x80 PUSH1 0x40 MSTORE CALLVALUE DUP1 ISZERO PUSH2 0x10 JUMPI PUSH1 0x0 DUP1 REVERT JUMPDEST POP PUSH1 0x4 CALLDATASIZE LT PUSH2 0x41 JUMPI PUSH1 0x0 CALLDATALOAD PUSH1 0xE0 SHR DUP1 PUSH4 0x29FE6199 EQ PUSH2 0x46 JUMPI DUP1 PUSH4 0x315F1A41 EQ PUSH2 0x64 JUMPI DUP1 PUSH4 0x6683D37D EQ PUSH2 0x94 JUMPI JUMPDEST PUSH1 0x0 DUP1 REVERT JUMPDEST PUSH2 0x4E PUSH2 0xB0 JUMP JUMPDEST PUSH1 0x40 MLOAD PUSH2 0x5B SWAP2 SWAP1 PUSH2 0x21B JUMP JUMPDEST PUSH1 0x40 MLOAD DUP1 SWAP2 SUB SWAP1 RETURN JUMPDEST PUSH2 0x7E PUSH1 0x4 DUP1 CALLDATASIZE SUB DUP2 ADD SWAP1 PUSH2 0x79 SWAP2 SWAP1 PUSH2 0x267 JUMP JUMPDEST PUSH2 0xB6 JUMP JUMPDEST PUSH1 0x40 MLOAD PUSH2 0x8B SWAP2 SWAP1 PUSH2 0x21B JUMP JUMPDEST PUSH1 0x40 MLOAD DUP1 SWAP2 SUB SWAP1 RETURN JUMPDEST PUSH2 0xAE PUSH1 0x4 DUP1 CALLDATASIZE SUB DUP2 ADD SWAP1 PUSH2 0xA9 SWAP2 SWAP1 PUSH2 0x2A7 JUMP JUMPDEST PUSH2 0xE7 JUMP JUMPDEST STOP JUMPDEST PUSH1 0x0 SLOAD DUP2 JUMP JUMPDEST PUSH1 0x0 PUSH2 0xDF DUP3 PUSH2 0xD1 PUSH1 0x0 SLOAD DUP7 PUSH2 0xF1 SWAP1 SWAP2 SWAP1 PUSH4 0xFFFFFFFF AND JUMP JUMPDEST PUSH2 0xF1 SWAP1 SWAP2 SWAP1 PUSH4 0xFFFFFFFF AND JUMP JUMPDEST SWAP1 POP SWAP3 SWAP2 POP POP JUMP JUMPDEST DUP1 PUSH1 0x0 DUP2 SWAP1 SSTORE POP POP JUMP JUMPDEST PUSH1 0x0 PUSH2 0xFD DUP4 DUP4 PUSH2 0x105 JUMP JUMPDEST SWAP1 POP SWAP3 SWAP2 POP POP JUMP JUMPDEST PUSH1 0x0 DUP1 PUSH1 0x0 DUP1 NOT DUP5 DUP7 MULMOD DUP5 DUP7 MUL SWAP3 POP DUP3 DUP2 LT DUP4 DUP3 SUB SUB SWAP2 POP POP PUSH8 0xDE0B6B3A7640000 DUP2 LT PUSH2 0x16A JUMPI DUP1 PUSH1 0x40 MLOAD PUSH32 0xD31B340200000000000000000000000000000000000000000000000000000000 DUP2 MSTORE PUSH1 0x4 ADD PUSH2 0x161 SWAP2 SWAP1 PUSH2 0x21B JUMP JUMPDEST PUSH1 0x40 MLOAD DUP1 SWAP2 SUB SWAP1 REVERT JUMPDEST PUSH1 0x0 DUP1 PUSH8 0xDE0B6B3A7640000 DUP7 DUP9 MULMOD SWAP2 POP PUSH8 0x6F05B59D3B1FFFF DUP3 GT SWAP1 POP PUSH1 0x0 DUP4 SUB PUSH2 0x1B6 JUMPI DUP1 PUSH8 0xDE0B6B3A7640000 DUP6 DUP2 PUSH2 0x1A9 JUMPI PUSH2 0x1A8 PUSH2 0x2D4 JUMP JUMPDEST JUMPDEST DIV ADD SWAP5 POP POP POP POP POP PUSH2 0x1FC JUMP JUMPDEST DUP1 PUSH32 0xACCB18165BD6FE31AE1CF318DC5B51EEE0E1BA569B88CD74C1773B91FAC10669 PUSH1 0x1 PUSH3 0x40000 DUP1 PUSH1 0x0 SUB DIV ADD DUP7 DUP6 GT DUP7 SUB MUL PUSH3 0x40000 DUP6 DUP9 SUB DIV OR MUL ADD SWAP5 POP POP POP POP POP JUMPDEST SWAP3 SWAP2 POP POP JUMP JUMPDEST PUSH1 0x0 DUP2 SWAP1 POP SWAP2 SWAP1 POP JUMP JUMPDEST PUSH2 0x215 DUP2 PUSH2 0x202 JUMP JUMPDEST DUP3 MSTORE POP POP JUMP JUMPDEST PUSH1 0x0 PUSH1 0x20 DUP3 ADD SWAP1 POP PUSH2 0x230 PUSH1 0x0 DUP4 ADD DUP5 PUSH2 0x20C JUMP JUMPDEST SWAP3 SWAP2 POP POP JUMP JUMPDEST PUSH1 0x0 DUP1 REVERT JUMPDEST PUSH2 0x244 DUP2 PUSH2 0x202 JUMP JUMPDEST DUP2 EQ PUSH2 0x24F JUMPI PUSH1 0x0 DUP1 REVERT JUMPDEST POP JUMP JUMPDEST PUSH1 0x0 DUP2 CALLDATALOAD SWAP1 POP PUSH2 0x261 DUP2 PUSH2 0x23B JUMP JUMPDEST SWAP3 SWAP2 POP POP JUMP JUMPDEST PUSH1 0x0 DUP1 PUSH1 0x40 DUP4 DUP6 SUB SLT ISZERO PUSH2 0x27E JUMPI PUSH2 0x27D PUSH2 0x236 JUMP JUMPDEST JUMPDEST PUSH1 0x0 PUSH2 0x28C DUP6 DUP3 DUP7 ADD PUSH2 0x252 JUMP JUMPDEST SWAP3 POP POP PUSH1 0x20 PUSH2 0x29D DUP6 DUP3 DUP7 ADD PUSH2 0x252 JUMP JUMPDEST SWAP2 POP POP SWAP3 POP SWAP3 SWAP1 POP JUMP JUMPDEST PUSH1 0x0 PUSH1 0x20 DUP3 DUP5 SUB SLT ISZERO PUSH2 0x2BD JUMPI PUSH2 0x2BC PUSH2 0x236 JUMP JUMPDEST JUMPDEST PUSH1 0x0 PUSH2 0x2CB DUP5 DUP3 DUP6 ADD PUSH2 0x252 JUMP JUMPDEST SWAP2 POP POP SWAP3 SWAP2 POP POP JUMP JUMPDEST PUSH32 0x4E487B7100000000000000000000000000000000000000000000000000000000 PUSH1 0x0 MSTORE PUSH1 0x12 PUSH1 0x4 MSTORE PUSH1 0x24 PUSH1 0x0 REVERT INVALID LOG2 PUSH5 0x6970667358 0x22 SLT KECCAK256 PUSH24 0x6930FCDE403E4AC8F6484B30A5FCF07D73C0A336D7AD206F 0xBF ADD SWAP14 PUSH4 0x5170E164 PUSH20 0x6F6C63430008110033A264697066735822122077 0xE9 0xA6 CALLDATASIZE SAR CREATE 0x22 0x24 ORIGIN 0xDE 0x5D 0xF9 0xE8 0xBC 0xAA 0xE3 0xED MULMOD PUSH11 0xDF201136C93FC0D9D270C 0xF7 PC PUSH5 0x736F6C6343 STOP ADDMOD GT STOP CALLER "},"gasEstimates":{"creation":{"codeDepositCost":"1588600","executionCost":"infinite","totalCost":"infinite"},"external":{"createPool(address[],address,uint256)":"infinite","createPriceModel(uint256)":"infinite","getPool(address,uint256)":"infinite","getUserTotalPools(address)":"2872","isAssetSupported(address,uint256,address)":"infinite","liquidityToken()":"infinite","priceFeed()":"infinite","priceModels(uint256)":"5023","quote(address,uint256,uint256,(address,uint256))":"infinite","swap(address,uint256,uint256,(address,uint256))":"infinite"}},"methodIdentifiers":{"createPool(address[],address,uint256)":"cd215e97","createPriceModel(uint256)":"c3ed9227","getPool(address,uint256)":"5b5b9ea2","getUserTotalPools(address)":"387dd500","isAssetSupported(address,uint256,address)":"5b5a6300","liquidityToken()":"43cd8f7e","priceFeed()":"741bef1a","priceModels(uint256)":"574b529b","quote(address,uint256,uint256,(address,uint256))":"6c61b615","swap(address,uint256,uint256,(address,uint256))":"0658c489"}},"storageLayout":{"storage":[{"astId":294,"contract":"src/InterestSwap.sol:InterestSwap","label":"priceFeed","offset":0,"slot":"0","type":"t_contract(IPriceFeed)4063"},{"astId":297,"contract":"src/InterestSwap.sol:InterestSwap","label":"liquidityToken","offset":0,"slot":"1","type":"t_contract(IERC20)4044"},{"astId":317,"contract":"src/InterestSwap.sol:InterestSwap","label":"pools","offset":0,"slot":"2","type":"t_mapping(t_address,t_array(t_struct(Pool)306_storage)dyn_storage)"},{"astId":325,"contract":"src/InterestSwap.sol:InterestSwap","label":"isAssetSupported","offset":0,"slot":"3","type":"t_mapping(t_address,t_mapping(t_uint256,t_mapping(t_address,t_bool)))"},{"astId":328,"contract":"src/InterestSwap.sol:InterestSwap","label":"priceModels","offset":0,"slot":"4","type":"t_array(t_address)dyn_storage"}],"types":{"t_address":{"encoding":"inplace","label":"address","numberOfBytes":"20"},"t_array(t_address)dyn_storage":{"base":"t_address","encoding":"dynamic_array","label":"address[]","numberOfBytes":"32"},"t_array(t_struct(Pool)306_storage)dyn_storage":{"base":"t_struct(Pool)306_storage","encoding":"dynamic_array","label":"struct InterestSwap.Pool[]","numberOfBytes":"32"},"t_bool":{"encoding":"inplace","label":"bool","numberOfBytes":"1"},"t_contract(IERC20)4044":{"encoding":"inplace","label":"contract IERC20","numberOfBytes":"20"},"t_contract(IPriceFeed)4063":{"encoding":"inplace","label":"contract IPriceFeed","numberOfBytes":"20"},"t_contract(PriceModel)921":{"encoding":"inplace","label":"contract PriceModel","numberOfBytes":"20"},"t_mapping(t_address,t_array(t_struct(Pool)306_storage)dyn_storage)":{"encoding":"mapping","key":"t_address","label":"mapping(address => struct InterestSwap.Pool[])","numberOfBytes":"32","value":"t_array(t_struct(Pool)306_storage)dyn_storage"},"t_mapping(t_address,t_bool)":{"encoding":"mapping","key":"t_address","label":"mapping(address => bool)","numberOfBytes":"32","value":"t_bool"},"t_mapping(t_address,t_mapping(t_uint256,t_mapping(t_address,t_bool)))":{"encoding":"mapping","key":"t_address","label":"mapping(address => mapping(uint256 => mapping(address => bool)))","numberOfBytes":"32","value":"t_mapping(t_uint256,t_mapping(t_address,t_bool))"},"t_mapping(t_uint256,t_mapping(t_address,t_bool))":{"encoding":"mapping","key":"t_uint256","label":"mapping(uint256 => mapping(address => bool))","numberOfBytes":"32","value":"t_mapping(t_address,t_bool)"},"t_struct(Pool)306_storage":{"encoding":"inplace","label":"struct InterestSwap.Pool","members":[{"astId":300,"contract":"src/InterestSwap.sol:InterestSwap","label":"acceptedTokens","offset":0,"slot":"0","type":"t_array(t_address)dyn_storage"},{"astId":302,"contract":"src/InterestSwap.sol:InterestSwap","label":"totalLiquidity","offset":0,"slot":"1","type":"t_uint256"},{"astId":305,"contract":"src/InterestSwap.sol:InterestSwap","label":"priceModel","offset":0,"slot":"2","type":"t_contract(PriceModel)921"}],"numberOfBytes":"96"},"t_uint256":{"encoding":"inplace","label":"uint256","numberOfBytes":"32"}}},"userdoc":{"errors":{"PRBMath__MulDivFixedPointOverflow(uint256)":[{"notice":"Emitted when the result overflows uint256."}]},"kind":"user","methods":{},"version":1}}}}