{"src/InterestSwap.sol":{"InterestSwap":{"abi":[{"inputs":[{"internalType":"address","name":"_priceFeed","type":"address"},{"internalType":"address","name":"_liquidityToken","type":"address"}],"stateMutability":"nonpayable","type":"constructor"},{"inputs":[{"internalType":"uint256","name":"prod1","type":"uint256"}],"name":"PRBMath__MulDivFixedPointOverflow","type":"error"},{"anonymous":false,"inputs":[{"indexed":true,"internalType":"address","name":"owner","type":"address"},{"indexed":false,"internalType":"address[]","name":"acceptedTokens","type":"address[]"},{"indexed":false,"internalType":"address","name":"priceModel","type":"address"},{"indexed":false,"internalType":"uint256","name":"totalLiquidity","type":"uint256"}],"name":"PoolCreated","type":"event"},{"inputs":[{"internalType":"address[]","name":"_acceptedTokens","type":"address[]"},{"internalType":"uint256","name":"_dailyFeePercentage","type":"uint256"},{"internalType":"uint256","name":"_initialLiquidity","type":"uint256"}],"name":"createPool","outputs":[{"internalType":"uint256","name":"","type":"uint256"},{"internalType":"address","name":"","type":"address"}],"stateMutability":"nonpayable","type":"function"},{"inputs":[{"internalType":"address","name":"_lp","type":"address"},{"internalType":"uint256","name":"_index","type":"uint256"}],"name":"getPool","outputs":[{"components":[{"internalType":"address[]","name":"acceptedTokens","type":"address[]"},{"internalType":"uint256","name":"totalLiquidity","type":"uint256"},{"internalType":"contract PriceModel","name":"priceModel","type":"address"}],"internalType":"struct InterestSwap.Pool","name":"","type":"tuple"}],"stateMutability":"view","type":"function"},{"inputs":[{"internalType":"address","name":"_lp","type":"address"}],"name":"getUserTotalPools","outputs":[{"internalType":"uint256","name":"","type":"uint256"}],"stateMutability":"view","type":"function"},{"inputs":[{"internalType":"address","name":"","type":"address"},{"internalType":"uint256","name":"","type":"uint256"},{"internalType":"address","name":"","type":"address"}],"name":"isAssetSupported","outputs":[{"internalType":"bool","name":"","type":"bool"}],"stateMutability":"view","type":"function"},{"inputs":[],"name":"liquidityToken","outputs":[{"internalType":"contract IERC20","name":"","type":"address"}],"stateMutability":"view","type":"function"},{"inputs":[],"name":"priceFeed","outputs":[{"internalType":"contract IPriceFeed","name":"","type":"address"}],"stateMutability":"view","type":"function"},{"inputs":[{"internalType":"uint256","name":"","type":"uint256"}],"name":"priceModels","outputs":[{"internalType":"address","name":"","type":"address"}],"stateMutability":"view","type":"function"},{"inputs":[{"internalType":"address","name":"_asset","type":"address"},{"internalType":"uint256","name":"_amount","type":"uint256"},{"internalType":"uint256","name":"_daysTerm","type":"uint256"},{"components":[{"internalType":"address","name":"poolOwner","type":"address"},{"internalType":"uint256","name":"poolIndex","type":"uint256"}],"internalType":"struct InterestSwap.Route","name":"route","type":"tuple"}],"name":"quote","outputs":[{"internalType":"uint256","name":"","type":"uint256"},{"internalType":"uint256","name":"","type":"uint256"},{"internalType":"uint256","name":"","type":"uint256"}],"stateMutability":"view","type":"function"},{"inputs":[{"internalType":"address","name":"_asset","type":"address"},{"internalType":"uint256","name":"_amount","type":"uint256"},{"internalType":"uint256","name":"_daysTerm","type":"uint256"},{"components":[{"internalType":"address","name":"poolOwner","type":"address"},{"internalType":"uint256","name":"poolIndex","type":"uint256"}],"internalType":"struct InterestSwap.Route","name":"route","type":"tuple"}],"name":"swap","outputs":[{"internalType":"uint256","name":"","type":"uint256"}],"stateMutability":"nonpayable","type":"function"}],"devdoc":{"kind":"dev","methods":{},"version":1},"evm":{"bytecode":{"linkReferences":{},"object":"60806040523480156200001157600080fd5b506040516200219d3803806200219d83398181016040528101906200003791906200012a565b816000806101000a81548173ffffffffffffffffffffffffffffffffffffffff021916908373ffffffffffffffffffffffffffffffffffffffff16021790555080600160006101000a81548173ffffffffffffffffffffffffffffffffffffffff021916908373ffffffffffffffffffffffffffffffffffffffff160217905550505062000171565b600080fd5b600073ffffffffffffffffffffffffffffffffffffffff82169050919050565b6000620000f282620000c5565b9050919050565b6200010481620000e5565b81146200011057600080fd5b50565b6000815190506200012481620000f9565b92915050565b60008060408385031215620001445762000143620000c0565b5b6000620001548582860162000113565b9250506020620001678582860162000113565b9150509250929050565b61201c80620001816000396000f3fe60806040523480156200001157600080fd5b5060043610620000a05760003560e01c8063574b529b116200006f578063574b529b146200016a5780635b5a630014620001a05780635b5b9ea214620001d65780636c61b615146200020c578063741bef1a146200024457620000a0565b80630658c48914620000a55780630a90d6ad14620000db578063387dd500146200011257806343cd8f7e1462000148575b600080fd5b620000c36004803603810190620000bd9190620011cf565b62000266565b604051620000d2919062001252565b60405180910390f35b620000f96004803603810190620000f391906200134f565b62000439565b60405162000109929190620013db565b60405180910390f35b6200013060048036038101906200012a919062001408565b62000796565b6040516200013f919062001252565b60405180910390f35b62000152620007e2565b604051620001619190620014a5565b60405180910390f35b620001886004803603810190620001829190620014c2565b62000808565b604051620001979190620014f4565b60405180910390f35b620001be6004803603810190620001b8919062001511565b62000848565b604051620001cd91906200158a565b60405180910390f35b620001f46004803603810190620001ee9190620015a7565b62000884565b60405162000203919062001748565b60405180910390f35b6200022a6004803603810190620002249190620011cf565b620009f3565b6040516200023b939291906200176c565b60405180910390f35b6200024e62000d4c565b6040516200025d9190620017ce565b60405180910390f35b6000806200027786868686620009f3565b925050508060026000856000015173ffffffffffffffffffffffffffffffffffffffff1673ffffffffffffffffffffffffffffffffffffffff168152602001908152602001600020846020015181548110620002d857620002d7620017eb565b5b90600052602060002090600302016001016000828254620002fa919062001849565b925050819055508573ffffffffffffffffffffffffffffffffffffffff166323b872dd3330886040518463ffffffff1660e01b8152600401620003409392919062001884565b6020604051808303816000875af115801562000360573d6000803e3d6000fd5b505050506040513d601f19601f82011682018060405250810190620003869190620018f2565b50600160009054906101000a900473ffffffffffffffffffffffffffffffffffffffff1673ffffffffffffffffffffffffffffffffffffffff1663a9059cbb33836040518363ffffffff1660e01b8152600401620003e692919062001924565b6020604051808303816000875af115801562000406573d6000803e3d6000fd5b505050506040513d601f19601f820116820180604052508101906200042c9190620018f2565b5080915050949350505050565b6000806000855190506000600260003373ffffffffffffffffffffffffffffffffffffffff1673ffffffffffffffffffffffffffffffffffffffff1681526020019081526020016000208054905090506000620004968762000d70565b9050600260003373ffffffffffffffffffffffffffffffffffffffff1673ffffffffffffffffffffffffffffffffffffffff16815260200190815260200160002060405180606001604052808a81526020018881526020018373ffffffffffffffffffffffffffffffffffffffff16815250908060018154018082558091505060019003906000526020600020906003020160009091909190915060008201518160000190805190602001906200054f92919062000f35565b506020820151816001015560408201518160020160006101000a81548173ffffffffffffffffffffffffffffffffffffffff021916908373ffffffffffffffffffffffffffffffffffffffff160217905550505060005b8381101562000688576001600360003373ffffffffffffffffffffffffffffffffffffffff1673ffffffffffffffffffffffffffffffffffffffff168152602001908152602001600020600085815260200190815260200160002060008b8481518110620006195762000618620017eb565b5b602002602001015173ffffffffffffffffffffffffffffffffffffffff1673ffffffffffffffffffffffffffffffffffffffff16815260200190815260200160002060006101000a81548160ff02191690831515021790555080806200067f9062001951565b915050620005a6565b50600160009054906101000a900473ffffffffffffffffffffffffffffffffffffffff1673ffffffffffffffffffffffffffffffffffffffff166323b872dd3330896040518463ffffffff1660e01b8152600401620006ea9392919062001884565b6020604051808303816000875af11580156200070a573d6000803e3d6000fd5b505050506040513d601f19601f82011682018060405250810190620007309190620018f2565b503373ffffffffffffffffffffffffffffffffffffffff167f91a1cd49a83a1d900c66ff806810753859aaceaf484951d6d544ded1b1d0ff688983896040516200077d9392919062001a19565b60405180910390a2818194509450505050935093915050565b6000600260008373ffffffffffffffffffffffffffffffffffffffff1673ffffffffffffffffffffffffffffffffffffffff168152602001908152602001600020805490509050919050565b600160009054906101000a900473ffffffffffffffffffffffffffffffffffffffff1681565b600481815481106200081957600080fd5b906000526020600020016000915054906101000a900473ffffffffffffffffffffffffffffffffffffffff1681565b6003602052826000526040600020602052816000526040600020602052806000526040600020600092509250509054906101000a900460ff1681565b6200088e62000fc4565b600260008473ffffffffffffffffffffffffffffffffffffffff1673ffffffffffffffffffffffffffffffffffffffff1681526020019081526020016000208281548110620008e257620008e1620017eb565b5b9060005260206000209060030201604051806060016040529081600082018054806020026020016040519081016040528092919081815260200182805480156200098257602002820191906000526020600020905b8160009054906101000a900473ffffffffffffffffffffffffffffffffffffffff1673ffffffffffffffffffffffffffffffffffffffff168152602001906001019080831162000937575b50505050508152602001600182015481526020016002820160009054906101000a900473ffffffffffffffffffffffffffffffffffffffff1673ffffffffffffffffffffffffffffffffffffffff1673ffffffffffffffffffffffffffffffffffffffff1681525050905092915050565b600080600060036000856000015173ffffffffffffffffffffffffffffffffffffffff1673ffffffffffffffffffffffffffffffffffffffff16815260200190815260200160002060008560200151815260200190815260200160002060008873ffffffffffffffffffffffffffffffffffffffff1673ffffffffffffffffffffffffffffffffffffffff16815260200190815260200160002060009054906101000a900460ff1662000add576040517f08c379a000000000000000000000000000000000000000000000000000000000815260040162000ad49062001abe565b60405180910390fd5b60008060009054906101000a900473ffffffffffffffffffffffffffffffffffffffff1673ffffffffffffffffffffffffffffffffffffffff1663b3596f07896040518263ffffffff1660e01b815260040162000b3b9190620014f4565b602060405180830381865afa15801562000b59573d6000803e3d6000fd5b505050506040513d601f19601f8201168201806040525081019062000b7f919062001af7565b9050600062000b98888362000e1a90919063ffffffff16565b9050600060026000886000015173ffffffffffffffffffffffffffffffffffffffff1673ffffffffffffffffffffffffffffffffffffffff16815260200190815260200160002087602001518154811062000bf85762000bf7620017eb565b5b90600052602060002090600302019050806001015482111562000c52576040517f08c379a000000000000000000000000000000000000000000000000000000000815260040162000c499062001b79565b60405180910390fd5b60008160020160009054906101000a900473ffffffffffffffffffffffffffffffffffffffff1673ffffffffffffffffffffffffffffffffffffffff1663315f1a418b8b6040518363ffffffff1660e01b815260040162000cb592919062001b9b565b602060405180830381865afa15801562000cd3573d6000803e3d6000fd5b505050506040513d601f19601f8201168201806040525081019062000cf9919062001af7565b90506000818b62000d0b919062001849565b9050600062000d3186848e62000d22919062001849565b62000e1a90919063ffffffff16565b90508282829850985098505050505050509450945094915050565b60008054906101000a900473ffffffffffffffffffffffffffffffffffffffff1681565b6000808260405162000d829062000ffb565b62000d8e919062001252565b604051809103906000f08015801562000dab573d6000803e3d6000fd5b5090506004819080600181540180825580915050600190039060005260206000200160009091909190916101000a81548173ffffffffffffffffffffffffffffffffffffffff021916908373ffffffffffffffffffffffffffffffffffffffff16021790555080915050919050565b600062000e28838362000e30565b905092915050565b60008060008019848609848602925082811083820303915050670de0b6b3a7640000811062000e9857806040517fd31b340200000000000000000000000000000000000000000000000000000000815260040162000e8f919062001252565b60405180910390fd5b600080670de0b6b3a764000086880991506706f05b59d3b1ffff821190506000830362000ee95780670de0b6b3a7640000858162000edb5762000eda62001bc8565b5b040194505050505062000f2f565b807faccb18165bd6fe31ae1cf318dc5b51eee0e1ba569b88cd74c1773b91fac1066960016204000080600003040186851186030262040000858803041702019450505050505b92915050565b82805482825590600052602060002090810192821562000fb1579160200282015b8281111562000fb05782518260006101000a81548173ffffffffffffffffffffffffffffffffffffffff021916908373ffffffffffffffffffffffffffffffffffffffff1602179055509160200191906001019062000f56565b5b50905062000fc0919062001009565b5090565b60405180606001604052806060815260200160008152602001600073ffffffffffffffffffffffffffffffffffffffff1681525090565b6103ef8062001bf883390190565b5b80821115620010245760008160009055506001016200100a565b5090565b6000604051905090565b600080fd5b600080fd5b600073ffffffffffffffffffffffffffffffffffffffff82169050919050565b600062001069826200103c565b9050919050565b6200107b816200105c565b81146200108757600080fd5b50565b6000813590506200109b8162001070565b92915050565b6000819050919050565b620010b681620010a1565b8114620010c257600080fd5b50565b600081359050620010d681620010ab565b92915050565b600080fd5b6000601f19601f8301169050919050565b7f4e487b7100000000000000000000000000000000000000000000000000000000600052604160045260246000fd5b6200112c82620010e1565b810181811067ffffffffffffffff821117156200114e576200114d620010f2565b5b80604052505050565b60006200116362001028565b905062001171828262001121565b919050565b6000604082840312156200118f576200118e620010dc565b5b6200119b604062001157565b90506000620011ad848285016200108a565b6000830152506020620011c384828501620010c5565b60208301525092915050565b60008060008060a08587031215620011ec57620011eb62001032565b5b6000620011fc878288016200108a565b94505060206200120f87828801620010c5565b93505060406200122287828801620010c5565b9250506060620012358782880162001176565b91505092959194509250565b6200124c81620010a1565b82525050565b600060208201905062001269600083018462001241565b92915050565b600080fd5b600067ffffffffffffffff821115620012925762001291620010f2565b5b602082029050602081019050919050565b600080fd5b6000620012bf620012b98462001274565b62001157565b90508083825260208201905060208402830185811115620012e557620012e4620012a3565b5b835b81811015620013125780620012fd88826200108a565b845260208401935050602081019050620012e7565b5050509392505050565b600082601f8301126200133457620013336200126f565b5b813562001346848260208601620012a8565b91505092915050565b6000806000606084860312156200136b576200136a62001032565b5b600084013567ffffffffffffffff8111156200138c576200138b62001037565b5b6200139a868287016200131c565b9350506020620013ad86828701620010c5565b9250506040620013c086828701620010c5565b9150509250925092565b620013d5816200105c565b82525050565b6000604082019050620013f2600083018562001241565b620014016020830184620013ca565b9392505050565b60006020828403121562001421576200142062001032565b5b600062001431848285016200108a565b91505092915050565b6000819050919050565b6000620014656200145f62001459846200103c565b6200143a565b6200103c565b9050919050565b6000620014798262001444565b9050919050565b60006200148d826200146c565b9050919050565b6200149f8162001480565b82525050565b6000602082019050620014bc600083018462001494565b92915050565b600060208284031215620014db57620014da62001032565b5b6000620014eb84828501620010c5565b91505092915050565b60006020820190506200150b6000830184620013ca565b92915050565b6000806000606084860312156200152d576200152c62001032565b5b60006200153d868287016200108a565b93505060206200155086828701620010c5565b925050604062001563868287016200108a565b9150509250925092565b60008115159050919050565b62001584816200156d565b82525050565b6000602082019050620015a1600083018462001579565b92915050565b60008060408385031215620015c157620015c062001032565b5b6000620015d1858286016200108a565b9250506020620015e485828601620010c5565b9150509250929050565b600081519050919050565b600082825260208201905092915050565b6000819050602082019050919050565b62001625816200105c565b82525050565b60006200163983836200161a565b60208301905092915050565b6000602082019050919050565b60006200165f82620015ee565b6200166b8185620015f9565b935062001678836200160a565b8060005b83811015620016af5781516200169388826200162b565b9750620016a08362001645565b9250506001810190506200167c565b5085935050505092915050565b620016c781620010a1565b82525050565b6000620016da826200146c565b9050919050565b620016ec81620016cd565b82525050565b6000606083016000830151848203600086015262001711828262001652565b9150506020830151620017286020860182620016bc565b5060408301516200173d6040860182620016e1565b508091505092915050565b60006020820190508181036000830152620017648184620016f2565b905092915050565b600060608201905062001783600083018662001241565b62001792602083018562001241565b620017a1604083018462001241565b949350505050565b6000620017b6826200146c565b9050919050565b620017c881620017a9565b82525050565b6000602082019050620017e56000830184620017bd565b92915050565b7f4e487b7100000000000000000000000000000000000000000000000000000000600052603260045260246000fd5b7f4e487b7100000000000000000000000000000000000000000000000000000000600052601160045260246000fd5b60006200185682620010a1565b91506200186383620010a1565b92508282039050818111156200187e576200187d6200181a565b5b92915050565b60006060820190506200189b6000830186620013ca565b620018aa6020830185620013ca565b620018b9604083018462001241565b949350505050565b620018cc816200156d565b8114620018d857600080fd5b50565b600081519050620018ec81620018c1565b92915050565b6000602082840312156200190b576200190a62001032565b5b60006200191b84828501620018db565b91505092915050565b60006040820190506200193b6000830185620013ca565b6200194a602083018462001241565b9392505050565b60006200195e82620010a1565b91507fffffffffffffffffffffffffffffffffffffffffffffffffffffffffffffffff82036200199357620019926200181a565b5b600182019050919050565b600082825260208201905092915050565b6000620019bc82620015ee565b620019c881856200199e565b9350620019d5836200160a565b8060005b8381101562001a0c578151620019f088826200162b565b9750620019fd8362001645565b925050600181019050620019d9565b5085935050505092915050565b6000606082019050818103600083015262001a358186620019af565b905062001a466020830185620013ca565b62001a55604083018462001241565b949350505050565b600082825260208201905092915050565b7f556e737570706f72746564206173736574000000000000000000000000000000600082015250565b600062001aa660118362001a5d565b915062001ab38262001a6e565b602082019050919050565b6000602082019050818103600083015262001ad98162001a97565b9050919050565b60008151905062001af181620010ab565b92915050565b60006020828403121562001b105762001b0f62001032565b5b600062001b208482850162001ae0565b91505092915050565b7f4e6f7420656e6f756768206c697175696469747920696e2074686520706f6f6c600082015250565b600062001b6160208362001a5d565b915062001b6e8262001b29565b602082019050919050565b6000602082019050818103600083015262001b948162001b52565b9050919050565b600060408201905062001bb2600083018562001241565b62001bc1602083018462001241565b9392505050565b7f4e487b7100000000000000000000000000000000000000000000000000000000600052601260045260246000fdfe608060405234801561001057600080fd5b506040516103ef3803806103ef8339818101604052810190610032919061007a565b80600081905550506100a7565b600080fd5b6000819050919050565b61005781610044565b811461006257600080fd5b50565b6000815190506100748161004e565b92915050565b6000602082840312156100905761008f61003f565b5b600061009e84828501610065565b91505092915050565b610339806100b66000396000f3fe608060405234801561001057600080fd5b50600436106100415760003560e01c806329fe619914610046578063315f1a41146100645780636683d37d14610094575b600080fd5b61004e6100b0565b60405161005b919061021b565b60405180910390f35b61007e60048036038101906100799190610267565b6100b6565b60405161008b919061021b565b60405180910390f35b6100ae60048036038101906100a991906102a7565b6100e7565b005b60005481565b60006100df826100d1600054866100f190919063ffffffff16565b6100f190919063ffffffff16565b905092915050565b8060008190555050565b60006100fd8383610105565b905092915050565b60008060008019848609848602925082811083820303915050670de0b6b3a7640000811061016a57806040517fd31b3402000000000000000000000000000000000000000000000000000000008152600401610161919061021b565b60405180910390fd5b600080670de0b6b3a764000086880991506706f05b59d3b1ffff82119050600083036101b65780670de0b6b3a764000085816101a9576101a86102d4565b5b04019450505050506101fc565b807faccb18165bd6fe31ae1cf318dc5b51eee0e1ba569b88cd74c1773b91fac1066960016204000080600003040186851186030262040000858803041702019450505050505b92915050565b6000819050919050565b61021581610202565b82525050565b6000602082019050610230600083018461020c565b92915050565b600080fd5b61024481610202565b811461024f57600080fd5b50565b6000813590506102618161023b565b92915050565b6000806040838503121561027e5761027d610236565b5b600061028c85828601610252565b925050602061029d85828601610252565b9150509250929050565b6000602082840312156102bd576102bc610236565b5b60006102cb84828501610252565b91505092915050565b7f4e487b7100000000000000000000000000000000000000000000000000000000600052601260045260246000fdfea2646970667358221220776930fcde403e4ac8f6484b30a5fcf07d73c0a336d7ad206fbf019d635170e164736f6c63430008110033a2646970667358221220496534be8680f296ceaa339a2cc64f5b37eb3be20550a8c311c6f34547aaab6664736f6c63430008110033","opcodes":"PUSH1 0x80 PUSH1 0x40 MSTORE CALLVALUE DUP1 ISZERO PUSH3 0x11 JUMPI PUSH1 0x0 DUP1 REVERT JUMPDEST POP PUSH1 0x40 MLOAD PUSH3 0x219D CODESIZE SUB DUP1 PUSH3 0x219D DUP4 CODECOPY DUP2 DUP2 ADD PUSH1 0x40 MSTORE DUP2 ADD SWAP1 PUSH3 0x37 SWAP2 SWAP1 PUSH3 0x12A JUMP JUMPDEST DUP2 PUSH1 0x0 DUP1 PUSH2 0x100 EXP DUP2 SLOAD DUP2 PUSH20 0xFFFFFFFFFFFFFFFFFFFFFFFFFFFFFFFFFFFFFFFF MUL NOT AND SWAP1 DUP4 PUSH20 0xFFFFFFFFFFFFFFFFFFFFFFFFFFFFFFFFFFFFFFFF AND MUL OR SWAP1 SSTORE POP DUP1 PUSH1 0x1 PUSH1 0x0 PUSH2 0x100 EXP DUP2 SLOAD DUP2 PUSH20 0xFFFFFFFFFFFFFFFFFFFFFFFFFFFFFFFFFFFFFFFF MUL NOT AND SWAP1 DUP4 PUSH20 0xFFFFFFFFFFFFFFFFFFFFFFFFFFFFFFFFFFFFFFFF AND MUL OR SWAP1 SSTORE POP POP POP PUSH3 0x171 JUMP JUMPDEST PUSH1 0x0 DUP1 REVERT JUMPDEST PUSH1 0x0 PUSH20 0xFFFFFFFFFFFFFFFFFFFFFFFFFFFFFFFFFFFFFFFF DUP3 AND SWAP1 POP SWAP2 SWAP1 POP JUMP JUMPDEST PUSH1 0x0 PUSH3 0xF2 DUP3 PUSH3 0xC5 JUMP JUMPDEST SWAP1 POP SWAP2 SWAP1 POP JUMP JUMPDEST PUSH3 0x104 DUP2 PUSH3 0xE5 JUMP JUMPDEST DUP2 EQ PUSH3 0x110 JUMPI PUSH1 0x0 DUP1 REVERT JUMPDEST POP JUMP JUMPDEST PUSH1 0x0 DUP2 MLOAD SWAP1 POP PUSH3 0x124 DUP2 PUSH3 0xF9 JUMP JUMPDEST SWAP3 SWAP2 POP POP JUMP JUMPDEST PUSH1 0x0 DUP1 PUSH1 0x40 DUP4 DUP6 SUB SLT ISZERO PUSH3 0x144 JUMPI PUSH3 0x143 PUSH3 0xC0 JUMP JUMPDEST JUMPDEST PUSH1 0x0 PUSH3 0x154 DUP6 DUP3 DUP7 ADD PUSH3 0x113 JUMP JUMPDEST SWAP3 POP POP PUSH1 0x20 PUSH3 0x167 DUP6 DUP3 DUP7 ADD PUSH3 0x113 JUMP JUMPDEST SWAP2 POP POP SWAP3 POP SWAP3 SWAP1 POP JUMP JUMPDEST PUSH2 0x201C DUP1 PUSH3 0x181 PUSH1 0x0 CODECOPY PUSH1 0x0 RETURN INVALID PUSH1 0x80 PUSH1 0x40 MSTORE CALLVALUE DUP1 ISZERO PUSH3 0x11 JUMPI PUSH1 0x0 DUP1 REVERT JUMPDEST POP PUSH1 0x4 CALLDATASIZE LT PUSH3 0xA0 JUMPI PUSH1 0x0 CALLDATALOAD PUSH1 0xE0 SHR DUP1 PUSH4 0x574B529B GT PUSH3 0x6F JUMPI DUP1 PUSH4 0x574B529B EQ PUSH3 0x16A JUMPI DUP1 PUSH4 0x5B5A6300 EQ PUSH3 0x1A0 JUMPI DUP1 PUSH4 0x5B5B9EA2 EQ PUSH3 0x1D6 JUMPI DUP1 PUSH4 0x6C61B615 EQ PUSH3 0x20C JUMPI DUP1 PUSH4 0x741BEF1A EQ PUSH3 0x244 JUMPI PUSH3 0xA0 JUMP JUMPDEST DUP1 PUSH4 0x658C489 EQ PUSH3 0xA5 JUMPI DUP1 PUSH4 0xA90D6AD EQ PUSH3 0xDB JUMPI DUP1 PUSH4 0x387DD500 EQ PUSH3 0x112 JUMPI DUP1 PUSH4 0x43CD8F7E EQ PUSH3 0x148 JUMPI JUMPDEST PUSH1 0x0 DUP1 REVERT JUMPDEST PUSH3 0xC3 PUSH1 0x4 DUP1 CALLDATASIZE SUB DUP2 ADD SWAP1 PUSH3 0xBD SWAP2 SWAP1 PUSH3 0x11CF JUMP JUMPDEST PUSH3 0x266 JUMP JUMPDEST PUSH1 0x40 MLOAD PUSH3 0xD2 SWAP2 SWAP1 PUSH3 0x1252 JUMP JUMPDEST PUSH1 0x40 MLOAD DUP1 SWAP2 SUB SWAP1 RETURN JUMPDEST PUSH3 0xF9 PUSH1 0x4 DUP1 CALLDATASIZE SUB DUP2 ADD SWAP1 PUSH3 0xF3 SWAP2 SWAP1 PUSH3 0x134F JUMP JUMPDEST PUSH3 0x439 JUMP JUMPDEST PUSH1 0x40 MLOAD PUSH3 0x109 SWAP3 SWAP2 SWAP1 PUSH3 0x13DB JUMP JUMPDEST PUSH1 0x40 MLOAD DUP1 SWAP2 SUB SWAP1 RETURN JUMPDEST PUSH3 0x130 PUSH1 0x4 DUP1 CALLDATASIZE SUB DUP2 ADD SWAP1 PUSH3 0x12A SWAP2 SWAP1 PUSH3 0x1408 JUMP JUMPDEST PUSH3 0x796 JUMP JUMPDEST PUSH1 0x40 MLOAD PUSH3 0x13F SWAP2 SWAP1 PUSH3 0x1252 JUMP JUMPDEST PUSH1 0x40 MLOAD DUP1 SWAP2 SUB SWAP1 RETURN JUMPDEST PUSH3 0x152 PUSH3 0x7E2 JUMP JUMPDEST PUSH1 0x40 MLOAD PUSH3 0x161 SWAP2 SWAP1 PUSH3 0x14A5 JUMP JUMPDEST PUSH1 0x40 MLOAD DUP1 SWAP2 SUB SWAP1 RETURN JUMPDEST PUSH3 0x188 PUSH1 0x4 DUP1 CALLDATASIZE SUB DUP2 ADD SWAP1 PUSH3 0x182 SWAP2 SWAP1 PUSH3 0x14C2 JUMP JUMPDEST PUSH3 0x808 JUMP JUMPDEST PUSH1 0x40 MLOAD PUSH3 0x197 SWAP2 SWAP1 PUSH3 0x14F4 JUMP JUMPDEST PUSH1 0x40 MLOAD DUP1 SWAP2 SUB SWAP1 RETURN JUMPDEST PUSH3 0x1BE PUSH1 0x4 DUP1 CALLDATASIZE SUB DUP2 ADD SWAP1 PUSH3 0x1B8 SWAP2 SWAP1 PUSH3 0x1511 JUMP JUMPDEST PUSH3 0x848 JUMP JUMPDEST PUSH1 0x40 MLOAD PUSH3 0x1CD SWAP2 SWAP1 PUSH3 0x158A JUMP JUMPDEST PUSH1 0x40 MLOAD DUP1 SWAP2 SUB SWAP1 RETURN JUMPDEST PUSH3 0x1F4 PUSH1 0x4 DUP1 CALLDATASIZE SUB DUP2 ADD SWAP1 PUSH3 0x1EE SWAP2 SWAP1 PUSH3 0x15A7 JUMP JUMPDEST PUSH3 0x884 JUMP JUMPDEST PUSH1 0x40 MLOAD PUSH3 0x203 SWAP2 SWAP1 PUSH3 0x1748 JUMP JUMPDEST PUSH1 0x40 MLOAD DUP1 SWAP2 SUB SWAP1 RETURN JUMPDEST PUSH3 0x22A PUSH1 0x4 DUP1 CALLDATASIZE SUB DUP2 ADD SWAP1 PUSH3 0x224 SWAP2 SWAP1 PUSH3 0x11CF JUMP JUMPDEST PUSH3 0x9F3 JUMP JUMPDEST PUSH1 0x40 MLOAD PUSH3 0x23B SWAP4 SWAP3 SWAP2 SWAP1 PUSH3 0x176C JUMP JUMPDEST PUSH1 0x40 MLOAD DUP1 SWAP2 SUB SWAP1 RETURN JUMPDEST PUSH3 0x24E PUSH3 0xD4C JUMP JUMPDEST PUSH1 0x40 MLOAD PUSH3 0x25D SWAP2 SWAP1 PUSH3 0x17CE JUMP JUMPDEST PUSH1 0x40 MLOAD DUP1 SWAP2 SUB SWAP1 RETURN JUMPDEST PUSH1 0x0 DUP1 PUSH3 0x277 DUP7 DUP7 DUP7 DUP7 PUSH3 0x9F3 JUMP JUMPDEST SWAP3 POP POP POP DUP1 PUSH1 0x2 PUSH1 0x0 DUP6 PUSH1 0x0 ADD MLOAD PUSH20 0xFFFFFFFFFFFFFFFFFFFFFFFFFFFFFFFFFFFFFFFF AND PUSH20 0xFFFFFFFFFFFFFFFFFFFFFFFFFFFFFFFFFFFFFFFF AND DUP2 MSTORE PUSH1 0x20 ADD SWAP1 DUP2 MSTORE PUSH1 0x20 ADD PUSH1 0x0 KECCAK256 DUP5 PUSH1 0x20 ADD MLOAD DUP2 SLOAD DUP2 LT PUSH3 0x2D8 JUMPI PUSH3 0x2D7 PUSH3 0x17EB JUMP JUMPDEST JUMPDEST SWAP1 PUSH1 0x0 MSTORE PUSH1 0x20 PUSH1 0x0 KECCAK256 SWAP1 PUSH1 0x3 MUL ADD PUSH1 0x1 ADD PUSH1 0x0 DUP3 DUP3 SLOAD PUSH3 0x2FA SWAP2 SWAP1 PUSH3 0x1849 JUMP JUMPDEST SWAP3 POP POP DUP2 SWAP1 SSTORE POP DUP6 PUSH20 0xFFFFFFFFFFFFFFFFFFFFFFFFFFFFFFFFFFFFFFFF AND PUSH4 0x23B872DD CALLER ADDRESS DUP9 PUSH1 0x40 MLOAD DUP5 PUSH4 0xFFFFFFFF AND PUSH1 0xE0 SHL DUP2 MSTORE PUSH1 0x4 ADD PUSH3 0x340 SWAP4 SWAP3 SWAP2 SWAP1 PUSH3 0x1884 JUMP JUMPDEST PUSH1 0x20 PUSH1 0x40 MLOAD DUP1 DUP4 SUB DUP2 PUSH1 0x0 DUP8 GAS CALL ISZERO DUP1 ISZERO PUSH3 0x360 JUMPI RETURNDATASIZE PUSH1 0x0 DUP1 RETURNDATACOPY RETURNDATASIZE PUSH1 0x0 REVERT JUMPDEST POP POP POP POP PUSH1 0x40 MLOAD RETURNDATASIZE PUSH1 0x1F NOT PUSH1 0x1F DUP3 ADD AND DUP3 ADD DUP1 PUSH1 0x40 MSTORE POP DUP2 ADD SWAP1 PUSH3 0x386 SWAP2 SWAP1 PUSH3 0x18F2 JUMP JUMPDEST POP PUSH1 0x1 PUSH1 0x0 SWAP1 SLOAD SWAP1 PUSH2 0x100 EXP SWAP1 DIV PUSH20 0xFFFFFFFFFFFFFFFFFFFFFFFFFFFFFFFFFFFFFFFF AND PUSH20 0xFFFFFFFFFFFFFFFFFFFFFFFFFFFFFFFFFFFFFFFF AND PUSH4 0xA9059CBB CALLER DUP4 PUSH1 0x40 MLOAD DUP4 PUSH4 0xFFFFFFFF AND PUSH1 0xE0 SHL DUP2 MSTORE PUSH1 0x4 ADD PUSH3 0x3E6 SWAP3 SWAP2 SWAP1 PUSH3 0x1924 JUMP JUMPDEST PUSH1 0x20 PUSH1 0x40 MLOAD DUP1 DUP4 SUB DUP2 PUSH1 0x0 DUP8 GAS CALL ISZERO DUP1 ISZERO PUSH3 0x406 JUMPI RETURNDATASIZE PUSH1 0x0 DUP1 RETURNDATACOPY RETURNDATASIZE PUSH1 0x0 REVERT JUMPDEST POP POP POP POP PUSH1 0x40 MLOAD RETURNDATASIZE PUSH1 0x1F NOT PUSH1 0x1F DUP3 ADD AND DUP3 ADD DUP1 PUSH1 0x40 MSTORE POP DUP2 ADD SWAP1 PUSH3 0x42C SWAP2 SWAP1 PUSH3 0x18F2 JUMP JUMPDEST POP DUP1 SWAP2 POP POP SWAP5 SWAP4 POP POP POP POP JUMP JUMPDEST PUSH1 0x0 DUP1 PUSH1 0x0 DUP6 MLOAD SWAP1 POP PUSH1 0x0 PUSH1 0x2 PUSH1 0x0 CALLER PUSH20 0xFFFFFFFFFFFFFFFFFFFFFFFFFFFFFFFFFFFFFFFF AND PUSH20 0xFFFFFFFFFFFFFFFFFFFFFFFFFFFFFFFFFFFFFFFF AND DUP2 MSTORE PUSH1 0x20 ADD SWAP1 DUP2 MSTORE PUSH1 0x20 ADD PUSH1 0x0 KECCAK256 DUP1 SLOAD SWAP1 POP SWAP1 POP PUSH1 0x0 PUSH3 0x496 DUP8 PUSH3 0xD70 JUMP JUMPDEST SWAP1 POP PUSH1 0x2 PUSH1 0x0 CALLER PUSH20 0xFFFFFFFFFFFFFFFFFFFFFFFFFFFFFFFFFFFFFFFF AND PUSH20 0xFFFFFFFFFFFFFFFFFFFFFFFFFFFFFFFFFFFFFFFF AND DUP2 MSTORE PUSH1 0x20 ADD SWAP1 DUP2 MSTORE PUSH1 0x20 ADD PUSH1 0x0 KECCAK256 PUSH1 0x40 MLOAD DUP1 PUSH1 0x60 ADD PUSH1 0x40 MSTORE DUP1 DUP11 DUP2 MSTORE PUSH1 0x20 ADD DUP9 DUP2 MSTORE PUSH1 0x20 ADD DUP4 PUSH20 0xFFFFFFFFFFFFFFFFFFFFFFFFFFFFFFFFFFFFFFFF AND DUP2 MSTORE POP SWAP1 DUP1 PUSH1 0x1 DUP2 SLOAD ADD DUP1 DUP3 SSTORE DUP1 SWAP2 POP POP PUSH1 0x1 SWAP1 SUB SWAP1 PUSH1 0x0 MSTORE PUSH1 0x20 PUSH1 0x0 KECCAK256 SWAP1 PUSH1 0x3 MUL ADD PUSH1 0x0 SWAP1 SWAP2 SWAP1 SWAP2 SWAP1 SWAP2 POP PUSH1 0x0 DUP3 ADD MLOAD DUP2 PUSH1 0x0 ADD SWAP1 DUP1 MLOAD SWAP1 PUSH1 0x20 ADD SWAP1 PUSH3 0x54F SWAP3 SWAP2 SWAP1 PUSH3 0xF35 JUMP JUMPDEST POP PUSH1 0x20 DUP3 ADD MLOAD DUP2 PUSH1 0x1 ADD SSTORE PUSH1 0x40 DUP3 ADD MLOAD DUP2 PUSH1 0x2 ADD PUSH1 0x0 PUSH2 0x100 EXP DUP2 SLOAD DUP2 PUSH20 0xFFFFFFFFFFFFFFFFFFFFFFFFFFFFFFFFFFFFFFFF MUL NOT AND SWAP1 DUP4 PUSH20 0xFFFFFFFFFFFFFFFFFFFFFFFFFFFFFFFFFFFFFFFF AND MUL OR SWAP1 SSTORE POP POP POP PUSH1 0x0 JUMPDEST DUP4 DUP2 LT ISZERO PUSH3 0x688 JUMPI PUSH1 0x1 PUSH1 0x3 PUSH1 0x0 CALLER PUSH20 0xFFFFFFFFFFFFFFFFFFFFFFFFFFFFFFFFFFFFFFFF AND PUSH20 0xFFFFFFFFFFFFFFFFFFFFFFFFFFFFFFFFFFFFFFFF AND DUP2 MSTORE PUSH1 0x20 ADD SWAP1 DUP2 MSTORE PUSH1 0x20 ADD PUSH1 0x0 KECCAK256 PUSH1 0x0 DUP6 DUP2 MSTORE PUSH1 0x20 ADD SWAP1 DUP2 MSTORE PUSH1 0x20 ADD PUSH1 0x0 KECCAK256 PUSH1 0x0 DUP12 DUP5 DUP2 MLOAD DUP2 LT PUSH3 0x619 JUMPI PUSH3 0x618 PUSH3 0x17EB JUMP JUMPDEST JUMPDEST PUSH1 0x20 MUL PUSH1 0x20 ADD ADD MLOAD PUSH20 0xFFFFFFFFFFFFFFFFFFFFFFFFFFFFFFFFFFFFFFFF AND PUSH20 0xFFFFFFFFFFFFFFFFFFFFFFFFFFFFFFFFFFFFFFFF AND DUP2 MSTORE PUSH1 0x20 ADD SWAP1 DUP2 MSTORE PUSH1 0x20 ADD PUSH1 0x0 KECCAK256 PUSH1 0x0 PUSH2 0x100 EXP DUP2 SLOAD DUP2 PUSH1 0xFF MUL NOT AND SWAP1 DUP4 ISZERO ISZERO MUL OR SWAP1 SSTORE POP DUP1 DUP1 PUSH3 0x67F SWAP1 PUSH3 0x1951 JUMP JUMPDEST SWAP2 POP POP PUSH3 0x5A6 JUMP JUMPDEST POP PUSH1 0x1 PUSH1 0x0 SWAP1 SLOAD SWAP1 PUSH2 0x100 EXP SWAP1 DIV PUSH20 0xFFFFFFFFFFFFFFFFFFFFFFFFFFFFFFFFFFFFFFFF AND PUSH20 0xFFFFFFFFFFFFFFFFFFFFFFFFFFFFFFFFFFFFFFFF AND PUSH4 0x23B872DD CALLER ADDRESS DUP10 PUSH1 0x40 MLOAD DUP5 PUSH4 0xFFFFFFFF AND PUSH1 0xE0 SHL DUP2 MSTORE PUSH1 0x4 ADD PUSH3 0x6EA SWAP4 SWAP3 SWAP2 SWAP1 PUSH3 0x1884 JUMP JUMPDEST PUSH1 0x20 PUSH1 0x40 MLOAD DUP1 DUP4 SUB DUP2 PUSH1 0x0 DUP8 GAS CALL ISZERO DUP1 ISZERO PUSH3 0x70A JUMPI RETURNDATASIZE PUSH1 0x0 DUP1 RETURNDATACOPY RETURNDATASIZE PUSH1 0x0 REVERT JUMPDEST POP POP POP POP PUSH1 0x40 MLOAD RETURNDATASIZE PUSH1 0x1F NOT PUSH1 0x1F DUP3 ADD AND DUP3 ADD DUP1 PUSH1 0x40 MSTORE POP DUP2 ADD SWAP1 PUSH3 0x730 SWAP2 SWAP1 PUSH3 0x18F2 JUMP JUMPDEST POP CALLER PUSH20 0xFFFFFFFFFFFFFFFFFFFFFFFFFFFFFFFFFFFFFFFF AND PUSH32 0x91A1CD49A83A1D900C66FF806810753859AACEAF484951D6D544DED1B1D0FF68 DUP10 DUP4 DUP10 PUSH1 0x40 MLOAD PUSH3 0x77D SWAP4 SWAP3 SWAP2 SWAP1 PUSH3 0x1A19 JUMP JUMPDEST PUSH1 0x40 MLOAD DUP1 SWAP2 SUB SWAP1 LOG2 DUP2 DUP2 SWAP5 POP SWAP5 POP POP POP POP SWAP4 POP SWAP4 SWAP2 POP POP JUMP JUMPDEST PUSH1 0x0 PUSH1 0x2 PUSH1 0x0 DUP4 PUSH20 0xFFFFFFFFFFFFFFFFFFFFFFFFFFFFFFFFFFFFFFFF AND PUSH20 0xFFFFFFFFFFFFFFFFFFFFFFFFFFFFFFFFFFFFFFFF AND DUP2 MSTORE PUSH1 0x20 ADD SWAP1 DUP2 MSTORE PUSH1 0x20 ADD PUSH1 0x0 KECCAK256 DUP1 SLOAD SWAP1 POP SWAP1 POP SWAP2 SWAP1 POP JUMP JUMPDEST PUSH1 0x1 PUSH1 0x0 SWAP1 SLOAD SWAP1 PUSH2 0x100 EXP SWAP1 DIV PUSH20 0xFFFFFFFFFFFFFFFFFFFFFFFFFFFFFFFFFFFFFFFF AND DUP2 JUMP JUMPDEST PUSH1 0x4 DUP2 DUP2 SLOAD DUP2 LT PUSH3 0x819 JUMPI PUSH1 0x0 DUP1 REVERT JUMPDEST SWAP1 PUSH1 0x0 MSTORE PUSH1 0x20 PUSH1 0x0 KECCAK256 ADD PUSH1 0x0 SWAP2 POP SLOAD SWAP1 PUSH2 0x100 EXP SWAP1 DIV PUSH20 0xFFFFFFFFFFFFFFFFFFFFFFFFFFFFFFFFFFFFFFFF AND DUP2 JUMP JUMPDEST PUSH1 0x3 PUSH1 0x20 MSTORE DUP3 PUSH1 0x0 MSTORE PUSH1 0x40 PUSH1 0x0 KECCAK256 PUSH1 0x20 MSTORE DUP2 PUSH1 0x0 MSTORE PUSH1 0x40 PUSH1 0x0 KECCAK256 PUSH1 0x20 MSTORE DUP1 PUSH1 0x0 MSTORE PUSH1 0x40 PUSH1 0x0 KECCAK256 PUSH1 0x0 SWAP3 POP SWAP3 POP POP SWAP1 SLOAD SWAP1 PUSH2 0x100 EXP SWAP1 DIV PUSH1 0xFF AND DUP2 JUMP JUMPDEST PUSH3 0x88E PUSH3 0xFC4 JUMP JUMPDEST PUSH1 0x2 PUSH1 0x0 DUP5 PUSH20 0xFFFFFFFFFFFFFFFFFFFFFFFFFFFFFFFFFFFFFFFF AND PUSH20 0xFFFFFFFFFFFFFFFFFFFFFFFFFFFFFFFFFFFFFFFF AND DUP2 MSTORE PUSH1 0x20 ADD SWAP1 DUP2 MSTORE PUSH1 0x20 ADD PUSH1 0x0 KECCAK256 DUP3 DUP2 SLOAD DUP2 LT PUSH3 0x8E2 JUMPI PUSH3 0x8E1 PUSH3 0x17EB JUMP JUMPDEST JUMPDEST SWAP1 PUSH1 0x0 MSTORE PUSH1 0x20 PUSH1 0x0 KECCAK256 SWAP1 PUSH1 0x3 MUL ADD PUSH1 0x40 MLOAD DUP1 PUSH1 0x60 ADD PUSH1 0x40 MSTORE SWAP1 DUP2 PUSH1 0x0 DUP3 ADD DUP1 SLOAD DUP1 PUSH1 0x20 MUL PUSH1 0x20 ADD PUSH1 0x40 MLOAD SWAP1 DUP2 ADD PUSH1 0x40 MSTORE DUP1 SWAP3 SWAP2 SWAP1 DUP2 DUP2 MSTORE PUSH1 0x20 ADD DUP3 DUP1 SLOAD DUP1 ISZERO PUSH3 0x982 JUMPI PUSH1 0x20 MUL DUP3 ADD SWAP2 SWAP1 PUSH1 0x0 MSTORE PUSH1 0x20 PUSH1 0x0 KECCAK256 SWAP1 JUMPDEST DUP2 PUSH1 0x0 SWAP1 SLOAD SWAP1 PUSH2 0x100 EXP SWAP1 DIV PUSH20 0xFFFFFFFFFFFFFFFFFFFFFFFFFFFFFFFFFFFFFFFF AND PUSH20 0xFFFFFFFFFFFFFFFFFFFFFFFFFFFFFFFFFFFFFFFF AND DUP2 MSTORE PUSH1 0x20 ADD SWAP1 PUSH1 0x1 ADD SWAP1 DUP1 DUP4 GT PUSH3 0x937 JUMPI JUMPDEST POP POP POP POP POP DUP2 MSTORE PUSH1 0x20 ADD PUSH1 0x1 DUP3 ADD SLOAD DUP2 MSTORE PUSH1 0x20 ADD PUSH1 0x2 DUP3 ADD PUSH1 0x0 SWAP1 SLOAD SWAP1 PUSH2 0x100 EXP SWAP1 DIV PUSH20 0xFFFFFFFFFFFFFFFFFFFFFFFFFFFFFFFFFFFFFFFF AND PUSH20 0xFFFFFFFFFFFFFFFFFFFFFFFFFFFFFFFFFFFFFFFF AND PUSH20 0xFFFFFFFFFFFFFFFFFFFFFFFFFFFFFFFFFFFFFFFF AND DUP2 MSTORE POP POP SWAP1 POP SWAP3 SWAP2 POP POP JUMP JUMPDEST PUSH1 0x0 DUP1 PUSH1 0x0 PUSH1 0x3 PUSH1 0x0 DUP6 PUSH1 0x0 ADD MLOAD PUSH20 0xFFFFFFFFFFFFFFFFFFFFFFFFFFFFFFFFFFFFFFFF AND PUSH20 0xFFFFFFFFFFFFFFFFFFFFFFFFFFFFFFFFFFFFFFFF AND DUP2 MSTORE PUSH1 0x20 ADD SWAP1 DUP2 MSTORE PUSH1 0x20 ADD PUSH1 0x0 KECCAK256 PUSH1 0x0 DUP6 PUSH1 0x20 ADD MLOAD DUP2 MSTORE PUSH1 0x20 ADD SWAP1 DUP2 MSTORE PUSH1 0x20 ADD PUSH1 0x0 KECCAK256 PUSH1 0x0 DUP9 PUSH20 0xFFFFFFFFFFFFFFFFFFFFFFFFFFFFFFFFFFFFFFFF AND PUSH20 0xFFFFFFFFFFFFFFFFFFFFFFFFFFFFFFFFFFFFFFFF AND DUP2 MSTORE PUSH1 0x20 ADD SWAP1 DUP2 MSTORE PUSH1 0x20 ADD PUSH1 0x0 KECCAK256 PUSH1 0x0 SWAP1 SLOAD SWAP1 PUSH2 0x100 EXP SWAP1 DIV PUSH1 0xFF AND PUSH3 0xADD JUMPI PUSH1 0x40 MLOAD PUSH32 0x8C379A000000000000000000000000000000000000000000000000000000000 DUP2 MSTORE PUSH1 0x4 ADD PUSH3 0xAD4 SWAP1 PUSH3 0x1ABE JUMP JUMPDEST PUSH1 0x40 MLOAD DUP1 SWAP2 SUB SWAP1 REVERT JUMPDEST PUSH1 0x0 DUP1 PUSH1 0x0 SWAP1 SLOAD SWAP1 PUSH2 0x100 EXP SWAP1 DIV PUSH20 0xFFFFFFFFFFFFFFFFFFFFFFFFFFFFFFFFFFFFFFFF AND PUSH20 0xFFFFFFFFFFFFFFFFFFFFFFFFFFFFFFFFFFFFFFFF AND PUSH4 0xB3596F07 DUP10 PUSH1 0x40 MLOAD DUP3 PUSH4 0xFFFFFFFF AND PUSH1 0xE0 SHL DUP2 MSTORE PUSH1 0x4 ADD PUSH3 0xB3B SWAP2 SWAP1 PUSH3 0x14F4 JUMP JUMPDEST PUSH1 0x20 PUSH1 0x40 MLOAD DUP1 DUP4 SUB DUP2 DUP7 GAS STATICCALL ISZERO DUP1 ISZERO PUSH3 0xB59 JUMPI RETURNDATASIZE PUSH1 0x0 DUP1 RETURNDATACOPY RETURNDATASIZE PUSH1 0x0 REVERT JUMPDEST POP POP POP POP PUSH1 0x40 MLOAD RETURNDATASIZE PUSH1 0x1F NOT PUSH1 0x1F DUP3 ADD AND DUP3 ADD DUP1 PUSH1 0x40 MSTORE POP DUP2 ADD SWAP1 PUSH3 0xB7F SWAP2 SWAP1 PUSH3 0x1AF7 JUMP JUMPDEST SWAP1 POP PUSH1 0x0 PUSH3 0xB98 DUP9 DUP4 PUSH3 0xE1A SWAP1 SWAP2 SWAP1 PUSH4 0xFFFFFFFF AND JUMP JUMPDEST SWAP1 POP PUSH1 0x0 PUSH1 0x2 PUSH1 0x0 DUP9 PUSH1 0x0 ADD MLOAD PUSH20 0xFFFFFFFFFFFFFFFFFFFFFFFFFFFFFFFFFFFFFFFF AND PUSH20 0xFFFFFFFFFFFFFFFFFFFFFFFFFFFFFFFFFFFFFFFF AND DUP2 MSTORE PUSH1 0x20 ADD SWAP1 DUP2 MSTORE PUSH1 0x20 ADD PUSH1 0x0 KECCAK256 DUP8 PUSH1 0x20 ADD MLOAD DUP2 SLOAD DUP2 LT PUSH3 0xBF8 JUMPI PUSH3 0xBF7 PUSH3 0x17EB JUMP JUMPDEST JUMPDEST SWAP1 PUSH1 0x0 MSTORE PUSH1 0x20 PUSH1 0x0 KECCAK256 SWAP1 PUSH1 0x3 MUL ADD SWAP1 POP DUP1 PUSH1 0x1 ADD SLOAD DUP3 GT ISZERO PUSH3 0xC52 JUMPI PUSH1 0x40 MLOAD PUSH32 0x8C379A000000000000000000000000000000000000000000000000000000000 DUP2 MSTORE PUSH1 0x4 ADD PUSH3 0xC49 SWAP1 PUSH3 0x1B79 JUMP JUMPDEST PUSH1 0x40 MLOAD DUP1 SWAP2 SUB SWAP1 REVERT JUMPDEST PUSH1 0x0 DUP2 PUSH1 0x2 ADD PUSH1 0x0 SWAP1 SLOAD SWAP1 PUSH2 0x100 EXP SWAP1 DIV PUSH20 0xFFFFFFFFFFFFFFFFFFFFFFFFFFFFFFFFFFFFFFFF AND PUSH20 0xFFFFFFFFFFFFFFFFFFFFFFFFFFFFFFFFFFFFFFFF AND PUSH4 0x315F1A41 DUP12 DUP12 PUSH1 0x40 MLOAD DUP4 PUSH4 0xFFFFFFFF AND PUSH1 0xE0 SHL DUP2 MSTORE PUSH1 0x4 ADD PUSH3 0xCB5 SWAP3 SWAP2 SWAP1 PUSH3 0x1B9B JUMP JUMPDEST PUSH1 0x20 PUSH1 0x40 MLOAD DUP1 DUP4 SUB DUP2 DUP7 GAS STATICCALL ISZERO DUP1 ISZERO PUSH3 0xCD3 JUMPI RETURNDATASIZE PUSH1 0x0 DUP1 RETURNDATACOPY RETURNDATASIZE PUSH1 0x0 REVERT JUMPDEST POP POP POP POP PUSH1 0x40 MLOAD RETURNDATASIZE PUSH1 0x1F NOT PUSH1 0x1F DUP3 ADD AND DUP3 ADD DUP1 PUSH1 0x40 MSTORE POP DUP2 ADD SWAP1 PUSH3 0xCF9 SWAP2 SWAP1 PUSH3 0x1AF7 JUMP JUMPDEST SWAP1 POP PUSH1 0x0 DUP2 DUP12 PUSH3 0xD0B SWAP2 SWAP1 PUSH3 0x1849 JUMP JUMPDEST SWAP1 POP PUSH1 0x0 PUSH3 0xD31 DUP7 DUP5 DUP15 PUSH3 0xD22 SWAP2 SWAP1 PUSH3 0x1849 JUMP JUMPDEST PUSH3 0xE1A SWAP1 SWAP2 SWAP1 PUSH4 0xFFFFFFFF AND JUMP JUMPDEST SWAP1 POP DUP3 DUP3 DUP3 SWAP9 POP SWAP9 POP SWAP9 POP POP POP POP POP POP POP SWAP5 POP SWAP5 POP SWAP5 SWAP2 POP POP JUMP JUMPDEST PUSH1 0x0 DUP1 SLOAD SWAP1 PUSH2 0x100 EXP SWAP1 DIV PUSH20 0xFFFFFFFFFFFFFFFFFFFFFFFFFFFFFFFFFFFFFFFF AND DUP2 JUMP JUMPDEST PUSH1 0x0 DUP1 DUP3 PUSH1 0x40 MLOAD PUSH3 0xD82 SWAP1 PUSH3 0xFFB JUMP JUMPDEST PUSH3 0xD8E SWAP2 SWAP1 PUSH3 0x1252 JUMP JUMPDEST PUSH1 0x40 MLOAD DUP1 SWAP2 SUB SWAP1 PUSH1 0x0 CREATE DUP1 ISZERO DUP1 ISZERO PUSH3 0xDAB JUMPI RETURNDATASIZE PUSH1 0x0 DUP1 RETURNDATACOPY RETURNDATASIZE PUSH1 0x0 REVERT JUMPDEST POP SWAP1 POP PUSH1 0x4 DUP2 SWAP1 DUP1 PUSH1 0x1 DUP2 SLOAD ADD DUP1 DUP3 SSTORE DUP1 SWAP2 POP POP PUSH1 0x1 SWAP1 SUB SWAP1 PUSH1 0x0 MSTORE PUSH1 0x20 PUSH1 0x0 KECCAK256 ADD PUSH1 0x0 SWAP1 SWAP2 SWAP1 SWAP2 SWAP1 SWAP2 PUSH2 0x100 EXP DUP2 SLOAD DUP2 PUSH20 0xFFFFFFFFFFFFFFFFFFFFFFFFFFFFFFFFFFFFFFFF MUL NOT AND SWAP1 DUP4 PUSH20 0xFFFFFFFFFFFFFFFFFFFFFFFFFFFFFFFFFFFFFFFF AND MUL OR SWAP1 SSTORE POP DUP1 SWAP2 POP POP SWAP2 SWAP1 POP JUMP JUMPDEST PUSH1 0x0 PUSH3 0xE28 DUP4 DUP4 PUSH3 0xE30 JUMP JUMPDEST SWAP1 POP SWAP3 SWAP2 POP POP JUMP JUMPDEST PUSH1 0x0 DUP1 PUSH1 0x0 DUP1 NOT DUP5 DUP7 MULMOD DUP5 DUP7 MUL SWAP3 POP DUP3 DUP2 LT DUP4 DUP3 SUB SUB SWAP2 POP POP PUSH8 0xDE0B6B3A7640000 DUP2 LT PUSH3 0xE98 JUMPI DUP1 PUSH1 0x40 MLOAD PUSH32 0xD31B340200000000000000000000000000000000000000000000000000000000 DUP2 MSTORE PUSH1 0x4 ADD PUSH3 0xE8F SWAP2 SWAP1 PUSH3 0x1252 JUMP JUMPDEST PUSH1 0x40 MLOAD DUP1 SWAP2 SUB SWAP1 REVERT JUMPDEST PUSH1 0x0 DUP1 PUSH8 0xDE0B6B3A7640000 DUP7 DUP9 MULMOD SWAP2 POP PUSH8 0x6F05B59D3B1FFFF DUP3 GT SWAP1 POP PUSH1 0x0 DUP4 SUB PUSH3 0xEE9 JUMPI DUP1 PUSH8 0xDE0B6B3A7640000 DUP6 DUP2 PUSH3 0xEDB JUMPI PUSH3 0xEDA PUSH3 0x1BC8 JUMP JUMPDEST JUMPDEST DIV ADD SWAP5 POP POP POP POP POP PUSH3 0xF2F JUMP JUMPDEST DUP1 PUSH32 0xACCB18165BD6FE31AE1CF318DC5B51EEE0E1BA569B88CD74C1773B91FAC10669 PUSH1 0x1 PUSH3 0x40000 DUP1 PUSH1 0x0 SUB DIV ADD DUP7 DUP6 GT DUP7 SUB MUL PUSH3 0x40000 DUP6 DUP9 SUB DIV OR MUL ADD SWAP5 POP POP POP POP POP JUMPDEST SWAP3 SWAP2 POP POP JUMP JUMPDEST DUP3 DUP1 SLOAD DUP3 DUP3 SSTORE SWAP1 PUSH1 0x0 MSTORE PUSH1 0x20 PUSH1 0x0 KECCAK256 SWAP1 DUP2 ADD SWAP3 DUP3 ISZERO PUSH3 0xFB1 JUMPI SWAP2 PUSH1 0x20 MUL DUP3 ADD JUMPDEST DUP3 DUP2 GT ISZERO PUSH3 0xFB0 JUMPI DUP3 MLOAD DUP3 PUSH1 0x0 PUSH2 0x100 EXP DUP2 SLOAD DUP2 PUSH20 0xFFFFFFFFFFFFFFFFFFFFFFFFFFFFFFFFFFFFFFFF MUL NOT AND SWAP1 DUP4 PUSH20 0xFFFFFFFFFFFFFFFFFFFFFFFFFFFFFFFFFFFFFFFF AND MUL OR SWAP1 SSTORE POP SWAP2 PUSH1 0x20 ADD SWAP2 SWAP1 PUSH1 0x1 ADD SWAP1 PUSH3 0xF56 JUMP JUMPDEST JUMPDEST POP SWAP1 POP PUSH3 0xFC0 SWAP2 SWAP1 PUSH3 0x1009 JUMP JUMPDEST POP SWAP1 JUMP JUMPDEST PUSH1 0x40 MLOAD DUP1 PUSH1 0x60 ADD PUSH1 0x40 MSTORE DUP1 PUSH1 0x60 DUP2 MSTORE PUSH1 0x20 ADD PUSH1 0x0 DUP2 MSTORE PUSH1 0x20 ADD PUSH1 0x0 PUSH20 0xFFFFFFFFFFFFFFFFFFFFFFFFFFFFFFFFFFFFFFFF AND DUP2 MSTORE POP SWAP1 JUMP JUMPDEST PUSH2 0x3EF DUP1 PUSH3 0x1BF8 DUP4 CODECOPY ADD SWAP1 JUMP JUMPDEST JUMPDEST DUP1 DUP3 GT ISZERO PUSH3 0x1024 JUMPI PUSH1 0x0 DUP2 PUSH1 0x0 SWAP1 SSTORE POP PUSH1 0x1 ADD PUSH3 0x100A JUMP JUMPDEST POP SWAP1 JUMP JUMPDEST PUSH1 0x0 PUSH1 0x40 MLOAD SWAP1 POP SWAP1 JUMP JUMPDEST PUSH1 0x0 DUP1 REVERT JUMPDEST PUSH1 0x0 DUP1 REVERT JUMPDEST PUSH1 0x0 PUSH20 0xFFFFFFFFFFFFFFFFFFFFFFFFFFFFFFFFFFFFFFFF DUP3 AND SWAP1 POP SWAP2 SWAP1 POP JUMP JUMPDEST PUSH1 0x0 PUSH3 0x1069 DUP3 PUSH3 0x103C JUMP JUMPDEST SWAP1 POP SWAP2 SWAP1 POP JUMP JUMPDEST PUSH3 0x107B DUP2 PUSH3 0x105C JUMP JUMPDEST DUP2 EQ PUSH3 0x1087 JUMPI PUSH1 0x0 DUP1 REVERT JUMPDEST POP JUMP JUMPDEST PUSH1 0x0 DUP2 CALLDATALOAD SWAP1 POP PUSH3 0x109B DUP2 PUSH3 0x1070 JUMP JUMPDEST SWAP3 SWAP2 POP POP JUMP JUMPDEST PUSH1 0x0 DUP2 SWAP1 POP SWAP2 SWAP1 POP JUMP JUMPDEST PUSH3 0x10B6 DUP2 PUSH3 0x10A1 JUMP JUMPDEST DUP2 EQ PUSH3 0x10C2 JUMPI PUSH1 0x0 DUP1 REVERT JUMPDEST POP JUMP JUMPDEST PUSH1 0x0 DUP2 CALLDATALOAD SWAP1 POP PUSH3 0x10D6 DUP2 PUSH3 0x10AB JUMP JUMPDEST SWAP3 SWAP2 POP POP JUMP JUMPDEST PUSH1 0x0 DUP1 REVERT JUMPDEST PUSH1 0x0 PUSH1 0x1F NOT PUSH1 0x1F DUP4 ADD AND SWAP1 POP SWAP2 SWAP1 POP JUMP JUMPDEST PUSH32 0x4E487B7100000000000000000000000000000000000000000000000000000000 PUSH1 0x0 MSTORE PUSH1 0x41 PUSH1 0x4 MSTORE PUSH1 0x24 PUSH1 0x0 REVERT JUMPDEST PUSH3 0x112C DUP3 PUSH3 0x10E1 JUMP JUMPDEST DUP2 ADD DUP2 DUP2 LT PUSH8 0xFFFFFFFFFFFFFFFF DUP3 GT OR ISZERO PUSH3 0x114E JUMPI PUSH3 0x114D PUSH3 0x10F2 JUMP JUMPDEST JUMPDEST DUP1 PUSH1 0x40 MSTORE POP POP POP JUMP JUMPDEST PUSH1 0x0 PUSH3 0x1163 PUSH3 0x1028 JUMP JUMPDEST SWAP1 POP PUSH3 0x1171 DUP3 DUP3 PUSH3 0x1121 JUMP JUMPDEST SWAP2 SWAP1 POP JUMP JUMPDEST PUSH1 0x0 PUSH1 0x40 DUP3 DUP5 SUB SLT ISZERO PUSH3 0x118F JUMPI PUSH3 0x118E PUSH3 0x10DC JUMP JUMPDEST JUMPDEST PUSH3 0x119B PUSH1 0x40 PUSH3 0x1157 JUMP JUMPDEST SWAP1 POP PUSH1 0x0 PUSH3 0x11AD DUP5 DUP3 DUP6 ADD PUSH3 0x108A JUMP JUMPDEST PUSH1 0x0 DUP4 ADD MSTORE POP PUSH1 0x20 PUSH3 0x11C3 DUP5 DUP3 DUP6 ADD PUSH3 0x10C5 JUMP JUMPDEST PUSH1 0x20 DUP4 ADD MSTORE POP SWAP3 SWAP2 POP POP JUMP JUMPDEST PUSH1 0x0 DUP1 PUSH1 0x0 DUP1 PUSH1 0xA0 DUP6 DUP8 SUB SLT ISZERO PUSH3 0x11EC JUMPI PUSH3 0x11EB PUSH3 0x1032 JUMP JUMPDEST JUMPDEST PUSH1 0x0 PUSH3 0x11FC DUP8 DUP3 DUP9 ADD PUSH3 0x108A JUMP JUMPDEST SWAP5 POP POP PUSH1 0x20 PUSH3 0x120F DUP8 DUP3 DUP9 ADD PUSH3 0x10C5 JUMP JUMPDEST SWAP4 POP POP PUSH1 0x40 PUSH3 0x1222 DUP8 DUP3 DUP9 ADD PUSH3 0x10C5 JUMP JUMPDEST SWAP3 POP POP PUSH1 0x60 PUSH3 0x1235 DUP8 DUP3 DUP9 ADD PUSH3 0x1176 JUMP JUMPDEST SWAP2 POP POP SWAP3 SWAP6 SWAP2 SWAP5 POP SWAP3 POP JUMP JUMPDEST PUSH3 0x124C DUP2 PUSH3 0x10A1 JUMP JUMPDEST DUP3 MSTORE POP POP JUMP JUMPDEST PUSH1 0x0 PUSH1 0x20 DUP3 ADD SWAP1 POP PUSH3 0x1269 PUSH1 0x0 DUP4 ADD DUP5 PUSH3 0x1241 JUMP JUMPDEST SWAP3 SWAP2 POP POP JUMP JUMPDEST PUSH1 0x0 DUP1 REVERT JUMPDEST PUSH1 0x0 PUSH8 0xFFFFFFFFFFFFFFFF DUP3 GT ISZERO PUSH3 0x1292 JUMPI PUSH3 0x1291 PUSH3 0x10F2 JUMP JUMPDEST JUMPDEST PUSH1 0x20 DUP3 MUL SWAP1 POP PUSH1 0x20 DUP2 ADD SWAP1 POP SWAP2 SWAP1 POP JUMP JUMPDEST PUSH1 0x0 DUP1 REVERT JUMPDEST PUSH1 0x0 PUSH3 0x12BF PUSH3 0x12B9 DUP5 PUSH3 0x1274 JUMP JUMPDEST PUSH3 0x1157 JUMP JUMPDEST SWAP1 POP DUP1 DUP4 DUP3 MSTORE PUSH1 0x20 DUP3 ADD SWAP1 POP PUSH1 0x20 DUP5 MUL DUP4 ADD DUP6 DUP2 GT ISZERO PUSH3 0x12E5 JUMPI PUSH3 0x12E4 PUSH3 0x12A3 JUMP JUMPDEST JUMPDEST DUP4 JUMPDEST DUP2 DUP2 LT ISZERO PUSH3 0x1312 JUMPI DUP1 PUSH3 0x12FD DUP9 DUP3 PUSH3 0x108A JUMP JUMPDEST DUP5 MSTORE PUSH1 0x20 DUP5 ADD SWAP4 POP POP PUSH1 0x20 DUP2 ADD SWAP1 POP PUSH3 0x12E7 JUMP JUMPDEST POP POP POP SWAP4 SWAP3 POP POP POP JUMP JUMPDEST PUSH1 0x0 DUP3 PUSH1 0x1F DUP4 ADD SLT PUSH3 0x1334 JUMPI PUSH3 0x1333 PUSH3 0x126F JUMP JUMPDEST JUMPDEST DUP2 CALLDATALOAD PUSH3 0x1346 DUP5 DUP3 PUSH1 0x20 DUP7 ADD PUSH3 0x12A8 JUMP JUMPDEST SWAP2 POP POP SWAP3 SWAP2 POP POP JUMP JUMPDEST PUSH1 0x0 DUP1 PUSH1 0x0 PUSH1 0x60 DUP5 DUP7 SUB SLT ISZERO PUSH3 0x136B JUMPI PUSH3 0x136A PUSH3 0x1032 JUMP JUMPDEST JUMPDEST PUSH1 0x0 DUP5 ADD CALLDATALOAD PUSH8 0xFFFFFFFFFFFFFFFF DUP2 GT ISZERO PUSH3 0x138C JUMPI PUSH3 0x138B PUSH3 0x1037 JUMP JUMPDEST JUMPDEST PUSH3 0x139A DUP7 DUP3 DUP8 ADD PUSH3 0x131C JUMP JUMPDEST SWAP4 POP POP PUSH1 0x20 PUSH3 0x13AD DUP7 DUP3 DUP8 ADD PUSH3 0x10C5 JUMP JUMPDEST SWAP3 POP POP PUSH1 0x40 PUSH3 0x13C0 DUP7 DUP3 DUP8 ADD PUSH3 0x10C5 JUMP JUMPDEST SWAP2 POP POP SWAP3 POP SWAP3 POP SWAP3 JUMP JUMPDEST PUSH3 0x13D5 DUP2 PUSH3 0x105C JUMP JUMPDEST DUP3 MSTORE POP POP JUMP JUMPDEST PUSH1 0x0 PUSH1 0x40 DUP3 ADD SWAP1 POP PUSH3 0x13F2 PUSH1 0x0 DUP4 ADD DUP6 PUSH3 0x1241 JUMP JUMPDEST PUSH3 0x1401 PUSH1 0x20 DUP4 ADD DUP5 PUSH3 0x13CA JUMP JUMPDEST SWAP4 SWAP3 POP POP POP JUMP JUMPDEST PUSH1 0x0 PUSH1 0x20 DUP3 DUP5 SUB SLT ISZERO PUSH3 0x1421 JUMPI PUSH3 0x1420 PUSH3 0x1032 JUMP JUMPDEST JUMPDEST PUSH1 0x0 PUSH3 0x1431 DUP5 DUP3 DUP6 ADD PUSH3 0x108A JUMP JUMPDEST SWAP2 POP POP SWAP3 SWAP2 POP POP JUMP JUMPDEST PUSH1 0x0 DUP2 SWAP1 POP SWAP2 SWAP1 POP JUMP JUMPDEST PUSH1 0x0 PUSH3 0x1465 PUSH3 0x145F PUSH3 0x1459 DUP5 PUSH3 0x103C JUMP JUMPDEST PUSH3 0x143A JUMP JUMPDEST PUSH3 0x103C JUMP JUMPDEST SWAP1 POP SWAP2 SWAP1 POP JUMP JUMPDEST PUSH1 0x0 PUSH3 0x1479 DUP3 PUSH3 0x1444 JUMP JUMPDEST SWAP1 POP SWAP2 SWAP1 POP JUMP JUMPDEST PUSH1 0x0 PUSH3 0x148D DUP3 PUSH3 0x146C JUMP JUMPDEST SWAP1 POP SWAP2 SWAP1 POP JUMP JUMPDEST PUSH3 0x149F DUP2 PUSH3 0x1480 JUMP JUMPDEST DUP3 MSTORE POP POP JUMP JUMPDEST PUSH1 0x0 PUSH1 0x20 DUP3 ADD SWAP1 POP PUSH3 0x14BC PUSH1 0x0 DUP4 ADD DUP5 PUSH3 0x1494 JUMP JUMPDEST SWAP3 SWAP2 POP POP JUMP JUMPDEST PUSH1 0x0 PUSH1 0x20 DUP3 DUP5 SUB SLT ISZERO PUSH3 0x14DB JUMPI PUSH3 0x14DA PUSH3 0x1032 JUMP JUMPDEST JUMPDEST PUSH1 0x0 PUSH3 0x14EB DUP5 DUP3 DUP6 ADD PUSH3 0x10C5 JUMP JUMPDEST SWAP2 POP POP SWAP3 SWAP2 POP POP JUMP JUMPDEST PUSH1 0x0 PUSH1 0x20 DUP3 ADD SWAP1 POP PUSH3 0x150B PUSH1 0x0 DUP4 ADD DUP5 PUSH3 0x13CA JUMP JUMPDEST SWAP3 SWAP2 POP POP JUMP JUMPDEST PUSH1 0x0 DUP1 PUSH1 0x0 PUSH1 0x60 DUP5 DUP7 SUB SLT ISZERO PUSH3 0x152D JUMPI PUSH3 0x152C PUSH3 0x1032 JUMP JUMPDEST JUMPDEST PUSH1 0x0 PUSH3 0x153D DUP7 DUP3 DUP8 ADD PUSH3 0x108A JUMP JUMPDEST SWAP4 POP POP PUSH1 0x20 PUSH3 0x1550 DUP7 DUP3 DUP8 ADD PUSH3 0x10C5 JUMP JUMPDEST SWAP3 POP POP PUSH1 0x40 PUSH3 0x1563 DUP7 DUP3 DUP8 ADD PUSH3 0x108A JUMP JUMPDEST SWAP2 POP POP SWAP3 POP SWAP3 POP SWAP3 JUMP JUMPDEST PUSH1 0x0 DUP2 ISZERO ISZERO SWAP1 POP SWAP2 SWAP1 POP JUMP JUMPDEST PUSH3 0x1584 DUP2 PUSH3 0x156D JUMP JUMPDEST DUP3 MSTORE POP POP JUMP JUMPDEST PUSH1 0x0 PUSH1 0x20 DUP3 ADD SWAP1 POP PUSH3 0x15A1 PUSH1 0x0 DUP4 ADD DUP5 PUSH3 0x1579 JUMP JUMPDEST SWAP3 SWAP2 POP POP JUMP JUMPDEST PUSH1 0x0 DUP1 PUSH1 0x40 DUP4 DUP6 SUB SLT ISZERO PUSH3 0x15C1 JUMPI PUSH3 0x15C0 PUSH3 0x1032 JUMP JUMPDEST JUMPDEST PUSH1 0x0 PUSH3 0x15D1 DUP6 DUP3 DUP7 ADD PUSH3 0x108A JUMP JUMPDEST SWAP3 POP POP PUSH1 0x20 PUSH3 0x15E4 DUP6 DUP3 DUP7 ADD PUSH3 0x10C5 JUMP JUMPDEST SWAP2 POP POP SWAP3 POP SWAP3 SWAP1 POP JUMP JUMPDEST PUSH1 0x0 DUP2 MLOAD SWAP1 POP SWAP2 SWAP1 POP JUMP JUMPDEST PUSH1 0x0 DUP3 DUP3 MSTORE PUSH1 0x20 DUP3 ADD SWAP1 POP SWAP3 SWAP2 POP POP JUMP JUMPDEST PUSH1 0x0 DUP2 SWAP1 POP PUSH1 0x20 DUP3 ADD SWAP1 POP SWAP2 SWAP1 POP JUMP JUMPDEST PUSH3 0x1625 DUP2 PUSH3 0x105C JUMP JUMPDEST DUP3 MSTORE POP POP JUMP JUMPDEST PUSH1 0x0 PUSH3 0x1639 DUP4 DUP4 PUSH3 0x161A JUMP JUMPDEST PUSH1 0x20 DUP4 ADD SWAP1 POP SWAP3 SWAP2 POP POP JUMP JUMPDEST PUSH1 0x0 PUSH1 0x20 DUP3 ADD SWAP1 POP SWAP2 SWAP1 POP JUMP JUMPDEST PUSH1 0x0 PUSH3 0x165F DUP3 PUSH3 0x15EE JUMP JUMPDEST PUSH3 0x166B DUP2 DUP6 PUSH3 0x15F9 JUMP JUMPDEST SWAP4 POP PUSH3 0x1678 DUP4 PUSH3 0x160A JUMP JUMPDEST DUP1 PUSH1 0x0 JUMPDEST DUP4 DUP2 LT ISZERO PUSH3 0x16AF JUMPI DUP2 MLOAD PUSH3 0x1693 DUP9 DUP3 PUSH3 0x162B JUMP JUMPDEST SWAP8 POP PUSH3 0x16A0 DUP4 PUSH3 0x1645 JUMP JUMPDEST SWAP3 POP POP PUSH1 0x1 DUP2 ADD SWAP1 POP PUSH3 0x167C JUMP JUMPDEST POP DUP6 SWAP4 POP POP POP POP SWAP3 SWAP2 POP POP JUMP JUMPDEST PUSH3 0x16C7 DUP2 PUSH3 0x10A1 JUMP JUMPDEST DUP3 MSTORE POP POP JUMP JUMPDEST PUSH1 0x0 PUSH3 0x16DA DUP3 PUSH3 0x146C JUMP JUMPDEST SWAP1 POP SWAP2 SWAP1 POP JUMP JUMPDEST PUSH3 0x16EC DUP2 PUSH3 0x16CD JUMP JUMPDEST DUP3 MSTORE POP POP JUMP JUMPDEST PUSH1 0x0 PUSH1 0x60 DUP4 ADD PUSH1 0x0 DUP4 ADD MLOAD DUP5 DUP3 SUB PUSH1 0x0 DUP7 ADD MSTORE PUSH3 0x1711 DUP3 DUP3 PUSH3 0x1652 JUMP JUMPDEST SWAP2 POP POP PUSH1 0x20 DUP4 ADD MLOAD PUSH3 0x1728 PUSH1 0x20 DUP7 ADD DUP3 PUSH3 0x16BC JUMP JUMPDEST POP PUSH1 0x40 DUP4 ADD MLOAD PUSH3 0x173D PUSH1 0x40 DUP7 ADD DUP3 PUSH3 0x16E1 JUMP JUMPDEST POP DUP1 SWAP2 POP POP SWAP3 SWAP2 POP POP JUMP JUMPDEST PUSH1 0x0 PUSH1 0x20 DUP3 ADD SWAP1 POP DUP2 DUP2 SUB PUSH1 0x0 DUP4 ADD MSTORE PUSH3 0x1764 DUP2 DUP5 PUSH3 0x16F2 JUMP JUMPDEST SWAP1 POP SWAP3 SWAP2 POP POP JUMP JUMPDEST PUSH1 0x0 PUSH1 0x60 DUP3 ADD SWAP1 POP PUSH3 0x1783 PUSH1 0x0 DUP4 ADD DUP7 PUSH3 0x1241 JUMP JUMPDEST PUSH3 0x1792 PUSH1 0x20 DUP4 ADD DUP6 PUSH3 0x1241 JUMP JUMPDEST PUSH3 0x17A1 PUSH1 0x40 DUP4 ADD DUP5 PUSH3 0x1241 JUMP JUMPDEST SWAP5 SWAP4 POP POP POP POP JUMP JUMPDEST PUSH1 0x0 PUSH3 0x17B6 DUP3 PUSH3 0x146C JUMP JUMPDEST SWAP1 POP SWAP2 SWAP1 POP JUMP JUMPDEST PUSH3 0x17C8 DUP2 PUSH3 0x17A9 JUMP JUMPDEST DUP3 MSTORE POP POP JUMP JUMPDEST PUSH1 0x0 PUSH1 0x20 DUP3 ADD SWAP1 POP PUSH3 0x17E5 PUSH1 0x0 DUP4 ADD DUP5 PUSH3 0x17BD JUMP JUMPDEST SWAP3 SWAP2 POP POP JUMP JUMPDEST PUSH32 0x4E487B7100000000000000000000000000000000000000000000000000000000 PUSH1 0x0 MSTORE PUSH1 0x32 PUSH1 0x4 MSTORE PUSH1 0x24 PUSH1 0x0 REVERT JUMPDEST PUSH32 0x4E487B7100000000000000000000000000000000000000000000000000000000 PUSH1 0x0 MSTORE PUSH1 0x11 PUSH1 0x4 MSTORE PUSH1 0x24 PUSH1 0x0 REVERT JUMPDEST PUSH1 0x0 PUSH3 0x1856 DUP3 PUSH3 0x10A1 JUMP JUMPDEST SWAP2 POP PUSH3 0x1863 DUP4 PUSH3 0x10A1 JUMP JUMPDEST SWAP3 POP DUP3 DUP3 SUB SWAP1 POP DUP2 DUP2 GT ISZERO PUSH3 0x187E JUMPI PUSH3 0x187D PUSH3 0x181A JUMP JUMPDEST JUMPDEST SWAP3 SWAP2 POP POP JUMP JUMPDEST PUSH1 0x0 PUSH1 0x60 DUP3 ADD SWAP1 POP PUSH3 0x189B PUSH1 0x0 DUP4 ADD DUP7 PUSH3 0x13CA JUMP JUMPDEST PUSH3 0x18AA PUSH1 0x20 DUP4 ADD DUP6 PUSH3 0x13CA JUMP JUMPDEST PUSH3 0x18B9 PUSH1 0x40 DUP4 ADD DUP5 PUSH3 0x1241 JUMP JUMPDEST SWAP5 SWAP4 POP POP POP POP JUMP JUMPDEST PUSH3 0x18CC DUP2 PUSH3 0x156D JUMP JUMPDEST DUP2 EQ PUSH3 0x18D8 JUMPI PUSH1 0x0 DUP1 REVERT JUMPDEST POP JUMP JUMPDEST PUSH1 0x0 DUP2 MLOAD SWAP1 POP PUSH3 0x18EC DUP2 PUSH3 0x18C1 JUMP JUMPDEST SWAP3 SWAP2 POP POP JUMP JUMPDEST PUSH1 0x0 PUSH1 0x20 DUP3 DUP5 SUB SLT ISZERO PUSH3 0x190B JUMPI PUSH3 0x190A PUSH3 0x1032 JUMP JUMPDEST JUMPDEST PUSH1 0x0 PUSH3 0x191B DUP5 DUP3 DUP6 ADD PUSH3 0x18DB JUMP JUMPDEST SWAP2 POP POP SWAP3 SWAP2 POP POP JUMP JUMPDEST PUSH1 0x0 PUSH1 0x40 DUP3 ADD SWAP1 POP PUSH3 0x193B PUSH1 0x0 DUP4 ADD DUP6 PUSH3 0x13CA JUMP JUMPDEST PUSH3 0x194A PUSH1 0x20 DUP4 ADD DUP5 PUSH3 0x1241 JUMP JUMPDEST SWAP4 SWAP3 POP POP POP JUMP JUMPDEST PUSH1 0x0 PUSH3 0x195E DUP3 PUSH3 0x10A1 JUMP JUMPDEST SWAP2 POP PUSH32 0xFFFFFFFFFFFFFFFFFFFFFFFFFFFFFFFFFFFFFFFFFFFFFFFFFFFFFFFFFFFFFFFF DUP3 SUB PUSH3 0x1993 JUMPI PUSH3 0x1992 PUSH3 0x181A JUMP JUMPDEST JUMPDEST PUSH1 0x1 DUP3 ADD SWAP1 POP SWAP2 SWAP1 POP JUMP JUMPDEST PUSH1 0x0 DUP3 DUP3 MSTORE PUSH1 0x20 DUP3 ADD SWAP1 POP SWAP3 SWAP2 POP POP JUMP JUMPDEST PUSH1 0x0 PUSH3 0x19BC DUP3 PUSH3 0x15EE JUMP JUMPDEST PUSH3 0x19C8 DUP2 DUP6 PUSH3 0x199E JUMP JUMPDEST SWAP4 POP PUSH3 0x19D5 DUP4 PUSH3 0x160A JUMP JUMPDEST DUP1 PUSH1 0x0 JUMPDEST DUP4 DUP2 LT ISZERO PUSH3 0x1A0C JUMPI DUP2 MLOAD PUSH3 0x19F0 DUP9 DUP3 PUSH3 0x162B JUMP JUMPDEST SWAP8 POP PUSH3 0x19FD DUP4 PUSH3 0x1645 JUMP JUMPDEST SWAP3 POP POP PUSH1 0x1 DUP2 ADD SWAP1 POP PUSH3 0x19D9 JUMP JUMPDEST POP DUP6 SWAP4 POP POP POP POP SWAP3 SWAP2 POP POP JUMP JUMPDEST PUSH1 0x0 PUSH1 0x60 DUP3 ADD SWAP1 POP DUP2 DUP2 SUB PUSH1 0x0 DUP4 ADD MSTORE PUSH3 0x1A35 DUP2 DUP7 PUSH3 0x19AF JUMP JUMPDEST SWAP1 POP PUSH3 0x1A46 PUSH1 0x20 DUP4 ADD DUP6 PUSH3 0x13CA JUMP JUMPDEST PUSH3 0x1A55 PUSH1 0x40 DUP4 ADD DUP5 PUSH3 0x1241 JUMP JUMPDEST SWAP5 SWAP4 POP POP POP POP JUMP JUMPDEST PUSH1 0x0 DUP3 DUP3 MSTORE PUSH1 0x20 DUP3 ADD SWAP1 POP SWAP3 SWAP2 POP POP JUMP JUMPDEST PUSH32 0x556E737570706F72746564206173736574000000000000000000000000000000 PUSH1 0x0 DUP3 ADD MSTORE POP JUMP JUMPDEST PUSH1 0x0 PUSH3 0x1AA6 PUSH1 0x11 DUP4 PUSH3 0x1A5D JUMP JUMPDEST SWAP2 POP PUSH3 0x1AB3 DUP3 PUSH3 0x1A6E JUMP JUMPDEST PUSH1 0x20 DUP3 ADD SWAP1 POP SWAP2 SWAP1 POP JUMP JUMPDEST PUSH1 0x0 PUSH1 0x20 DUP3 ADD SWAP1 POP DUP2 DUP2 SUB PUSH1 0x0 DUP4 ADD MSTORE PUSH3 0x1AD9 DUP2 PUSH3 0x1A97 JUMP JUMPDEST SWAP1 POP SWAP2 SWAP1 POP JUMP JUMPDEST PUSH1 0x0 DUP2 MLOAD SWAP1 POP PUSH3 0x1AF1 DUP2 PUSH3 0x10AB JUMP JUMPDEST SWAP3 SWAP2 POP POP JUMP JUMPDEST PUSH1 0x0 PUSH1 0x20 DUP3 DUP5 SUB SLT ISZERO PUSH3 0x1B10 JUMPI PUSH3 0x1B0F PUSH3 0x1032 JUMP JUMPDEST JUMPDEST PUSH1 0x0 PUSH3 0x1B20 DUP5 DUP3 DUP6 ADD PUSH3 0x1AE0 JUMP JUMPDEST SWAP2 POP POP SWAP3 SWAP2 POP POP JUMP JUMPDEST PUSH32 0x4E6F7420656E6F756768206C697175696469747920696E2074686520706F6F6C PUSH1 0x0 DUP3 ADD MSTORE POP JUMP JUMPDEST PUSH1 0x0 PUSH3 0x1B61 PUSH1 0x20 DUP4 PUSH3 0x1A5D JUMP JUMPDEST SWAP2 POP PUSH3 0x1B6E DUP3 PUSH3 0x1B29 JUMP JUMPDEST PUSH1 0x20 DUP3 ADD SWAP1 POP SWAP2 SWAP1 POP JUMP JUMPDEST PUSH1 0x0 PUSH1 0x20 DUP3 ADD SWAP1 POP DUP2 DUP2 SUB PUSH1 0x0 DUP4 ADD MSTORE PUSH3 0x1B94 DUP2 PUSH3 0x1B52 JUMP JUMPDEST SWAP1 POP SWAP2 SWAP1 POP JUMP JUMPDEST PUSH1 0x0 PUSH1 0x40 DUP3 ADD SWAP1 POP PUSH3 0x1BB2 PUSH1 0x0 DUP4 ADD DUP6 PUSH3 0x1241 JUMP JUMPDEST PUSH3 0x1BC1 PUSH1 0x20 DUP4 ADD DUP5 PUSH3 0x1241 JUMP JUMPDEST SWAP4 SWAP3 POP POP POP JUMP JUMPDEST PUSH32 0x4E487B7100000000000000000000000000000000000000000000000000000000 PUSH1 0x0 MSTORE PUSH1 0x12 PUSH1 0x4 MSTORE PUSH1 0x24 PUSH1 0x0 REVERT INVALID PUSH1 0x80 PUSH1 0x40 MSTORE CALLVALUE DUP1 ISZERO PUSH2 0x10 JUMPI PUSH1 0x0 DUP1 REVERT JUMPDEST POP PUSH1 0x40 MLOAD PUSH2 0x3EF CODESIZE SUB DUP1 PUSH2 0x3EF DUP4 CODECOPY DUP2 DUP2 ADD PUSH1 0x40 MSTORE DUP2 ADD SWAP1 PUSH2 0x32 SWAP2 SWAP1 PUSH2 0x7A JUMP JUMPDEST DUP1 PUSH1 0x0 DUP2 SWAP1 SSTORE POP POP PUSH2 0xA7 JUMP JUMPDEST PUSH1 0x0 DUP1 REVERT JUMPDEST PUSH1 0x0 DUP2 SWAP1 POP SWAP2 SWAP1 POP JUMP JUMPDEST PUSH2 0x57 DUP2 PUSH2 0x44 JUMP JUMPDEST DUP2 EQ PUSH2 0x62 JUMPI PUSH1 0x0 DUP1 REVERT JUMPDEST POP JUMP JUMPDEST PUSH1 0x0 DUP2 MLOAD SWAP1 POP PUSH2 0x74 DUP2 PUSH2 0x4E JUMP JUMPDEST SWAP3 SWAP2 POP POP JUMP JUMPDEST PUSH1 0x0 PUSH1 0x20 DUP3 DUP5 SUB SLT ISZERO PUSH2 0x90 JUMPI PUSH2 0x8F PUSH2 0x3F JUMP JUMPDEST JUMPDEST PUSH1 0x0 PUSH2 0x9E DUP5 DUP3 DUP6 ADD PUSH2 0x65 JUMP JUMPDEST SWAP2 POP POP SWAP3 SWAP2 POP POP JUMP JUMPDEST PUSH2 0x339 DUP1 PUSH2 0xB6 PUSH1 0x0 CODECOPY PUSH1 0x0 RETURN INVALID PUSH1 0x80 PUSH1 0x40 MSTORE CALLVALUE DUP1 ISZERO PUSH2 0x10 JUMPI PUSH1 0x0 DUP1 REVERT JUMPDEST POP PUSH1 0x4 CALLDATASIZE LT PUSH2 0x41 JUMPI PUSH1 0x0 CALLDATALOAD PUSH1 0xE0 SHR DUP1 PUSH4 0x29FE6199 EQ PUSH2 0x46 JUMPI DUP1 PUSH4 0x315F1A41 EQ PUSH2 0x64 JUMPI DUP1 PUSH4 0x6683D37D EQ PUSH2 0x94 JUMPI JUMPDEST PUSH1 0x0 DUP1 REVERT JUMPDEST PUSH2 0x4E PUSH2 0xB0 JUMP JUMPDEST PUSH1 0x40 MLOAD PUSH2 0x5B SWAP2 SWAP1 PUSH2 0x21B JUMP JUMPDEST PUSH1 0x40 MLOAD DUP1 SWAP2 SUB SWAP1 RETURN JUMPDEST PUSH2 0x7E PUSH1 0x4 DUP1 CALLDATASIZE SUB DUP2 ADD SWAP1 PUSH2 0x79 SWAP2 SWAP1 PUSH2 0x267 JUMP JUMPDEST PUSH2 0xB6 JUMP JUMPDEST PUSH1 0x40 MLOAD PUSH2 0x8B SWAP2 SWAP1 PUSH2 0x21B JUMP JUMPDEST PUSH1 0x40 MLOAD DUP1 SWAP2 SUB SWAP1 RETURN JUMPDEST PUSH2 0xAE PUSH1 0x4 DUP1 CALLDATASIZE SUB DUP2 ADD SWAP1 PUSH2 0xA9 SWAP2 SWAP1 PUSH2 0x2A7 JUMP JUMPDEST PUSH2 0xE7 JUMP JUMPDEST STOP JUMPDEST PUSH1 0x0 SLOAD DUP2 JUMP JUMPDEST PUSH1 0x0 PUSH2 0xDF DUP3 PUSH2 0xD1 PUSH1 0x0 SLOAD DUP7 PUSH2 0xF1 SWAP1 SWAP2 SWAP1 PUSH4 0xFFFFFFFF AND JUMP JUMPDEST PUSH2 0xF1 SWAP1 SWAP2 SWAP1 PUSH4 0xFFFFFFFF AND JUMP JUMPDEST SWAP1 POP SWAP3 SWAP2 POP POP JUMP JUMPDEST DUP1 PUSH1 0x0 DUP2 SWAP1 SSTORE POP POP JUMP JUMPDEST PUSH1 0x0 PUSH2 0xFD DUP4 DUP4 PUSH2 0x105 JUMP JUMPDEST SWAP1 POP SWAP3 SWAP2 POP POP JUMP JUMPDEST PUSH1 0x0 DUP1 PUSH1 0x0 DUP1 NOT DUP5 DUP7 MULMOD DUP5 DUP7 MUL SWAP3 POP DUP3 DUP2 LT DUP4 DUP3 SUB SUB SWAP2 POP POP PUSH8 0xDE0B6B3A7640000 DUP2 LT PUSH2 0x16A JUMPI DUP1 PUSH1 0x40 MLOAD PUSH32 0xD31B340200000000000000000000000000000000000000000000000000000000 DUP2 MSTORE PUSH1 0x4 ADD PUSH2 0x161 SWAP2 SWAP1 PUSH2 0x21B JUMP JUMPDEST PUSH1 0x40 MLOAD DUP1 SWAP2 SUB SWAP1 REVERT JUMPDEST PUSH1 0x0 DUP1 PUSH8 0xDE0B6B3A7640000 DUP7 DUP9 MULMOD SWAP2 POP PUSH8 0x6F05B59D3B1FFFF DUP3 GT SWAP1 POP PUSH1 0x0 DUP4 SUB PUSH2 0x1B6 JUMPI DUP1 PUSH8 0xDE0B6B3A7640000 DUP6 DUP2 PUSH2 0x1A9 JUMPI PUSH2 0x1A8 PUSH2 0x2D4 JUMP JUMPDEST JUMPDEST DIV ADD SWAP5 POP POP POP POP POP PUSH2 0x1FC JUMP JUMPDEST DUP1 PUSH32 0xACCB18165BD6FE31AE1CF318DC5B51EEE0E1BA569B88CD74C1773B91FAC10669 PUSH1 0x1 PUSH3 0x40000 DUP1 PUSH1 0x0 SUB DIV ADD DUP7 DUP6 GT DUP7 SUB MUL PUSH3 0x40000 DUP6 DUP9 SUB DIV OR MUL ADD SWAP5 POP POP POP POP POP JUMPDEST SWAP3 SWAP2 POP POP JUMP JUMPDEST PUSH1 0x0 DUP2 SWAP1 POP SWAP2 SWAP1 POP JUMP JUMPDEST PUSH2 0x215 DUP2 PUSH2 0x202 JUMP JUMPDEST DUP3 MSTORE POP POP JUMP JUMPDEST PUSH1 0x0 PUSH1 0x20 DUP3 ADD SWAP1 POP PUSH2 0x230 PUSH1 0x0 DUP4 ADD DUP5 PUSH2 0x20C JUMP JUMPDEST SWAP3 SWAP2 POP POP JUMP JUMPDEST PUSH1 0x0 DUP1 REVERT JUMPDEST PUSH2 0x244 DUP2 PUSH2 0x202 JUMP JUMPDEST DUP2 EQ PUSH2 0x24F JUMPI PUSH1 0x0 DUP1 REVERT JUMPDEST POP JUMP JUMPDEST PUSH1 0x0 DUP2 CALLDATALOAD SWAP1 POP PUSH2 0x261 DUP2 PUSH2 0x23B JUMP JUMPDEST SWAP3 SWAP2 POP POP JUMP JUMPDEST PUSH1 0x0 DUP1 PUSH1 0x40 DUP4 DUP6 SUB SLT ISZERO PUSH2 0x27E JUMPI PUSH2 0x27D PUSH2 0x236 JUMP JUMPDEST JUMPDEST PUSH1 0x0 PUSH2 0x28C DUP6 DUP3 DUP7 ADD PUSH2 0x252 JUMP JUMPDEST SWAP3 POP POP PUSH1 0x20 PUSH2 0x29D DUP6 DUP3 DUP7 ADD PUSH2 0x252 JUMP JUMPDEST SWAP2 POP POP SWAP3 POP SWAP3 SWAP1 POP JUMP JUMPDEST PUSH1 0x0 PUSH1 0x20 DUP3 DUP5 SUB SLT ISZERO PUSH2 0x2BD JUMPI PUSH2 0x2BC PUSH2 0x236 JUMP JUMPDEST JUMPDEST PUSH1 0x0 PUSH2 0x2CB DUP5 DUP3 DUP6 ADD PUSH2 0x252 JUMP JUMPDEST SWAP2 POP POP SWAP3 SWAP2 POP POP JUMP JUMPDEST PUSH32 0x4E487B7100000000000000000000000000000000000000000000000000000000 PUSH1 0x0 MSTORE PUSH1 0x12 PUSH1 0x4 MSTORE PUSH1 0x24 PUSH1 0x0 REVERT INVALID LOG2 PUSH5 0x6970667358 0x22 SLT KECCAK256 PUSH24 0x6930FCDE403E4AC8F6484B30A5FCF07D73C0A336D7AD206F 0xBF ADD SWAP14 PUSH4 0x5170E164 PUSH20 0x6F6C63430008110033A264697066735822122049 PUSH6 0x34BE8680F296 0xCE 0xAA CALLER SWAP11 0x2C 0xC6 0x4F JUMPDEST CALLDATACOPY 0xEB EXTCODESIZE 0xE2 SDIV POP 0xA8 0xC3 GT 0xC6 RETURN GASLIMIT SELFBALANCE 0xAA 0xAB PUSH7 0x64736F6C634300 ADDMOD GT STOP CALLER "},"gasEstimates":{"creation":{"codeDepositCost":"1644000","executionCost":"infinite","totalCost":"infinite"},"external":{"createPool(address[],uint256,uint256)":"infinite","getPool(address,uint256)":"infinite","getUserTotalPools(address)":"2894","isAssetSupported(address,uint256,address)":"infinite","liquidityToken()":"infinite","priceFeed()":"infinite","priceModels(uint256)":"4956","quote(address,uint256,uint256,(address,uint256))":"infinite","swap(address,uint256,uint256,(address,uint256))":"infinite"},"internal":{"createPriceModel(uint256)":"infinite"}},"methodIdentifiers":{"createPool(address[],uint256,uint256)":"0a90d6ad","getPool(address,uint256)":"5b5b9ea2","getUserTotalPools(address)":"387dd500","isAssetSupported(address,uint256,address)":"5b5a6300","liquidityToken()":"43cd8f7e","priceFeed()":"741bef1a","priceModels(uint256)":"574b529b","quote(address,uint256,uint256,(address,uint256))":"6c61b615","swap(address,uint256,uint256,(address,uint256))":"0658c489"}},"storageLayout":{"storage":[{"astId":294,"contract":"src/InterestSwap.sol:InterestSwap","label":"priceFeed","offset":0,"slot":"0","type":"t_contract(IPriceFeed)4080"},{"astId":297,"contract":"src/InterestSwap.sol:InterestSwap","label":"liquidityToken","offset":0,"slot":"1","type":"t_contract(IERC20)4061"},{"astId":317,"contract":"src/InterestSwap.sol:InterestSwap","label":"pools","offset":0,"slot":"2","type":"t_mapping(t_address,t_array(t_struct(Pool)306_storage)dyn_storage)"},{"astId":325,"contract":"src/InterestSwap.sol:InterestSwap","label":"isAssetSupported","offset":0,"slot":"3","type":"t_mapping(t_address,t_mapping(t_uint256,t_mapping(t_address,t_bool)))"},{"astId":328,"contract":"src/InterestSwap.sol:InterestSwap","label":"priceModels","offset":0,"slot":"4","type":"t_array(t_address)dyn_storage"}],"types":{"t_address":{"encoding":"inplace","label":"address","numberOfBytes":"20"},"t_array(t_address)dyn_storage":{"base":"t_address","encoding":"dynamic_array","label":"address[]","numberOfBytes":"32"},"t_array(t_struct(Pool)306_storage)dyn_storage":{"base":"t_struct(Pool)306_storage","encoding":"dynamic_array","label":"struct InterestSwap.Pool[]","numberOfBytes":"32"},"t_bool":{"encoding":"inplace","label":"bool","numberOfBytes":"1"},"t_contract(IERC20)4061":{"encoding":"inplace","label":"contract IERC20","numberOfBytes":"20"},"t_contract(IPriceFeed)4080":{"encoding":"inplace","label":"contract IPriceFeed","numberOfBytes":"20"},"t_contract(PriceModel)938":{"encoding":"inplace","label":"contract PriceModel","numberOfBytes":"20"},"t_mapping(t_address,t_array(t_struct(Pool)306_storage)dyn_storage)":{"encoding":"mapping","key":"t_address","label":"mapping(address => struct InterestSwap.Pool[])","numberOfBytes":"32","value":"t_array(t_struct(Pool)306_storage)dyn_storage"},"t_mapping(t_address,t_bool)":{"encoding":"mapping","key":"t_address","label":"mapping(address => bool)","numberOfBytes":"32","value":"t_bool"},"t_mapping(t_address,t_mapping(t_uint256,t_mapping(t_address,t_bool)))":{"encoding":"mapping","key":"t_address","label":"mapping(address => mapping(uint256 => mapping(address => bool)))","numberOfBytes":"32","value":"t_mapping(t_uint256,t_mapping(t_address,t_bool))"},"t_mapping(t_uint256,t_mapping(t_address,t_bool))":{"encoding":"mapping","key":"t_uint256","label":"mapping(uint256 => mapping(address => bool))","numberOfBytes":"32","value":"t_mapping(t_address,t_bool)"},"t_struct(Pool)306_storage":{"encoding":"inplace","label":"struct InterestSwap.Pool","members":[{"astId":300,"contract":"src/InterestSwap.sol:InterestSwap","label":"acceptedTokens","offset":0,"slot":"0","type":"t_array(t_address)dyn_storage"},{"astId":302,"contract":"src/InterestSwap.sol:InterestSwap","label":"totalLiquidity","offset":0,"slot":"1","type":"t_uint256"},{"astId":305,"contract":"src/InterestSwap.sol:InterestSwap","label":"priceModel","offset":0,"slot":"2","type":"t_contract(PriceModel)938"}],"numberOfBytes":"96"},"t_uint256":{"encoding":"inplace","label":"uint256","numberOfBytes":"32"}}},"userdoc":{"errors":{"PRBMath__MulDivFixedPointOverflow(uint256)":[{"notice":"Emitted when the result overflows uint256."}]},"kind":"user","methods":{},"version":1}}}}