{
  "_format": "hh-sol-artifact-1",
  "contractName": "InterestSwap",
  "sourceName": "src/InterestSwap.sol",
  "abi": [
    {
      "inputs": [
        {
          "internalType": "address",
          "name": "_priceFeed",
          "type": "address"
        },
        {
          "internalType": "address",
          "name": "_liquidityToken",
          "type": "address"
        }
      ],
      "stateMutability": "nonpayable",
      "type": "constructor"
    },
    {
      "inputs": [
        {
          "internalType": "uint256",
          "name": "prod1",
          "type": "uint256"
        }
      ],
      "name": "PRBMath__MulDivFixedPointOverflow",
      "type": "error"
    },
    {
      "anonymous": false,
      "inputs": [
        {
          "indexed": true,
          "internalType": "address",
          "name": "owner",
          "type": "address"
        },
        {
          "indexed": false,
          "internalType": "address[]",
          "name": "acceptedTokens",
          "type": "address[]"
        },
        {
          "indexed": false,
          "internalType": "address",
          "name": "priceModel",
          "type": "address"
        },
        {
          "indexed": false,
          "internalType": "uint256",
          "name": "totalLiquidity",
          "type": "uint256"
        }
      ],
      "name": "PoolCreated",
      "type": "event"
    },
    {
      "inputs": [
        {
          "internalType": "address[]",
          "name": "_acceptedTokens",
          "type": "address[]"
        },
        {
          "internalType": "uint256",
          "name": "_dailyFeePercentage",
          "type": "uint256"
        },
        {
          "internalType": "uint256",
          "name": "_initialLiquidity",
          "type": "uint256"
        }
      ],
      "name": "createPool",
      "outputs": [
        {
          "internalType": "uint256",
          "name": "",
          "type": "uint256"
        },
        {
          "internalType": "address",
          "name": "",
          "type": "address"
        }
      ],
      "stateMutability": "nonpayable",
      "type": "function"
    },
    {
      "inputs": [
        {
          "internalType": "address",
          "name": "_lp",
          "type": "address"
        },
        {
          "internalType": "uint256",
          "name": "_index",
          "type": "uint256"
        }
      ],
      "name": "getPool",
      "outputs": [
        {
          "components": [
            {
              "internalType": "address[]",
              "name": "acceptedTokens",
              "type": "address[]"
            },
            {
              "internalType": "uint256",
              "name": "totalLiquidity",
              "type": "uint256"
            },
            {
              "internalType": "contract PriceModel",
              "name": "priceModel",
              "type": "address"
            }
          ],
          "internalType": "struct InterestSwap.Pool",
          "name": "",
          "type": "tuple"
        }
      ],
      "stateMutability": "view",
      "type": "function"
    },
    {
      "inputs": [
        {
          "internalType": "address",
          "name": "_lp",
          "type": "address"
        }
      ],
      "name": "getUserTotalPools",
      "outputs": [
        {
          "internalType": "uint256",
          "name": "",
          "type": "uint256"
        }
      ],
      "stateMutability": "view",
      "type": "function"
    },
    {
      "inputs": [
        {
          "internalType": "address",
          "name": "",
          "type": "address"
        },
        {
          "internalType": "uint256",
          "name": "",
          "type": "uint256"
        },
        {
          "internalType": "address",
          "name": "",
          "type": "address"
        }
      ],
      "name": "isAssetSupported",
      "outputs": [
        {
          "internalType": "bool",
          "name": "",
          "type": "bool"
        }
      ],
      "stateMutability": "view",
      "type": "function"
    },
    {
      "inputs": [],
      "name": "liquidityToken",
      "outputs": [
        {
          "internalType": "contract IERC20",
          "name": "",
          "type": "address"
        }
      ],
      "stateMutability": "view",
      "type": "function"
    },
    {
      "inputs": [],
      "name": "priceFeed",
      "outputs": [
        {
          "internalType": "contract IPriceFeed",
          "name": "",
          "type": "address"
        }
      ],
      "stateMutability": "view",
      "type": "function"
    },
    {
      "inputs": [
        {
          "internalType": "uint256",
          "name": "",
          "type": "uint256"
        }
      ],
      "name": "priceModels",
      "outputs": [
        {
          "internalType": "address",
          "name": "",
          "type": "address"
        }
      ],
      "stateMutability": "view",
      "type": "function"
    },
    {
      "inputs": [
        {
          "internalType": "address",
          "name": "_asset",
          "type": "address"
        },
        {
          "internalType": "uint256",
          "name": "_amount",
          "type": "uint256"
        },
        {
          "internalType": "uint256",
          "name": "_daysTerm",
          "type": "uint256"
        },
        {
          "components": [
            {
              "internalType": "address",
              "name": "poolOwner",
              "type": "address"
            },
            {
              "internalType": "uint256",
              "name": "poolIndex",
              "type": "uint256"
            }
          ],
          "internalType": "struct InterestSwap.Route",
          "name": "route",
          "type": "tuple"
        }
      ],
      "name": "quote",
      "outputs": [
        {
          "internalType": "uint256",
          "name": "",
          "type": "uint256"
        },
        {
          "internalType": "uint256",
          "name": "",
          "type": "uint256"
        },
        {
          "internalType": "uint256",
          "name": "",
          "type": "uint256"
        }
      ],
      "stateMutability": "view",
      "type": "function"
    },
    {
      "inputs": [
        {
          "internalType": "address",
          "name": "_asset",
          "type": "address"
        },
        {
          "internalType": "uint256",
          "name": "_amount",
          "type": "uint256"
        },
        {
          "internalType": "uint256",
          "name": "_daysTerm",
          "type": "uint256"
        },
        {
          "components": [
            {
              "internalType": "address",
              "name": "poolOwner",
              "type": "address"
            },
            {
              "internalType": "uint256",
              "name": "poolIndex",
              "type": "uint256"
            }
          ],
          "internalType": "struct InterestSwap.Route",
          "name": "route",
          "type": "tuple"
        }
      ],
      "name": "swap",
      "outputs": [
        {
          "internalType": "uint256",
          "name": "",
          "type": "uint256"
        }
      ],
      "stateMutability": "nonpayable",
      "type": "function"
    }
  ],
  "bytecode": "0x60806040523480156200001157600080fd5b506040516200219d3803806200219d83398181016040528101906200003791906200012a565b816000806101000a81548173ffffffffffffffffffffffffffffffffffffffff021916908373ffffffffffffffffffffffffffffffffffffffff16021790555080600160006101000a81548173ffffffffffffffffffffffffffffffffffffffff021916908373ffffffffffffffffffffffffffffffffffffffff160217905550505062000171565b600080fd5b600073ffffffffffffffffffffffffffffffffffffffff82169050919050565b6000620000f282620000c5565b9050919050565b6200010481620000e5565b81146200011057600080fd5b50565b6000815190506200012481620000f9565b92915050565b60008060408385031215620001445762000143620000c0565b5b6000620001548582860162000113565b9250506020620001678582860162000113565b9150509250929050565b61201c80620001816000396000f3fe60806040523480156200001157600080fd5b5060043610620000a05760003560e01c8063574b529b116200006f578063574b529b146200016a5780635b5a630014620001a05780635b5b9ea214620001d65780636c61b615146200020c578063741bef1a146200024457620000a0565b80630658c48914620000a55780630a90d6ad14620000db578063387dd500146200011257806343cd8f7e1462000148575b600080fd5b620000c36004803603810190620000bd9190620011cf565b62000266565b604051620000d2919062001252565b60405180910390f35b620000f96004803603810190620000f391906200134f565b62000439565b60405162000109929190620013db565b60405180910390f35b6200013060048036038101906200012a919062001408565b62000796565b6040516200013f919062001252565b60405180910390f35b62000152620007e2565b604051620001619190620014a5565b60405180910390f35b620001886004803603810190620001829190620014c2565b62000808565b604051620001979190620014f4565b60405180910390f35b620001be6004803603810190620001b8919062001511565b62000848565b604051620001cd91906200158a565b60405180910390f35b620001f46004803603810190620001ee9190620015a7565b62000884565b60405162000203919062001748565b60405180910390f35b6200022a6004803603810190620002249190620011cf565b620009f3565b6040516200023b939291906200176c565b60405180910390f35b6200024e62000d4c565b6040516200025d9190620017ce565b60405180910390f35b6000806200027786868686620009f3565b925050508060026000856000015173ffffffffffffffffffffffffffffffffffffffff1673ffffffffffffffffffffffffffffffffffffffff168152602001908152602001600020846020015181548110620002d857620002d7620017eb565b5b90600052602060002090600302016001016000828254620002fa919062001849565b925050819055508573ffffffffffffffffffffffffffffffffffffffff166323b872dd3330886040518463ffffffff1660e01b8152600401620003409392919062001884565b6020604051808303816000875af115801562000360573d6000803e3d6000fd5b505050506040513d601f19601f82011682018060405250810190620003869190620018f2565b50600160009054906101000a900473ffffffffffffffffffffffffffffffffffffffff1673ffffffffffffffffffffffffffffffffffffffff1663a9059cbb33836040518363ffffffff1660e01b8152600401620003e692919062001924565b6020604051808303816000875af115801562000406573d6000803e3d6000fd5b505050506040513d601f19601f820116820180604052508101906200042c9190620018f2565b5080915050949350505050565b6000806000855190506000600260003373ffffffffffffffffffffffffffffffffffffffff1673ffffffffffffffffffffffffffffffffffffffff1681526020019081526020016000208054905090506000620004968762000d70565b9050600260003373ffffffffffffffffffffffffffffffffffffffff1673ffffffffffffffffffffffffffffffffffffffff16815260200190815260200160002060405180606001604052808a81526020018881526020018373ffffffffffffffffffffffffffffffffffffffff16815250908060018154018082558091505060019003906000526020600020906003020160009091909190915060008201518160000190805190602001906200054f92919062000f35565b506020820151816001015560408201518160020160006101000a81548173ffffffffffffffffffffffffffffffffffffffff021916908373ffffffffffffffffffffffffffffffffffffffff160217905550505060005b8381101562000688576001600360003373ffffffffffffffffffffffffffffffffffffffff1673ffffffffffffffffffffffffffffffffffffffff168152602001908152602001600020600085815260200190815260200160002060008b8481518110620006195762000618620017eb565b5b602002602001015173ffffffffffffffffffffffffffffffffffffffff1673ffffffffffffffffffffffffffffffffffffffff16815260200190815260200160002060006101000a81548160ff02191690831515021790555080806200067f9062001951565b915050620005a6565b50600160009054906101000a900473ffffffffffffffffffffffffffffffffffffffff1673ffffffffffffffffffffffffffffffffffffffff166323b872dd3330896040518463ffffffff1660e01b8152600401620006ea9392919062001884565b6020604051808303816000875af11580156200070a573d6000803e3d6000fd5b505050506040513d601f19601f82011682018060405250810190620007309190620018f2565b503373ffffffffffffffffffffffffffffffffffffffff167f91a1cd49a83a1d900c66ff806810753859aaceaf484951d6d544ded1b1d0ff688983896040516200077d9392919062001a19565b60405180910390a2818194509450505050935093915050565b6000600260008373ffffffffffffffffffffffffffffffffffffffff1673ffffffffffffffffffffffffffffffffffffffff168152602001908152602001600020805490509050919050565b600160009054906101000a900473ffffffffffffffffffffffffffffffffffffffff1681565b600481815481106200081957600080fd5b906000526020600020016000915054906101000a900473ffffffffffffffffffffffffffffffffffffffff1681565b6003602052826000526040600020602052816000526040600020602052806000526040600020600092509250509054906101000a900460ff1681565b6200088e62000fc4565b600260008473ffffffffffffffffffffffffffffffffffffffff1673ffffffffffffffffffffffffffffffffffffffff1681526020019081526020016000208281548110620008e257620008e1620017eb565b5b9060005260206000209060030201604051806060016040529081600082018054806020026020016040519081016040528092919081815260200182805480156200098257602002820191906000526020600020905b8160009054906101000a900473ffffffffffffffffffffffffffffffffffffffff1673ffffffffffffffffffffffffffffffffffffffff168152602001906001019080831162000937575b50505050508152602001600182015481526020016002820160009054906101000a900473ffffffffffffffffffffffffffffffffffffffff1673ffffffffffffffffffffffffffffffffffffffff1673ffffffffffffffffffffffffffffffffffffffff1681525050905092915050565b600080600060036000856000015173ffffffffffffffffffffffffffffffffffffffff1673ffffffffffffffffffffffffffffffffffffffff16815260200190815260200160002060008560200151815260200190815260200160002060008873ffffffffffffffffffffffffffffffffffffffff1673ffffffffffffffffffffffffffffffffffffffff16815260200190815260200160002060009054906101000a900460ff1662000add576040517f08c379a000000000000000000000000000000000000000000000000000000000815260040162000ad49062001abe565b60405180910390fd5b60008060009054906101000a900473ffffffffffffffffffffffffffffffffffffffff1673ffffffffffffffffffffffffffffffffffffffff1663b3596f07896040518263ffffffff1660e01b815260040162000b3b9190620014f4565b602060405180830381865afa15801562000b59573d6000803e3d6000fd5b505050506040513d601f19601f8201168201806040525081019062000b7f919062001af7565b9050600062000b98888362000e1a90919063ffffffff16565b9050600060026000886000015173ffffffffffffffffffffffffffffffffffffffff1673ffffffffffffffffffffffffffffffffffffffff16815260200190815260200160002087602001518154811062000bf85762000bf7620017eb565b5b90600052602060002090600302019050806001015482111562000c52576040517f08c379a000000000000000000000000000000000000000000000000000000000815260040162000c499062001b79565b60405180910390fd5b60008160020160009054906101000a900473ffffffffffffffffffffffffffffffffffffffff1673ffffffffffffffffffffffffffffffffffffffff1663315f1a418b8b6040518363ffffffff1660e01b815260040162000cb592919062001b9b565b602060405180830381865afa15801562000cd3573d6000803e3d6000fd5b505050506040513d601f19601f8201168201806040525081019062000cf9919062001af7565b90506000818b62000d0b919062001849565b9050600062000d3186848e62000d22919062001849565b62000e1a90919063ffffffff16565b90508282829850985098505050505050509450945094915050565b60008054906101000a900473ffffffffffffffffffffffffffffffffffffffff1681565b6000808260405162000d829062000ffb565b62000d8e919062001252565b604051809103906000f08015801562000dab573d6000803e3d6000fd5b5090506004819080600181540180825580915050600190039060005260206000200160009091909190916101000a81548173ffffffffffffffffffffffffffffffffffffffff021916908373ffffffffffffffffffffffffffffffffffffffff16021790555080915050919050565b600062000e28838362000e30565b905092915050565b60008060008019848609848602925082811083820303915050670de0b6b3a7640000811062000e9857806040517fd31b340200000000000000000000000000000000000000000000000000000000815260040162000e8f919062001252565b60405180910390fd5b600080670de0b6b3a764000086880991506706f05b59d3b1ffff821190506000830362000ee95780670de0b6b3a7640000858162000edb5762000eda62001bc8565b5b040194505050505062000f2f565b807faccb18165bd6fe31ae1cf318dc5b51eee0e1ba569b88cd74c1773b91fac1066960016204000080600003040186851186030262040000858803041702019450505050505b92915050565b82805482825590600052602060002090810192821562000fb1579160200282015b8281111562000fb05782518260006101000a81548173ffffffffffffffffffffffffffffffffffffffff021916908373ffffffffffffffffffffffffffffffffffffffff1602179055509160200191906001019062000f56565b5b50905062000fc0919062001009565b5090565b60405180606001604052806060815260200160008152602001600073ffffffffffffffffffffffffffffffffffffffff1681525090565b6103ef8062001bf883390190565b5b80821115620010245760008160009055506001016200100a565b5090565b6000604051905090565b600080fd5b600080fd5b600073ffffffffffffffffffffffffffffffffffffffff82169050919050565b600062001069826200103c565b9050919050565b6200107b816200105c565b81146200108757600080fd5b50565b6000813590506200109b8162001070565b92915050565b6000819050919050565b620010b681620010a1565b8114620010c257600080fd5b50565b600081359050620010d681620010ab565b92915050565b600080fd5b6000601f19601f8301169050919050565b7f4e487b7100000000000000000000000000000000000000000000000000000000600052604160045260246000fd5b6200112c82620010e1565b810181811067ffffffffffffffff821117156200114e576200114d620010f2565b5b80604052505050565b60006200116362001028565b905062001171828262001121565b919050565b6000604082840312156200118f576200118e620010dc565b5b6200119b604062001157565b90506000620011ad848285016200108a565b6000830152506020620011c384828501620010c5565b60208301525092915050565b60008060008060a08587031215620011ec57620011eb62001032565b5b6000620011fc878288016200108a565b94505060206200120f87828801620010c5565b93505060406200122287828801620010c5565b9250506060620012358782880162001176565b91505092959194509250565b6200124c81620010a1565b82525050565b600060208201905062001269600083018462001241565b92915050565b600080fd5b600067ffffffffffffffff821115620012925762001291620010f2565b5b602082029050602081019050919050565b600080fd5b6000620012bf620012b98462001274565b62001157565b90508083825260208201905060208402830185811115620012e557620012e4620012a3565b5b835b81811015620013125780620012fd88826200108a565b845260208401935050602081019050620012e7565b5050509392505050565b600082601f8301126200133457620013336200126f565b5b813562001346848260208601620012a8565b91505092915050565b6000806000606084860312156200136b576200136a62001032565b5b600084013567ffffffffffffffff8111156200138c576200138b62001037565b5b6200139a868287016200131c565b9350506020620013ad86828701620010c5565b9250506040620013c086828701620010c5565b9150509250925092565b620013d5816200105c565b82525050565b6000604082019050620013f2600083018562001241565b620014016020830184620013ca565b9392505050565b60006020828403121562001421576200142062001032565b5b600062001431848285016200108a565b91505092915050565b6000819050919050565b6000620014656200145f62001459846200103c565b6200143a565b6200103c565b9050919050565b6000620014798262001444565b9050919050565b60006200148d826200146c565b9050919050565b6200149f8162001480565b82525050565b6000602082019050620014bc600083018462001494565b92915050565b600060208284031215620014db57620014da62001032565b5b6000620014eb84828501620010c5565b91505092915050565b60006020820190506200150b6000830184620013ca565b92915050565b6000806000606084860312156200152d576200152c62001032565b5b60006200153d868287016200108a565b93505060206200155086828701620010c5565b925050604062001563868287016200108a565b9150509250925092565b60008115159050919050565b62001584816200156d565b82525050565b6000602082019050620015a1600083018462001579565b92915050565b60008060408385031215620015c157620015c062001032565b5b6000620015d1858286016200108a565b9250506020620015e485828601620010c5565b9150509250929050565b600081519050919050565b600082825260208201905092915050565b6000819050602082019050919050565b62001625816200105c565b82525050565b60006200163983836200161a565b60208301905092915050565b6000602082019050919050565b60006200165f82620015ee565b6200166b8185620015f9565b935062001678836200160a565b8060005b83811015620016af5781516200169388826200162b565b9750620016a08362001645565b9250506001810190506200167c565b5085935050505092915050565b620016c781620010a1565b82525050565b6000620016da826200146c565b9050919050565b620016ec81620016cd565b82525050565b6000606083016000830151848203600086015262001711828262001652565b9150506020830151620017286020860182620016bc565b5060408301516200173d6040860182620016e1565b508091505092915050565b60006020820190508181036000830152620017648184620016f2565b905092915050565b600060608201905062001783600083018662001241565b62001792602083018562001241565b620017a1604083018462001241565b949350505050565b6000620017b6826200146c565b9050919050565b620017c881620017a9565b82525050565b6000602082019050620017e56000830184620017bd565b92915050565b7f4e487b7100000000000000000000000000000000000000000000000000000000600052603260045260246000fd5b7f4e487b7100000000000000000000000000000000000000000000000000000000600052601160045260246000fd5b60006200185682620010a1565b91506200186383620010a1565b92508282039050818111156200187e576200187d6200181a565b5b92915050565b60006060820190506200189b6000830186620013ca565b620018aa6020830185620013ca565b620018b9604083018462001241565b949350505050565b620018cc816200156d565b8114620018d857600080fd5b50565b600081519050620018ec81620018c1565b92915050565b6000602082840312156200190b576200190a62001032565b5b60006200191b84828501620018db565b91505092915050565b60006040820190506200193b6000830185620013ca565b6200194a602083018462001241565b9392505050565b60006200195e82620010a1565b91507fffffffffffffffffffffffffffffffffffffffffffffffffffffffffffffffff82036200199357620019926200181a565b5b600182019050919050565b600082825260208201905092915050565b6000620019bc82620015ee565b620019c881856200199e565b9350620019d5836200160a565b8060005b8381101562001a0c578151620019f088826200162b565b9750620019fd8362001645565b925050600181019050620019d9565b5085935050505092915050565b6000606082019050818103600083015262001a358186620019af565b905062001a466020830185620013ca565b62001a55604083018462001241565b949350505050565b600082825260208201905092915050565b7f556e737570706f72746564206173736574000000000000000000000000000000600082015250565b600062001aa660118362001a5d565b915062001ab38262001a6e565b602082019050919050565b6000602082019050818103600083015262001ad98162001a97565b9050919050565b60008151905062001af181620010ab565b92915050565b60006020828403121562001b105762001b0f62001032565b5b600062001b208482850162001ae0565b91505092915050565b7f4e6f7420656e6f756768206c697175696469747920696e2074686520706f6f6c600082015250565b600062001b6160208362001a5d565b915062001b6e8262001b29565b602082019050919050565b6000602082019050818103600083015262001b948162001b52565b9050919050565b600060408201905062001bb2600083018562001241565b62001bc1602083018462001241565b9392505050565b7f4e487b7100000000000000000000000000000000000000000000000000000000600052601260045260246000fdfe608060405234801561001057600080fd5b506040516103ef3803806103ef8339818101604052810190610032919061007a565b80600081905550506100a7565b600080fd5b6000819050919050565b61005781610044565b811461006257600080fd5b50565b6000815190506100748161004e565b92915050565b6000602082840312156100905761008f61003f565b5b600061009e84828501610065565b91505092915050565b610339806100b66000396000f3fe608060405234801561001057600080fd5b50600436106100415760003560e01c806329fe619914610046578063315f1a41146100645780636683d37d14610094575b600080fd5b61004e6100b0565b60405161005b919061021b565b60405180910390f35b61007e60048036038101906100799190610267565b6100b6565b60405161008b919061021b565b60405180910390f35b6100ae60048036038101906100a991906102a7565b6100e7565b005b60005481565b60006100df826100d1600054866100f190919063ffffffff16565b6100f190919063ffffffff16565b905092915050565b8060008190555050565b60006100fd8383610105565b905092915050565b60008060008019848609848602925082811083820303915050670de0b6b3a7640000811061016a57806040517fd31b3402000000000000000000000000000000000000000000000000000000008152600401610161919061021b565b60405180910390fd5b600080670de0b6b3a764000086880991506706f05b59d3b1ffff82119050600083036101b65780670de0b6b3a764000085816101a9576101a86102d4565b5b04019450505050506101fc565b807faccb18165bd6fe31ae1cf318dc5b51eee0e1ba569b88cd74c1773b91fac1066960016204000080600003040186851186030262040000858803041702019450505050505b92915050565b6000819050919050565b61021581610202565b82525050565b6000602082019050610230600083018461020c565b92915050565b600080fd5b61024481610202565b811461024f57600080fd5b50565b6000813590506102618161023b565b92915050565b6000806040838503121561027e5761027d610236565b5b600061028c85828601610252565b925050602061029d85828601610252565b9150509250929050565b6000602082840312156102bd576102bc610236565b5b60006102cb84828501610252565b91505092915050565b7f4e487b7100000000000000000000000000000000000000000000000000000000600052601260045260246000fdfea2646970667358221220776930fcde403e4ac8f6484b30a5fcf07d73c0a336d7ad206fbf019d635170e164736f6c63430008110033a2646970667358221220496534be8680f296ceaa339a2cc64f5b37eb3be20550a8c311c6f34547aaab6664736f6c63430008110033",
  "linkReferences": {},
  "deployedLinkReferences": {}
}